:020000040800F2
:10000000001000200524000855240008552400088D
:1000100000000000000000000000000000000000E0
:10002000000000000000000000000000552400084F
:100030000000000000000000552400089114000892
:1000400055240008552400085524000855240008AC
:10005000552400085524000855240008552400089C
:10006000552400085524000855240008552400088C
:100070009510000855240008552400085524000850
:10008000552400080000000000000000552400086E
:1000900000000000552400085524000855240008DD
:1000A0000000000055240008552400084D220008D7
:1000B000552400080000000055240008000000003E
:1000C00010B5064C2378002B07D1054B002B02D02E
:1000D000044800E000BF0123237010BD3C04002051
:1000E00000000000D4260008044B10B5002B03D0FC
:1000F0000349044800E000BF10BDC04600000000F6
:1001000040040020D4260008002243088B4274D308
:1001100003098B425FD3030A8B4244D3030B8B4208
:1001200028D3030C8B420DD3FF22090212BA030C11
:100130008B4202D31212090265D0030B8B4219D3F2
:1001400000E0090AC30B8B4201D3CB03C01A524112
:10015000830B8B4201D38B03C01A5241430B8B425A
:1001600001D34B03C01A5241030B8B4201D30B0343
:10017000C01A5241C30A8B4201D3CB02C01A52416A
:10018000830A8B4201D38B02C01A5241430A8B422D
:1001900001D34B02C01A5241030A8B4201D30B0216
:1001A000C01A5241CDD2C3098B4201D3CB01C01A30
:1001B000524183098B4201D38B01C01A524143093A
:1001C0008B4201D34B01C01A524103098B4201D328
:1001D0000B01C01A5241C3088B4201D3CB00C01A95
:1001E000524183088B4201D38B00C01A524143080D
:1001F0008B4201D34B00C01A5241411A00D2014632
:10020000524110467047FFE701B5002000F0F0F8BA
:1002100002BDC0460029F7D076E7704703460B437E
:100220007FD4002243088B4274D303098B425FD3EF
:10023000030A8B4244D3030B8B4228D3030C8B421B
:100240000DD3FF22090212BA030C8B4202D3121201
:10025000090265D0030B8B4219D300E0090AC30BD6
:100260008B4201D3CB03C01A5241830B8B4201D383
:100270008B03C01A5241430B8B4201D34B03C01A6C
:100280005241030B8B4201D30B03C01A5241C30AE4
:100290008B4201D3CB02C01A5241830A8B4201D355
:1002A0008B02C01A5241430A8B4201D34B02C01A3F
:1002B0005241030A8B4201D30B02C01A5241CDD2E4
:1002C000C3098B4201D3CB01C01A524183098B422F
:1002D00001D38B01C01A524143098B4201D34B0118
:1002E000C01A524103098B4201D30B01C01A52417B
:1002F000C3088B4201D3CB00C01A524183088B4202
:1003000001D38B00C01A524143088B4201D34B00EA
:10031000C01A5241411A00D201465241104670475C
:100320005DE0CA0F00D04942031000D34042534061
:1003300000229C4603098B422DD3030A8B4212D321
:10034000FC22890112BA030A8B420CD38901921153
:100350008B4208D3890192118B4204D389013AD090
:10036000921100E08909C3098B4201D3CB01C01A65
:10037000524183098B4201D38B01C01A5241430978
:100380008B4201D34B01C01A524103098B4201D366
:100390000B01C01A5241C3088B4201D3CB00C01AD3
:1003A000524183088B4201D38B00C01A5241D9D2EB
:1003B00043088B4201D34B00C01A5241411A00D26C
:1003C0000146634652415B10104601D34042002B68
:1003D00000D54942704763465B1000D3404201B5E7
:1003E000002000F005F802BD0029F8D016E770479C
:1003F0007047C046002B11D1002A0FD1002900D12F
:10040000002802D00021C943080007B4024802A115
:100410004018029003BDC046D9FFFFFF03B46846F1
:1004200001B5029800F034F8019B9E4602B00CBC66
:100430007047C046F0B5CE46474680B5070099469E
:100440003B0C9C4613041B0C1D000E00614600046F
:10045000140C000C45434B4360436143C0182C0C03
:1004600020188C46834203D980235B029846C444FB
:10047000494679437243030C63442D042D0CC9187B
:10048000000440198918C0BCB946B046F0BDC0464A
:10049000F0B557464E464546DE46E0B504000D0031
:1004A0009246994683B08B4230D82DD0494650466B
:1004B00000F0BAF829000600200000F0B5F8331A61
:1004C0009846203B9B4633D45A4653469340424677
:1004D0001F00534693401E00AF423AD8AF4200D1AE
:1004E00078E05B46A41BBD41002B00DA75E00022DA
:1004F00000230092019301235A4693400193012364
:1005000042469340009328E08242CFD90022002344
:10051000009201930C9B002B01D01C605D60009841
:10052000019903B0F0BCBB46B246A946A046F0BD57
:10053000424620239B1A5246DA40414613004A465F
:100540008A40170042461F43534693401E00AF4265
:10055000C4D900220023009201934346002BD9D036
:10056000FB0772081A4346467B080EE0AB4201D1F6
:10057000A2420CD8A41A9D41012024196D410021EA
:10058000013E24184D41002E06D0AB42EED9013E6B
:1005900024196D41002EF8D1009801995B4600198D
:1005A0006941002B24DB2B005A464446D3402A00E5
:1005B000E2401C005B461500002B2ADB26009E4013
:1005C000330026004746BE403200801A9941009011
:1005D00001919FE7A342BCD883E742462023002134
:1005E0009B1A0022009101920122DA40019286E7D3
:1005F000424620239B1A2A0046469A402300F34095
:10060000444613432A00E2401C005B461500002BC1
:10061000D4DA42462F002023260097409B1ADE4062
:100620003B003343CDE7C04610B5002903D100F0AD
:1006300007F8203002E0080000F002F810BDC046C4
:100640001C2101231B04984201D3000C10391B0A02
:10065000984201D3000A08391B09984201D30009C6
:10066000043902A2105C40187047C046040302021D
:1006700001010101000000000000000080B582B00F
:1006800000AF734B9A6880231B0213405A425341B8
:10069000DAB2FB1D1A706E4B9A688023DB0113409F
:1006A0005A425341DAB2BB1D1A70694B9A688023D3
:1006B0009B0113405A425341DAB27B1D1A70FB1D55
:1006C0001B78002B0BD1BB1D1B78002B07D17B1D8A
:1006D0001B78002B03D05F4B00221A6053E0FB1DF8
:1006E0001B78002B0CD1BB1D1B78002B08D07B1D69
:1006F0001B78002B04D0574BF02292011A6042E085
:10070000FB1D1B78002B0CD1BB1D1B78002B08D0C8
:100710007B1D1B78002B04D14E4BF022D2011A60B6
:1007200031E0FB1D1B78002B0CD0BB1D1B78002B70
:1007300008D07B1D1B78002B04D1464BB42212023B
:100740001A6020E0FB1D1B78002B0CD0BB1D1B7812
:10075000002B08D17B1D1B78002B04D13D4BF022D0
:1007600012021A600FE0FB1D1B78002B69D0BB1D25
:100770001B78002B65D17B1D1B78002B61D0354B7E
:10078000962252021A60334B1A68334B1B689A4206
:1007900059D0304B1A68304B1B68D31A3B603A680B
:1007A000B4231B029A4205DD3B682C4A94466344FD
:1007B0003B6009E03B682A4A934205DA3B68B42271
:1007C0005202944663443B60234B1A68F0231B0299
:1007D0009A420BDB1F4B1A68F0239B019A4205DCFF
:1007E000204B1B685A1C1F4B1A6010E01A4B1A68EA
:1007F000F0239B019A420ADC164B1A68F0231B0275
:100800009A4204DB174B1B685A1E164B1A60114B99
:100810001A68114B1A60134B1A6813005B009B187F
:100820001A01D21AD3021A000A4B1B68D2180E4BB7
:100830001B68D21A0D4B1A600C4B1A680C4B1A60CD
:1008400002E0C04600E0C046BD4602B080BDC046E2
:10085000000800486C040020B80400200098FEFF47
:10086000004CFFFF700400200400002074040020EE
:100870009804002080B58AB000AF5F4B1A685F4BC8
:100880001B68D31A7B627B6A002B01DB012201E02B
:1008900001235A421323FB181A707A6AB4235B02AD
:1008A0009A4202DDB4235B027B627B6A544A934224
:1008B00001DA534B7B621323FB1800229A56130074
:1008C0005B009B181A01D21A53021A004B4B1B688B
:1008D000D2184C4B1A6080239B003B621923FB61AA
:1008E0007B6ADA179B185340FB60FA68B423DB017C
:1008F0009A4209DA00237B6200233B620023FB61FA
:10090000414B00221A6008E0FA68B4231B029A42A5
:1009100003DC20233B620123FB617B6A002B00DAAE
:10092000FF331B12BB60FB69BA6853431A12364B84
:100930001B68D218344B1A60334B1A68FA235B02D7
:100940009A4203DD304BFA2252021A602E4B1B688A
:100950002E4A934202DA2C4B2C4A1A603B6ABA6840
:1009600053431A12284B1B68D3187B607B68DA1735
:100970009B185340BB61BA69C8235B009A4202DDF1
:10098000C8235B00BB61BB691AB2214B1A801B4BA9
:100990001A68204B1B68D31A7B617B69002B02DA33
:1009A0007B695B427B617A69F0235B019A4214DACE
:1009B000FA68F0239B019A420FDD174B1B88013325
:1009C0009AB2154B1A80144B1A88FA239B009A424C
:1009D00009D9124B01221A7005E00F4B00221A8030
:1009E0000E4B00221A70054B1A680A4B1A60C0465B
:1009F000BD460AB080BDC0467C040020980400209B
:100A00000098FEFF78040020A4040020000CFEFFE4
:100A1000940400209C040020A0040020A2040020D4
:100A200080B582B000AF704B1B78002B00D1D7E0AF
:100A30006E4B1B68B42251021800FFF7D5FC0B0067
:100A40001A00B42399001000FFF7E8FB03007B6055
:100A50007B687F2213407B60654B7A689200D35895
:100A6000644A0021525E534364211800FFF7D6FB0D
:100A700003001A00604B1A607B682A337F221A40F9
:100A80005B4B9200D3585B4A0021525E5343642172
:100A90001800FFF7C3FB03001A00584B1A607B686D
:100AA00055337F221A40524B9200D358514A0021AD
:100AB000525E534364211800FFF7B0FB03001A0095
:100AC0004F4B1A604C4B1B684E4A9A184E4B0021F4
:100AD0005B5E19004D4B5B1A9A4208DB4A4B0022C1
:100AE0009B5E9BB2494AD31A9BB21A0017E0424B55
:100AF0001B68474A94466344434A0021525E93422E
:100B000008DB3D4B1B689BB2414A944663449BB251
:100B10001A0004E03C4B00229B5E9BB21A003D4B46
:100B20005A63364B1B68374A9A18374B00215B5E75
:100B30001900364B5B1A9A4208DB334B00229B5E4E
:100B40009BB2324AD31A9BB21A0017E02B4B1B6898
:100B50002F4A944663442C4A0021525E934208DB9C
:100B6000264B1B689BB22A4A944663449BB21A00E8
:100B700004E0254B00229B5E9BB21A00254B9A6332
:100B80001F4B1B681F4A9A181F4B00215B5E190000
:100B90001E4B5B1A9A4208DB1B4B00229B5E9BB2EA
:100BA0001A4AD31A9BB21A0017E0154B1B68184A51
:100BB00094466344144A0021525E934208DB104B72
:100BC0001B689BB2124A944663449BB21A0004E02D
:100BD0000D4B00229B5E9BB21A000E4BDA6300E0C5
:100BE000C046BD4602B080BD5804002078040020F5
:100BF000AC27000894040020600400206404002056
:100C000068040020DB050000A8040020B80B0000E9
:100C1000DC050000002C0140F0B5CE46474680B50B
:100C200089B006AF6B4B5A696A4B01218A435A61FE
:100C300000F010FC00F06AFB00F042FC00F04AFDFE
:100C400001F084FA644B04221A61644B9A68634B86
:100C500004210A439A60624B180001F0ADFB614B1E
:100C60001B68002BFBD072B6C0465E4B00221A6098
:100C700062B6C0465C4B1B78DBB2002B01D0FFF79D
:100C8000F9FDFFF7CDFE594B1B685A1C574B1A60F4
:100C9000564B1B68632BE2D94F4B9A6880239B000D
:100CA00013405A425341DBB27B60514B1B687A6858
:100CB0009A420ED04E4B7A681A604D4B1B68002B3F
:100CC00007D14C4B1B785A425341DBB21A00494BB7
:100CD0001A70464B00221A60474B9A6880231B0209
:100CE00013405A425341DAB2FB1C1A70424B9A68C5
:100CF0008023DB0113405A425341DAB2BB1C1A7005
:100D00003D4B9A6880239B0113405A425341DAB20B
:100D10007B1C1A70374B1B78002B01D0374900E041
:100D20003749384B00229B5E9846374B1B68002B97
:100D300000DAFF331B129946344B1B68002B00DA94
:100D4000FF331B121D00324B1B68002B00DAFF33F0
:100D50001B121E002E4B1A682C4B1B68D31A002B3B
:100D600001DD2C4A00E02C4A294B1868274B1B68F0
:100D7000C31AFF330ADA264B1868244B1B68C31AC0
:100D800000D5FF331B125B421C0008E0204B1868A3
:100D90001E4B1B68C31A00D5FF331B121C001F4BD0
:100DA0001B68002B00DAFF331B129C461C4B1B7880
:100DB000002B01D01B4B00E01B4B1C4805936346E6
:100DC000049303940292019600954B46424601F02B
:100DD00089F944E700100240000400480024014063
:100DE000EC2600089004002000000020AC04002045
:100DF000B00400205804002000080048182700080C
:100E00001C2700089404002074040020980400208B
:100E10007804002020270008242700087C040020F4
:100E2000A2040020282700082C27000830270008EB
:100E300080B582B000AF0200FB1D1A70FB1D1B784D
:100E4000312B06D1804B1B68804A9A187E4B1A6062
:100E5000F5E0FB1D1B78322B07D17B4B1B68F02282
:100E600052019A18784B1A60E9E0FB1D1B78712B30
:100E700006D1774B1B68774A9A18754B1A60DEE0EB
:100E8000FB1D1B78772B07D1714B1B68B422D20155
:100E90009A186F4B1A60D2E0FB1D1B78612B06D1AC
:100EA0006B4B1B686C4A9A18694B1A60C7E0FB1DB4
:100EB0001B78732B07D1664B1B68B42252029A1819
:100EC000634B1A60BBE0FB1D1B787A2B06D1604B8D
:100ED0001B68624A9A185E4B1A60B0E0FB1D1B78D3
:100EE000782B06D15A4B1B685D4A9A18584B1A60EA
:100EF000A5E0FB1D1B78632B00D1A0E0FB1D1B7838
:100F0000642B00D19BE0FB1D1B78332B00D196E0B6
:100F1000FB1D1B78342B12D1524B00229B5E9BB2DF
:100F2000053B9BB21AB24F4B1A804E4B00229B5E80
:100F3000002B00DB83E04B4B00221A807FE0FB1D7F
:100F40001B78352B14D1474B00229B5E9BB2053397
:100F50009BB21AB2434B1A80424B00229A5EFA238C
:100F60005B009A426BDD3F4BFA2252001A8066E02A
:100F7000FB1D1B78362B0AD13B4B01221A703B4BD1
:100F80005A6C3A4B802109020A435A6457E0FB1D10
:100F90001B78372B09D1344B00221A70334B5A6C13
:100FA000324B33490A405A6449E0FB1D1B78392B08
:100FB0001CD1304B1B78DBB25A1E9341DBB20122AD
:100FC0005340DBB21A1C01231340DAB2294B1A70CA
:100FD000284B1B78DBB2002B01D0274B00E0274BBE
:100FE000274A1900100001F07DF828E0FB1D1B784E
:100FF000302B18D1234B1A6813005B009B181A0181
:10100000D21AD3021A00204B1B68D2180E4B1B6851
:10101000D21A1E4B1A601D4B1A681D4B1100180086
:1010200001F060F80BE0FB1D1B78202B07D10E4B65
:101030001B785A425341DBB21A000B4B1A70C04660
:10104000BD4602B080BDC0467804002000E2FFFF2C
:101050007C04002000A6FFFF0098FEFF00E8EAFFE6
:10106000001815009404002058040020002C0140B2
:10107000FF7FFFFF000000206C2700087427000896
:1010800080270008700400206C0400200400002069
:101090009427000880B500AF354B5A69344B0121C5
:1010A0000A435A61334B1B685A1C324B1A60304B4F
:1010B0009B699AB2304B1A802D4BDB699AB22F4B49
:1010C0001A802B4B9B6A9AB22D4B1A80284BDB6AF5
:1010D0009AB22C4B1A80264B5B6B9AB22A4B1A8021
:1010E000234B1B6A9AB2294B1A80214B1B6B9AB275
:1010F000274B1A80274B00221A80264B1B881BB2D5
:10110000002B06DA234B1B881BB2234A93420ADBCF
:1011100005E0204B1B881BB2204A934203DC204B86
:101120001B78002B06D11F4B5A6C1E4B1E490A40E0
:101130005A6406E01B4B5A6C1A4B802109020A4381
:101140005A641A4B1B685A1C184B1A60174B1B68C1
:101150000B2B07D9154B00221A60154B1B685A1C24
:10116000134B1A60FFF78AFAC046BD4680BDC046E1
:10117000002401405C040020800400208204002040
:101180008404002086040020880400208A040020B3
:101190008C0400205A040020AEFCFFFF5203000024
:1011A00058040020002C0140FF7FFFFFB404002002
:1011B0009004002080B582B000AF0200FB1D1A70C1
:1011C000FB1D1B787F2B09D8FB1D1B781A001F23E2
:1011D0001A40044B012191400A001A60C046BD46E6
:1011E00002B080BD00E100E090B583B000AF020026
:1011F0003960FB1D1A70FB1D1B787F2B28D82F4AE6
:10120000FB1D1B785BB29B08C0339B009B58FA1DEB
:101210001278110003220A40D200FF2191400A00F7
:10122000D2431A4011003B689B01FF221A40FB1D6C
:101230001B78180003230340DB009A401F48FB1D66
:101240001B785BB29B080A43C0339B001A5031E005
:101250001B4AFB1D1B7819000F230B40083B9B0802
:1012600006339B00D31804331B68FA1D1278110053
:1012700003220A40D200FF2191400A00D2431A40C3
:1012800011003B689B01FF221A40FB1D1B781800D0
:1012900003230340DB009A400948FB1D1B781C0018
:1012A0000F232340083B9B080A4306339B00C318C7
:1012B00004331A60C046BD4603B090BD00E100E0B3
:1012C00000ED00E080B582B000AF78607B685A1E08
:1012D00080235B049A4201D3012310E00A4B7A6811
:1012E000013A5A6001235B4203211800FFF77CFF9B
:1012F000054B00229A60044B07221A600023180055
:10130000BD4602B080BDC04610E000E080B500AF31
:10131000494B5A69484BF02149030A435A619023CB
:10132000DB055A689023DB0544490A405A60902344
:10133000DB055A689023DB05802149010A435A6086
:101340009023DB05802212015A613D4B1A683C4B09
:101350003A490A401A603A4B1A68394B80214901D0
:101360000A431A60364B08225A61354B1A68344BCF
:1013700034490A401A60324B1A68314B80214900C7
:101380000A431A602E4B04225A612F4B5A682E4B87
:101390002C490A405A602C4B5A682B4B802149003B
:1013A0000A435A60284B8022D2005A61264B1A68A1
:1013B000254B24490A401A60234B1A68224B80218E
:1013C00049000A431A60204B04225A611E4B5A6896
:1013D0001D4BF0218A435A601B4B5A681A4B40211F
:1013E0000A435A60194B5A68184B120112095A6085
:1013F000164B5A68154B8021C9050A435A60134B96
:101400005A68124B12490A405A60104B5A680F4BE7
:101410008021C9040A435A600C4B5A680B4B0C4993
:101420000A405A60094B5A68084B8021C9040A4394
:101430005A60C046BD4680BD00100240FF0FFFFF4E
:10144000000C0048FFF0FFFF0004004800080048BF
:10145000FFFFFFF080B500AF0B4B00221A600B4B73
:101460001B68FA2291001800FEF74EFE03001800D8
:10147000FFF728FF01235B4200211800FFF7B4FEAD
:10148000C046BD4680BDC046C00400200800002004
:1014900080B500AF084B1B68002B04D0064B1B68BF
:1014A0005A1E054B1A60054B1B685A1C034B1A60E9
:1014B000C046BD4680BDC046BC040020C00400201C
:1014C00080B500AF794B9A69784B802109010A43B6
:1014D0009A61764B5A69754BC021C9020A435A6119
:1014E0009023DB055A6A9023DB050F218A435A6259
:1014F0009023DB055A6A9023DB0502210A435A62D6
:101500009023DB055A689023DB050F218A435A603C
:101510009023DB055A689023DB0509210A435A60B2
:101520009023DB055A6A9023DB05F0218A435A6237
:101530009023DB055A6A9023DB0520210A435A6277
:101540009023DB055A689023DB05F0218A435A601B
:101550009023DB055A689023DB0590210A435A60EB
:101560009023DB055A6A9023DB0551490A405A62F1
:101570009023DB055A6A9023DB05802189000A430A
:101580005A629023DB055A689023DB0548490A40DC
:101590005A609023DB055A689023DB0590210901EE
:1015A0000A435A60434B5A6A424B43490A405A62C3
:1015B000404B5A6A3F4B802189030A435A623D4B94
:1015C0005A683C4B3C490A405A603A4B5A68394B7E
:1015D000902109040A435A60364B5A6A354B374901
:1015E0000A405A62334B5A6A324B802189040A43BB
:1015F0005A62304B5A682F4B30490A405A602D4B83
:101600005A682C4B902109050A435A60294B5A6AA3
:10161000284B120112095A62264B5A6A254B802127
:1016200089050A435A62234B5A68224B1201120958
:101630005A60204B5A681F4B902109060A435A6092
:101640001F4B00229A601E4B20221A601C4B002266
:101650009A621B4B1B4ADA62194B01221A63184B20
:1016600020225A60164B184A9A61154B6022DA61A3
:10167000134B164A5A64124B154A1A62104B5A6C95
:101680000F4B802109020A435A640D4B5A680C4BD8
:10169000A82189010A435A60094B1A68084B0121A5
:1016A0000A431A60C046BD4680BDC04600100240D5
:1016B000FFF0FFFF00040048FFFF0FFFFFFFFFF0F8
:1016C000002C0140B80B0000606000001E0C000000
:1016D0005505000080B500AF154B9A69144B802169
:1016E00089000A439A61124B5A69114BC021C90201
:1016F0000A435A619023DB0500221A600D4B1A68D9
:101700000C4BFF218A431A600B4B0C4A5A600A4B60
:101710000B4A9A60084B0B4ADA6000210C20FFF755
:1017200063FD0C20FFF746FDC046BD4680BDC046A8
:101730000010024000040048002401400D04000095
:1017400001020200F7420000B0B58EB000AFB861F0
:10175000F9617A6100237B6301220023BA62FB6294
:101760007B691B697B620EE07B69DB68BB600023E1
:10177000FB60BA68FB68B86AF96AFEF75BFE0200B4
:101780000B00BA62FB62BA6AFB6AB869F969FEF7D4
:1017900031FE02000B007969C9680C0000210D00C0
:1017A0009D4248D8E0D19442DED944E0BA6AFB6A4F
:1017B000B869F969FEF71EFE02000B0013003B62D8
:1017C000B869F969BA6AFB6AFEF714FEBA61FB618F
:1017D0007B69DB683B6000237B603A687B68B86AA2
:1017E000F96AFEF707FE02000B00BA62FB627B6B30
:1017F000002B06D13B6A002B03DCBB6AFA6A134359
:1018000019D13B6A092B0ADD7B691B78042213403E
:10181000DBB2002B01D0372302E0572300E0302356
:101820003A6AD1B27A6A501C78625B18DBB21370E4
:101830007B6B01337B63BB6AFA6A1343B6D17B6A65
:1018400000221A70C046BD460EB0B0BD80B584B04F
:1018500000AFB860F9607A60FB68002B0CDABA68F8
:10186000FB6800200021801A994102000B00BA6039
:10187000FB607B682D221A72B868F9687B681A00D1
:10188000FFF762FFC046BD4604B080BD80B586B09C
:1018900000AF7860396000237B6101233B613B68C6
:1018A0001B69FB6004E03B68DA683B6953433B61BA
:1018B00039697868FEF728FC03001A003B68DB688A
:1018C0009A42F0D237E039697868FEF71DFC0300D0
:1018D000BB607B6839691800FEF79CFC0B007B60DD
:1018E0003B68DB6819003869FEF70EFC03003B61BA
:1018F0007B69002B05D1BB68002B02DC3B69002B08
:1019000019D1BB68092B0ADD3B681B780422134000
:10191000DBB2002B01D0372302E0572300E0302355
:10192000BA68D1B2FA68501CF8605B18DBB2137069
:101930007B6901337B613B69002BC4D1FB680022CA
:101940001A70C046BD4606B080BD80B582B000AFFB
:10195000786039607B68002B05DA7B685B427B60CE
:101960003B682D221A727B683A6811001800FFF755
:101970008DFFC046BD4602B080BD80B586B000AFC9
:101980007860396000237B6101233B613B681B6900
:10199000FB6004E03B68DA683B6953433B613969AB
:1019A0007868FEF7B1FB03001A003B68DB689A42D7
:1019B000F0D237E039697868FEF7A6FB0300BB6018
:1019C0007B6839691800FEF725FC0B007B603B68DB
:1019D000DB6819003869FEF797FB03003B617B6900
:1019E000002B05D1BB68002B02DC3B69002B19D111
:1019F000BB68092B0ADD3B681B7804221340DBB26D
:101A0000002B01D0372302E0572300E03023BA68CF
:101A1000D1B2FA68501CF8605B18DBB213707B69B6
:101A200001337B613B69002BC4D1FB6800221A7033
:101A3000C046BD4606B080BD80B582B000AF7860BC
:101A400039607B68002B05DA7B685B427B603B6812
:101A50002D221A727B683A6811001800FFF78DFF7B
:101A6000C046BD4602B080BD80B582B000AF020066
:101A7000FB1D1A70FB1D1B782F2B07D9FB1D1B7834
:101A8000392B03D8FB1D1B78303B19E0FB1D1B785D
:101A9000602B07D9FB1D1B78662B03D8FB1D1B7819
:101AA000573B0DE0FB1D1B78402B07D9FB1D1B7816
:101AB000462B03D8FB1D1B78373B01E001235B421B
:101AC0001800BD4602B080BD80B588B000AFB960D7
:101AD0007A603B600F23FB18021C1A70BB681B68FE
:101AE000FB610023BB6110E07A697B689A4218DCD5
:101AF0007B68BA695A437B69D318BB61FB695A1C7E
:101B0000FA610F22BA181B7813700F23FB181B7889
:101B10001800FFF7A9FF03007B617B69002BE3DA64
:101B200000E0C046BB68FA691A603B68BA691A608F
:101B30000F23FB181B781800BD4608B080BD80B588
:101B400088B000AFF860B9607A607B685B68FB6161
:101B50007B681B69BB6102E0FB69013BFB61BB6900
:101B60005A1CBA611B78002B02D0FB69002BF3DCF6
:101B70007B681B7A002B02D0FB69013BFB617B6811
:101B80001B7802221340DBB2002B07D07B68DB6896
:101B9000102B03D1FB69023BFB610DE07B681B78D6
:101BA00002221340DBB2002B06D07B68DB68082BD7
:101BB00002D1FB69013BFB617B681B78012213406A
:101BC000DBB2002B11D17B681B7808221340DBB2FB
:101BD000002B0AD104E0FA68BB6820211000984766
:101BE000FB695A1EFA61002BF5DC7B681B7A002B1F
:101BF00005D07B68197AFA68BB68100098477B6843
:101C00001B7802221340DBB2002B17D07B68DB6805
:101C1000102B13D1FA68BB683021100098477B68FD
:101C20001B7804221340DBB2002B01D0582200E0C5
:101C30007822F868BB68110098470FE07B681B7832
:101C400002221340DBB2002B08D07B68DB68082B34
:101C500004D1FA68BB683021100098477B681B7874
:101C600001221340DBB2002B0AD004E0FA68BB6803
:101C7000302110009847FB695A1EFA61002BF5DCF1
:101C80007B681B69BB6106E01723FB181978FA68AB
:101C9000BB6810009847BB695A1CBA6117217A18B3
:101CA0001B7813707B181B78002BEDD17B681B7899
:101CB00001221340DBB2002B11D17B681B78082274
:101CC0001340DBB2002B0AD004E0FA68BB68202185
:101CD00010009847FB695A1EFA61002BF5DCC046DC
:101CE000BD4608B080BD000090B591B000AFF8606F
:101CF000B9607A603B602823FB181022BA181A6179
:101D0000C7E13F22BB181B78252B06D0BB181978DA
:101D1000FA68BB6810009847BBE13E23FB1800221D
:101D20001A7028203B181A7801218A431A703B1830
:101D30001A7802218A431A703B1800225A603B1815
:101D40001A7808218A431A703B1800221A7220E080
:101D50003F23FB181B78302B0BD018DC232B0FD024
:101D60002D2B14D12823FB181A7808210A431A7046
:101D70000FE02823FB181A7801210A431A7008E0A3
:101D80002823FB181A7802210A431A7001E0C04682
:101D90000AE07B685A1C7A603F217A181B7813701E
:101DA0007B181B78002BD3D13F203B181B782F2B9F
:101DB00010D93B181B78392B0CD83C182823FB185A
:101DC0001A1D391D3B18187813000A22FFF77CFEF4
:101DD000030023703F23FB181B782E2B15D12823DB
:101DE000FB181A7801210A431A707B685A1C7A6022
:101DF0003F217A181B7813700A00BB181B782F2B11
:101E000003D9BB181B78392BEFD93F217B181B78DE
:101E10007A2B0AD17B685A1C7A607A181B78137067
:101E20003E23FB1801221A701BE03F217B181B7810
:101E30006C2B16D17B685A1C7A607A181B78137049
:101E40003E203B1801221A707B181B786C2B08D19E
:101E50007B685A1C7A607A181B7813703B18022230
:101E60001A703F23FB181B78782B00DD10E1582BEC
:101E700006DA002B00D119E1252B00D101E107E1A1
:101E8000583B202B00D903E19A008B4BD3181B68D9
:101E90009F4628243B190A22DA603E23FB181B7850
:101EA000022B0DD13B680733072293431A000832F7
:101EB0003A60186859683B191A00FFF745FC19E0A9
:101EC0003E23FB181B78012B0AD13B681A1D3A6090
:101ED0001B682822BA1811001800FFF7D7FC09E088
:101EE0003B681A1D3A601B682822BA1811001800B6
:101EF000FFF743FD2823FA18B968FB681800FFF7BD
:101F00001EFEC6E028243B190A22DA603E23FB1895
:101F10001B78022B0DD13B680733072293431A002D
:101F200008323A60186859683B191A00FFF78EFCAE
:101F300019E03E23FB181B78012B0AD13B681A1DC0
:101F40003A601B682822BA1811001800FFF7FDFC40
:101F500009E03B681A1D3A601B682822BA18110074
:101F60001800FFF769FD2823FA18B968FB68180004
:101F7000FFF7E5FD8DE02823FB181A7802210A43BC
:101F80001A703E23FB1800221A7028243B191022D5
:101F9000DA603F23FB181B78583B5A425341DAB2B0
:101FA0003B1901210A4090001A7804218A43111C30
:101FB000021C0A431A703E23FB181B78022B0DD11A
:101FC0003B680733072293431A0008323A601868C7
:101FD00059683B191A00FFF7B7FB19E03E23FB18BD
:101FE0001B78012B0AD13B681A1D3A601B68282216
:101FF000BA1811001800FFF749FC09E03B681A1DE8
:102000003A601B682822BA1811001800FFF7B5FCC7
:102010002823FA18B968FB681800FFF790FD38E02C
:1020200028217B180822DA603B681A1D3A601B6879
:102030000C007A1811001800FFF79FFC3A19B968D4
:10204000FB681800FFF77BFD23E03B681A1D3A6030
:102050001B68D9B2FA68BB681000984719E03B6862
:102060001A1D3A601A6828243B191A613A19B9688E
:10207000FB681800FFF763FD3B191022BA181A61BC
:1020800007E03F23FB181978FA68BB6810009847EF
:10209000C0467B685A1C7A603F217A181B781370FF
:1020A0007B181B78002B00D02BE600E0C046C04612
:1020B000BD4611B090BDC046AC29000880B582B0C5
:1020C00000AF78603960054B3A681A60044B7A6853
:1020D0001A60C046BD4602B080BDC046C4040020A0
:1020E000C80400200FB480B582B000AF1423FB18E1
:1020F0007B60074B1868074B19687B683A69FFF7E4
:10210000F3FDC046BD4602B080BC08BC04B0184711
:10211000C8040020C404002080B582B000AF0200D3
:10212000FB1D1A70FB1D1B787F2B09D8FB1D1B782C
:102130001A001F231A40044B012191400A001A6023
:10214000C046BD4602B080BD00E100E080B582B06F
:1021500000AF374B9A69364B8021C9010A439A6117
:10216000334B5A69324B8021C9020A435A61314BC1
:102170001A6A304B30490A401A622E4B1A682D4BAE
:102180002D490A401A602B4B1A682A4B90210905E9
:102190000A431A60274B1A6A264B28490A401A62DA
:1021A000244B1A6A234BC02189020A431A62214B2D
:1021B0001A68204B21490A401A601E4B1A681D4BB1
:1021C0008021C9020A431A601D4B00229A611C4BF0
:1021D0003022DA611A4B9A69194B19210A439A6124
:1021E000184B1B68E12251021800FDF78DFF030018
:1021F0001A00BB1D1A80BB1D1B881B099AB2104B0D
:102200001A62BB1D1A880E4B0F210A405A620C4BF2
:1022100002221A611B20FFF77FFF0B4A0A4B1100B5
:102220001800FFF74BFFC046BD4602B080BDC04658
:102230000010024000040048FFFFFFF0FFFFF0FF26
:102240000038014008000020E323000880B582B078
:1022500000AF384BDB68022213402FD0354B5A6950
:10226000344B02210A435A61324B5A68FB1D1A70E3
:10227000FB1D1B781800FEF7DBFDFB1D1B78312BC7
:102280000CD12D4BDB680822134003D02A4B0822C7
:102290005A6113E0284B08221A610FE0FB1D1B78DE
:1022A000322B0BD1244BDB680422134003D0224B8A
:1022B00004225A6102E0204B04221A611D4BDB68A4
:1022C0000122134031D01B4B5A691A4B01210A439A
:1022D0005A611A4B1B68002B21D0194B1B68591CE3
:1022E000174A1160174AD25C124B1A60144B1A68D5
:1022F00080239B009A4202D3114B00221A600F4B9D
:102300001B685A1E0D4B1A600C4B1B68002B0CD11E
:10231000084B1A69074B01218A431A6105E0054BF6
:102320001A69044B01218A431A61C046BD4602B0B6
:1023300080BDC04600380140000C0048D006002097
:10234000CC060020CC04002080B584B000AF020091
:10235000FB1D1A70144B1A69134B01218A431A6131
:10236000124B1A6880239B009A4212D2104B1A68B3
:102370000E4B1B68D318DB05DB0DFB600D4AFB68B9
:10238000D318FA1D12781A70084B1B685A1C074B99
:102390001A60054B1A69044B01210A431A61C046B1
:1023A000BD4604B080BDC04600380140D0060020C4
:1023B000CC060020CC04002080B582B000AF78604D
:1023C00006E07B685A1C7A601B781800FFF7BCFF98
:1023D0007B681B78002BF4D1C046C046BD4602B0D6
:1023E00080BD80B582B000AF78600A00FB1C1A7017
:1023F000FB1C1B781800FFF7A7FFC046BD4602B0C4
:1024000080BD00000D4885460D480E490E4A002348
:1024100002E0D458C4500433C4188C42F9D30B4A98
:102420000B4C002301E013600432A242FBD300F006
:1024300013F800F0ABF8FEF7EFFBFEE7001000200A
:10244000000000203C040020482A00083C04002032
:10245000D8060020FEE7000080B500AF164B1A68D2
:10246000154B01210A431A60134B5A68124B13494A
:102470000A405A60104B1A680F4B11490A401A6003
:102480000D4B1A680C4B0F490A401A600A4B5A68E8
:10249000094B0D490A405A60074B1A68064B0B4915
:1024A0000A401A60044B9F2212049A6000F010F850
:1024B000C046BD4680BDC046001002400CC0FFF8BB
:1024C000FFFFF6FEFFFFFBFFFFFF3CFFFFFF8F005C
:1024D00080B582B000AF284B1A68274B01210A4310
:1024E0001A60C046244B1B6802221340FAD0234BCB
:1024F000234A1A60234B1A68224B10210A431A60A0
:10250000204B1A681F4B07218A431A601B4B1B681C
:10251000013B1D491800FDF7F7FD03007B60194BD7
:102520001968184B7A680A431A60134A124B5268AA
:102530005A60114A104B52685A600F4B1A680E4B82
:10254000802149030A431A600B4B5A680A4B032146
:102550008A435A60084B5A68074B02210A435A6063
:10256000C046054B5B680C221340082BF9D1C046CE
:10257000C046BD4602B080BD0010024008000020E9
:1025800000A24A040020024000366E0170B50C4DD6
:102590000C4E761BB61005D0002408CD01349847A8
:1025A000A642FAD100F096F8074D084E761BB610F9
:1025B00005D0002408CD01349847A642FAD170BD59
:1025C0003C2A00083C2A00083C2A0008442A00084B
:1025D000034B10B5002B02D0024800F005F810BDE7
:1025E00000000000F925000810B5010000230022BA
:1025F000002000F019F810BD70B5074D074C641BA2
:10260000A41005D0013CA300EB589847002CF9D149
:1026100000F066F870BDC046442A0008482A000849
:102620007047C0467047C046F0B5D6464F4646464E
:10263000C0B5264F82B00600386892469846894653
:10264000FFF7EEFF224B1B680193A423019A5B0066
:10265000D558002D2ED06C681F2C30DC002E0FD1E9
:10266000631C6B604B460234A40038686351FFF76B
:10267000D9FF002002B0E0BCBA46B146A846F0BD82
:10268000882251462800A300EB189950873AA240AF
:102690008930FF30016811430160842140464900C0
:1026A0005850022EDCD12B008D33FF3319680A43BA
:1026B0001A60D5E715004D35FF35D550CBE73868A2
:1026C000FFF7B0FF01204042D4E7C04638040020A5
:1026D000302A0008F8B5C046F8BC08BC9E467047D2
:0C26E000F8B5C046F8BC08BC9E46704728
:1026EC000D0A494E464F3A20486F76657220626F4C
:1026FC006172642073746570706572206D6F746F95
:10270C007220746573740D0A000000003100000023
:10271C00300000002B0000002D00000079657300D4
:10272C006E6F000020656E3A257320553A256420A3
:10273C0041726F743A25642825642920416D6F74A9
:10274C003A256428257325642920416578703A253B
:10275C0064205374616C6C3A25730D0A0000000000
:10276C00656E61626C65640064697361626C65645A
:10277C000000000050494420636F6E74726F6C202F
:10278C0025730D0A0000000053796E632070686198
:10279C0073652073657420746F3A2025640D0A00EC
:1027AC0000000000050000000A0000000F000000FF
:1027BC0014000000190000001E000000230000009F
:1027CC00280000002D000000310000003600000041
:1027DC003B00000040000000450000004A000000E3
:1027EC004E00000053000000570000005B0000008A
:1027FC005F00000062000000640000006700000041
:10280C00690000006B0000006D0000006E0000000D
:10281C006F000000700000007100000071000000EB
:10282C007100000071000000700000006F000000DB
:10283C006E0000006D0000006B00000069000000DD
:10284C006700000064000000620000005F000000F0
:10285C005B00000057000000530000004E00000019
:10286C004A00000045000000400000003B00000052
:10287C0036000000310000002D0000002800000090
:10288C00230000001E0000001900000014000000CE
:10289C000F0000000A00000005000000000000000E
:1028AC00FBFFFFFFF6FFFFFFF1FFFFFFECFFFFFF5A
:1028BC00E7FFFFFFE2FFFFFFDDFFFFFFD8FFFFFF9A
:1028CC00D3FFFFFFCFFFFFFFCAFFFFFFC5FFFFFFD7
:1028DC00C0FFFFFFBBFFFFFFB6FFFFFFB2FFFFFF15
:1028EC00ADFFFFFFA9FFFFFFA5FFFFFFA1FFFFFF4C
:1028FC009EFFFFFF9CFFFFFF99FFFFFF97FFFFFF6E
:10290C0095FFFFFF93FFFFFF92FFFFFF91FFFFFF7C
:10291C0090FFFFFF8FFFFFFF8FFFFFFF8FFFFFFF7A
:10292C008FFFFFFF90FFFFFF91FFFFFF92FFFFFF65
:10293C0093FFFFFF95FFFFFF97FFFFFF99FFFFFF3F
:10294C009CFFFFFF9EFFFFFFA1FFFFFFA5FFFFFF07
:10295C00A9FFFFFFADFFFFFFB2FFFFFFB6FFFFFFB9
:10296C00BBFFFFFFC0FFFFFFC5FFFFFFCAFFFFFF5D
:10297C00CFFFFFFFD3FFFFFFD8FFFFFFDDFFFFFF00
:10298C00E2FFFFFFE7FFFFFFECFFFFFFF1FFFFFFA1
:10299C00F6FFFFFFFBFFFFFF000000000000000040
:1029AC008A1F000890200008902000089020000842
:1029BC00902000089020000890200008902000082B
:1029CC009020000890200008902000084A20000861
:1029DC00041F000890200008902000089020000898
:1029EC0090200008041F0008902000089020000888
:1029FC00902000089020000890200008202000085B
:102A0C00761F000890200008902000085E20000827
:102A1C0090200008921E00089020000890200008CA
:082A2C008A1F000810000020C1
:082A34005CDAFF7F01000000E5
:082A3C00D1250008E9000008A3
:042A4400C1000008C5
:102A480001000000005A000000A24A040000000033
:102A580000000000FC02002064030020CC030020DA
:102A6800000000000000000000000000000000005E
:102A7800000000000000000000000000000000004E
:102A8800000000000000000000000000000000003E
:102A9800000000000000000000000000000000002E
:102AA800000000000000000000000000000000001E
:102AB800000000000000000000000000000000000E
:102AC80000000000000000000000000000000000FE
:102AD80000000000000000000000000000000000EE
:102AE80000000000000000000000000000000000DE
:102AF80000000000000000000100000000000000CD
:102B08000E33CDAB34126DE6ECDE05000B00000091
:102B180000000000000000000000000000000000AD
:102B2800000000000000000000000000000000009D
:102B3800000000000000000000000000000000008D
:102B4800000000000000000000000000000000007D
:0C2E78000000000000000000D406002054
:0400000508002405C6
:00000001FF
