:020000040800F2
:100000000010002025230008752300087523000830
:1000100000000000000000000000000000000000E0
:100020000000000000000000000000007523000830
:10003000000000000000000075230008B113000854
:100040007523000875230008752300087523000830
:100050007523000875230008752300087523000820
:100060007523000875230008752300087523000810
:10007000B90F0008752300087523000875230008D0
:100080007523000800000000000000007523000830
:100090000000000075230008752300087523000880
:1000A0000000000075230008752300086D2100087A
:1000B0007523000800000000752300080000000000
:1000C00010B5064C2378002B07D1054B002B02D02E
:1000D000044800E000BF0123237010BD3C04002051
:1000E00000000000F4250008044B10B5002B03D0DD
:1000F0000349044800E000BF10BDC04600000000F6
:1001000040040020F4250008002243088B4274D3E9
:1001100003098B425FD3030A8B4244D3030B8B4208
:1001200028D3030C8B420DD3FF22090212BA030C11
:100130008B4202D31212090265D0030B8B4219D3F2
:1001400000E0090AC30B8B4201D3CB03C01A524112
:10015000830B8B4201D38B03C01A5241430B8B425A
:1001600001D34B03C01A5241030B8B4201D30B0343
:10017000C01A5241C30A8B4201D3CB02C01A52416A
:10018000830A8B4201D38B02C01A5241430A8B422D
:1001900001D34B02C01A5241030A8B4201D30B0216
:1001A000C01A5241CDD2C3098B4201D3CB01C01A30
:1001B000524183098B4201D38B01C01A524143093A
:1001C0008B4201D34B01C01A524103098B4201D328
:1001D0000B01C01A5241C3088B4201D3CB00C01A95
:1001E000524183088B4201D38B00C01A524143080D
:1001F0008B4201D34B00C01A5241411A00D2014632
:10020000524110467047FFE701B5002000F0F0F8BA
:1002100002BDC0460029F7D076E7704703460B437E
:100220007FD4002243088B4274D303098B425FD3EF
:10023000030A8B4244D3030B8B4228D3030C8B421B
:100240000DD3FF22090212BA030C8B4202D3121201
:10025000090265D0030B8B4219D300E0090AC30BD6
:100260008B4201D3CB03C01A5241830B8B4201D383
:100270008B03C01A5241430B8B4201D34B03C01A6C
:100280005241030B8B4201D30B03C01A5241C30AE4
:100290008B4201D3CB02C01A5241830A8B4201D355
:1002A0008B02C01A5241430A8B4201D34B02C01A3F
:1002B0005241030A8B4201D30B02C01A5241CDD2E4
:1002C000C3098B4201D3CB01C01A524183098B422F
:1002D00001D38B01C01A524143098B4201D34B0118
:1002E000C01A524103098B4201D30B01C01A52417B
:1002F000C3088B4201D3CB00C01A524183088B4202
:1003000001D38B00C01A524143088B4201D34B00EA
:10031000C01A5241411A00D201465241104670475C
:100320005DE0CA0F00D04942031000D34042534061
:1003300000229C4603098B422DD3030A8B4212D321
:10034000FC22890112BA030A8B420CD38901921153
:100350008B4208D3890192118B4204D389013AD090
:10036000921100E08909C3098B4201D3CB01C01A65
:10037000524183098B4201D38B01C01A5241430978
:100380008B4201D34B01C01A524103098B4201D366
:100390000B01C01A5241C3088B4201D3CB00C01AD3
:1003A000524183088B4201D38B00C01A5241D9D2EB
:1003B00043088B4201D34B00C01A5241411A00D26C
:1003C0000146634652415B10104601D34042002B68
:1003D00000D54942704763465B1000D3404201B5E7
:1003E000002000F005F802BD0029F8D016E770479C
:1003F0007047C046002B11D1002A0FD1002900D12F
:10040000002802D00021C943080007B4024802A115
:100410004018029003BDC046D9FFFFFF03B46846F1
:1004200001B5029800F034F8019B9E4602B00CBC66
:100430007047C046F0B5CE46474680B5070099469E
:100440003B0C9C4613041B0C1D000E00614600046F
:10045000140C000C45434B4360436143C0182C0C03
:1004600020188C46834203D980235B029846C444FB
:10047000494679437243030C63442D042D0CC9187B
:10048000000440198918C0BCB946B046F0BDC0464A
:10049000F0B557464E464546DE46E0B504000D0031
:1004A0009246994683B08B4230D82DD0494650466B
:1004B00000F0BAF829000600200000F0B5F8331A61
:1004C0009846203B9B4633D45A4653469340424677
:1004D0001F00534693401E00AF423AD8AF4200D1AE
:1004E00078E05B46A41BBD41002B00DA75E00022DA
:1004F00000230092019301235A4693400193012364
:1005000042469340009328E08242CFD90022002344
:10051000009201930C9B002B01D01C605D60009841
:10052000019903B0F0BCBB46B246A946A046F0BD57
:10053000424620239B1A5246DA40414613004A465F
:100540008A40170042461F43534693401E00AF4265
:10055000C4D900220023009201934346002BD9D036
:10056000FB0772081A4346467B080EE0AB4201D1F6
:10057000A2420CD8A41A9D41012024196D410021EA
:10058000013E24184D41002E06D0AB42EED9013E6B
:1005900024196D41002EF8D1009801995B4600198D
:1005A0006941002B24DB2B005A464446D3402A00E5
:1005B000E2401C005B461500002B2ADB26009E4013
:1005C000330026004746BE403200801A9941009011
:1005D00001919FE7A342BCD883E742462023002134
:1005E0009B1A0022009101920122DA40019286E7D3
:1005F000424620239B1A2A0046469A402300F34095
:10060000444613432A00E2401C005B461500002BC1
:10061000D4DA42462F002023260097409B1ADE4062
:100620003B003343CDE7C04610B5002903D100F0AD
:1006300007F8203002E0080000F002F810BDC046C4
:100640001C2101231B04984201D3000C10391B0A02
:10065000984201D3000A08391B09984201D30009C6
:10066000043902A2105C40187047C046040302021D
:1006700001010101000000000000000080B582B00F
:1006800000AF684B9A6880231B0213405A425341C3
:10069000DAB2FB1D1A70634B9A688023DB011340AA
:1006A0005A425341DAB2BB1D1A705E4B9A688023DE
:1006B0009B0113405A425341DAB27B1D1A70FB1D55
:1006C0001B78002B0BD1BB1D1B78002B07D17B1D8A
:1006D0001B78002B03D0544B00221A6053E0FB1D03
:1006E0001B78002B0CD1BB1D1B78002B08D07B1D69
:1006F0001B78002B04D04C4BF02292011A6042E090
:10070000FB1D1B78002B0CD1BB1D1B78002B08D0C8
:100710007B1D1B78002B04D1434BF022D2011A60C1
:1007200031E0FB1D1B78002B0CD0BB1D1B78002B70
:1007300008D07B1D1B78002B04D13B4BB422120246
:100740001A6020E0FB1D1B78002B0CD0BB1D1B7812
:10075000002B08D17B1D1B78002B04D1324BF022DB
:1007600012021A600FE0FB1D1B78002B54D0BB1D3A
:100770001B78002B50D17B1D1B78002B4CD02A4BB3
:10078000962252021A60284B1A68284B1B689A421C
:1007900044D0254B1A68254B1B68D31A3B603A6836
:1007A000B4231B029A4205DD3B68214A9446634408
:1007B0003B6009E03B681F4A934205DA3B68B4227C
:1007C0005202944663443B60184B1A68F0231B02A4
:1007D0009A420BDB144B1A68F0239B019A4205DC0A
:1007E000154B1B685A1C144B1A6010E00F4B1A680B
:1007F000F0239B019A420ADC0B4B1A68F0231B0280
:100800009A4204DB0C4B1B685A1E0B4B1A60064BBA
:100810001A68064B1A6002E0C04600E0C046BD46BA
:1008200002B080BD0008004870040020B004002021
:100830000098FEFF004CFFFF7404002080B586B0D6
:1008400000AF524B1A6813005B009B181A01D21AB2
:10085000D3021A004E4B1B68D2184E4B1B68D21A9B
:100860004D4B1B68D31ADA104B4B1B68D2184A4BFE
:100870001A604A4B1A68484B1B68D31A7B617B6924
:10088000474A934206DB7A69F023DB019A4201DC96
:1008900000237B617A6913009B009B187B60414BAE
:1008A0001A68404B1A603F4B1A68FA235B029A425F
:1008B00003DD3C4BFA2252021A603A4B1B683A4A5B
:1008C000934202DA374B384A1A60364B1B687A6813
:1008D000D3187B607B683B613A69F0239B019A42A5
:1008E00002DDF0239B013B613B69304A934201DA10
:1008F0002E4B3B61284B1A683B69D2182C4B1A606F
:100900007B69DA179B1853403B603B68002B00DA89
:10091000FF331B12FB60FB68C82B01DDC823FB60A3
:10092000FB681AB2234B1A801B4B1A68224B1B68B8
:10093000D31ABB60BB68002B02DABB685B42BB60AA
:10094000BA68F0235B019A4212DA3A68F0239B01FD
:100950009A420DDD194B1B8801339AB2174B1A804E
:10096000164B1B88642B09D9154B01221A7005E020
:10097000124B00221A80124B00221A70064B1A6882
:100980000D4B1A60C046BD4606B080BD7404002001
:100990007004002004000020980400207C04002043
:1009A0000088FFFF9C040020000CFEFF00C4FFFF36
:1009B0007804002094040020A0040020A404002057
:1009C000A604002080B582B000AF704B1B78002BCE
:1009D00000D1D7E06E4B1B68B42251021800FFF71C
:1009E00003FD0B001A00B42399001000FFF716FC5A
:1009F00003007B607B687F2213407B60654B7A68D5
:100A00009200D358644A0021525E53436421180077
:100A1000FFF704FC03001A00604B1A607B682A335E
:100A20007F221A405B4B9200D3585B4A0021525EF2
:100A3000534364211800FFF7F1FB03001A00584BE1
:100A40001A607B6855337F221A40524B9200D3586C
:100A5000514A0021525E534364211800FFF7DEFB28
:100A600003001A004F4B1A604C4B1B684E4A9A18F1
:100A70004E4B00215B5E19004D4B5B1A9A4208DB1E
:100A80004A4B00229B5E9BB2494AD31A9BB21A0082
:100A900017E0424B1B68474A94466344434A00218F
:100AA000525E934208DB3D4B1B689BB2414A944621
:100AB00063449BB21A0004E03C4B00229B5E9BB255
:100AC0001A003D4B5A63364B1B68374A9A18374B0E
:100AD00000215B5E1900364B5B1A9A4208DB334BF0
:100AE00000229B5E9BB2324AD31A9BB21A0017E0D7
:100AF0002B4B1B682F4A944663442C4A0021525EBC
:100B0000934208DB264B1B689BB22A4A94466344F7
:100B10009BB21A0004E0254B00229B5E9BB21A0098
:100B2000254B9A631F4B1B681F4A9A181F4B0021C5
:100B30005B5E19001E4B5B1A9A4208DB1B4B0022BE
:100B40009B5E9BB21A4AD31A9BB21A0017E0154B50
:100B50001B68184A94466344144A0021525E93422B
:100B600008DB104B1B689BB2124A944663449BB24D
:100B70001A0004E00D4B00229B5E9BB21A000E4B44
:100B8000DA6300E0C046BD4602B080BD58040020D4
:100B900078040020F426000894040020600400205B
:100BA0006404002068040020DB050000A804002085
:100BB000B80B0000DC050000002C0140F0B587B048
:100BC00004AF504B5A694F4B01218A435A6100F0E0
:100BD000D1FB00F02BFB00F003FC00F00BFD01F05B
:100BE00045FA494B04221A61484B9A68474B042145
:100BF0000A439A60464B180001F06EFB454B1B6898
:100C0000002BFBD072B6C046424B00221A6062B67F
:100C1000C046FFF733FD404B1B78DBB2002B01D001
:100C2000FFF70CFEFFF7CEFE3C4B1B685A1C3B4BFC
:100C30001A603A4B1B68632BE0D9384B00221A60CC
:100C4000374B9A6880231B0213405A425341DAB251
:100C5000FB1D1A70324B9A688023DB0113405A4205
:100C60005341DAB2BB1D1A702D4B9A6880239B0149
:100C700013405A425341DAB27B1D1A70294B1B783C
:100C8000002B01D0284900E02849294B00229B5E17
:100C90001E00284B1A6813005B009B181A01D21A19
:100CA000D3021A00244B1B68D218244B1B68D31A9A
:100CB00000D5FF331B129C46214B1B68002B00DA2A
:100CC000FF331B121A001F4B1B68002B00DAFF3387
:100CD0001B121C001C4B1B68002B00DAFF331B127D
:100CE0001D001A4B1B78002B01D0194B00E0194B4B
:100CF000194803930295019400926346320001F073
:100D000081F97BE700100240000400480024014004
:100D10000C260008900400206C040020AC04002085
:100D20000008004858040020382600083C26000827
:100D300094040020740400207004002004000020AB
:100D400098040020780400207C040020A6040020E1
:100D500040260008442600084826000880B582B0D6
:100D600000AF0200FB1D1A70FB1D1B78312B06D152
:100D70007E4B1B687E4A9A187C4B1A60F1E0FB1D83
:100D80001B78322B07D1794B1B68F02252019A183D
:100D9000764B1A60E5E0FB1D1B78712B06D1754B75
:100DA0001B68754A9A18734B1A60DAE0FB1D1B78B2
:100DB000772B07D16F4B1B68B422D2019A186D4B69
:100DC0001A60CEE0FB1D1B78612B13D16B4B1B68A7
:100DD0005A1F6A4B1A60694B1B68002B02DA674B7B
:100DE00000221A60654B1A68654B1100180001F06B
:100DF00009F9B6E0FB1D1B78732B16D15F4B1B68FE
:100E00005A1D5E4B1A605D4B1A6896235B009A422E
:100E100003DD5A4B962252001A60584B1A68594B00
:100E20001100180001F0EEF89BE0FB1D1B78332B3E
:100E300000D196E0FB1D1B78342B12D1524B0022BF
:100E40009B5E9BB2053B9BB21AB24F4B1A804E4B36
:100E500000229B5E002B00DB83E04B4B00221A80BC
:100E60007FE0FB1D1B78352B14D1474B00229B5E86
:100E70009BB205339BB21AB2434B1A80424B0022FD
:100E80009A5EFA235B009A426BDD3F4BFA225200D6
:100E90001A8066E0FB1D1B78362B0AD13B4B0122E2
:100EA0001A703B4B5A6C3A4B802109020A435A6430
:100EB00057E0FB1D1B78372B09D1344B00221A70E9
:100EC000334B5A6C324B33490A405A6449E0FB1D9C
:100ED0001B78392B1CD1304B1B78DBB25A1E934147
:100EE000DBB201225340DBB21A1C01231340DAB2F9
:100EF000294B1A70284B1B78DBB2002B01D0274BF3
:100F000000E0274B274A1900100001F07BF828E089
:100F1000FB1D1B78302B18D1234B1A6813005B0084
:100F20009B181A01D21AD3021A00204B1B68D21840
:100F30000E4B1B68D21A1E4B1A601D4B1A681D4BB4
:100F40001100180001F05EF80BE0FB1D1B78202B50
:100F500007D10E4B1B785A425341DBB21A000B4BA0
:100F60001A70C046BD4602B080BDC046780400205D
:100F700000E2FFFF7C04002000A6FFFF000000202D
:100F80007C260008982600089404002058040020BD
:100F9000002C0140FF7FFFFF6C040020B4260008F6
:100FA000BC260008C8260008740400207004002035
:100FB00004000020DC26000880B500AF344B5A69DD
:100FC000334B01210A435A61324B1B685A1C314B87
:100FD0001A602F4B9B699AB22F4B1A802C4BDB69FE
:100FE0009AB22E4B1A802A4B9B6A9AB22C4B1A80CB
:100FF000274BDB6A9AB22B4B1A80254B5B6B9AB25C
:10100000294B1A80224B1B6A9AB2284B1A80204B1C
:101010001B6B9AB2264B1A80264B00221A80254B56
:101020001B881BB2002B06DA224B1B881BB2224AFC
:1010300093420ADB05E01F4B1B881BB21F4A9342F9
:1010400003DC1F4B1B78002B06D11E4B5A6C1D4B2B
:101050001D490A405A6406E01A4B5A6C194B80210C
:1010600009020A435A64194B1B685A1C174B1A6031
:10107000164B1B680B2B07D9144B00221A60144B1C
:101080001B685A1C124B1A60C046BD4680BDC04644
:10109000002401405C040020800400208204002021
:1010A0008404002086040020880400208A04002094
:1010B0008C0400205A040020AEFCFFFF5203000005
:1010C00058040020002C0140FF7FFFFFB4040020E3
:1010D0009004002080B582B000AF0200FB1D1A70A2
:1010E000FB1D1B787F2B09D8FB1D1B781A001F23C3
:1010F0001A40044B012191400A001A60C046BD46C7
:1011000002B080BD00E100E090B583B000AF020006
:101110003960FB1D1A70FB1D1B787F2B28D82F4AC6
:10112000FB1D1B785BB29B08C0339B009B58FA1DCC
:101130001278110003220A40D200FF2191400A00D8
:10114000D2431A4011003B689B01FF221A40FB1D4D
:101150001B78180003230340DB009A401F48FB1D47
:101160001B785BB29B080A43C0339B001A5031E0E6
:101170001B4AFB1D1B7819000F230B40083B9B08E3
:1011800006339B00D31804331B68FA1D1278110034
:1011900003220A40D200FF2191400A00D2431A40A4
:1011A00011003B689B01FF221A40FB1D1B781800B1
:1011B00003230340DB009A400948FB1D1B781C00F9
:1011C0000F232340083B9B080A4306339B00C318A8
:1011D00004331A60C046BD4603B090BD00E100E094
:1011E00000ED00E080B582B000AF78607B685A1EE9
:1011F00080235B049A4201D3012310E00A4B7A68F2
:10120000013A5A6001235B4203211800FFF77CFF7B
:10121000054B00229A60044B07221A600023180035
:10122000BD4602B080BDC04610E000E080B500AF12
:10123000494B5A69484BF02149030A435A619023AC
:10124000DB055A689023DB0544490A405A60902325
:10125000DB055A689023DB05802149010A435A6067
:101260009023DB05802212015A613D4B1A683C4BEA
:101270003A490A401A603A4B1A68394B80214901B1
:101280000A431A60364B08225A61354B1A68344BB0
:1012900034490A401A60324B1A68314B80214900A8
:1012A0000A431A602E4B04225A612F4B5A682E4B68
:1012B0002C490A405A602C4B5A682B4B802149001C
:1012C0000A435A60284B8022D2005A61264B1A6882
:1012D000254B24490A401A60234B1A68224B80216F
:1012E00049000A431A60204B04225A611E4B5A6877
:1012F0001D4BF0218A435A601B4B5A681A4B402100
:101300000A435A60194B5A68184B120112095A6065
:10131000164B5A68154B8021C9050A435A60134B76
:101320005A68124B12490A405A60104B5A680F4BC8
:101330008021C9040A435A600C4B5A680B4B0C4974
:101340000A405A60094B5A68084B8021C9040A4375
:101350005A60C046BD4680BD00100240FF0FFFFF2F
:10136000000C0048FFF0FFFF0004004800080048A0
:10137000FFFFFFF080B500AF0B4B00221A600B4B54
:101380001B68FA2291001800FEF7BEFE0300180049
:10139000FFF728FF01235B4200211800FFF7B4FE8E
:1013A000C046BD4680BDC046BC04002008000020E9
:1013B00080B500AF084B1B68002B04D0064B1B68A0
:1013C0005A1E054B1A60054B1B685A1C034B1A60CA
:1013D000C046BD4680BDC046B8040020BC04002005
:1013E00080B500AF794B9A69784B802109010A4397
:1013F0009A61764B5A69754BC021C9020A435A61FA
:101400009023DB055A6A9023DB050F218A435A6239
:101410009023DB055A6A9023DB0502210A435A62B6
:101420009023DB055A689023DB050F218A435A601D
:101430009023DB055A689023DB0509210A435A6093
:101440009023DB055A6A9023DB05F0218A435A6218
:101450009023DB055A6A9023DB0520210A435A6258
:101460009023DB055A689023DB05F0218A435A60FC
:101470009023DB055A689023DB0590210A435A60CC
:101480009023DB055A6A9023DB0551490A405A62D2
:101490009023DB055A6A9023DB05802189000A43EB
:1014A0005A629023DB055A689023DB0548490A40BD
:1014B0005A609023DB055A689023DB0590210901CF
:1014C0000A435A60434B5A6A424B43490A405A62A4
:1014D000404B5A6A3F4B802189030A435A623D4B75
:1014E0005A683C4B3C490A405A603A4B5A68394B5F
:1014F000902109040A435A60364B5A6A354B3749E2
:101500000A405A62334B5A6A324B802189040A439B
:101510005A62304B5A682F4B30490A405A602D4B63
:101520005A682C4B902109050A435A60294B5A6A84
:10153000284B120112095A62264B5A6A254B802108
:1015400089050A435A62234B5A68224B1201120939
:101550005A60204B5A681F4B902109060A435A6073
:101560001F4B00229A601E4B20221A601C4B002247
:101570009A621B4B1B4ADA62194B01221A63184B01
:1015800020225A60164B184A9A61154B6022DA6184
:10159000134B164A5A64124B154A1A62104B5A6C76
:1015A0000F4B802109020A435A640D4B5A680C4BB9
:1015B000A82189010A435A60094B1A68084B012186
:1015C0000A431A60C046BD4680BDC04600100240B6
:1015D000FFF0FFFF00040048FFFF0FFFFFFFFFF0D9
:1015E000002C0140B80B0000606000001E0C0000E1
:1015F0005505000080B500AF154B9A69144B80214A
:1016000089000A439A61124B5A69114BC021C902E1
:101610000A435A619023DB0500221A600D4B1A68B9
:101620000C4BFF218A431A600B4B0C4A5A600A4B41
:101630000B4A9A60084B0B4ADA6000210C20FFF736
:1016400063FD0C20FFF746FDC046BD4680BDC04689
:101650000010024000040048002401400D04000076
:1016600001020200F7420000B0B58EB000AFB861D1
:10167000F9617A6100237B6301220023BA62FB6275
:101680007B691B697B620EE07B69DB68BB600023C2
:10169000FB60BA68FB68B86AF96AFEF7CBFE020025
:1016A0000B00BA62FB62BA6AFB6AB869F969FEF7B5
:1016B000A1FE02000B007969C9680C0000210D0031
:1016C0009D4248D8E0D19442DED944E0BA6AFB6A30
:1016D000B869F969FEF78EFE02000B0013003B6249
:1016E000B869F969BA6AFB6AFEF784FEBA61FB6100
:1016F0007B69DB683B6000237B603A687B68B86A83
:10170000F96AFEF777FE02000B00BA62FB627B6BA0
:10171000002B06D13B6A002B03DCBB6AFA6A134339
:1017200019D13B6A092B0ADD7B691B78042213401F
:10173000DBB2002B01D0372302E0572300E0302337
:101740003A6AD1B27A6A501C78625B18DBB21370C5
:101750007B6B01337B63BB6AFA6A1343B6D17B6A46
:1017600000221A70C046BD460EB0B0BD80B584B030
:1017700000AFB860F9607A60FB68002B0CDABA68D9
:10178000FB6800200021801A994102000B00BA601A
:10179000FB607B682D221A72B868F9687B681A00B2
:1017A000FFF762FFC046BD4604B080BD80B586B07D
:1017B00000AF7860396000237B6101233B613B68A7
:1017C0001B69FB6004E03B68DA683B6953433B619B
:1017D00039697868FEF798FC03001A003B68DB68FB
:1017E0009A42F0D237E039697868FEF78DFC030041
:1017F000BB607B6839691800FEF70CFD0B007B604D
:101800003B68DB6819003869FEF77EFC03003B612A
:101810007B69002B05D1BB68002B02DC3B69002BE8
:1018200019D1BB68092B0ADD3B681B7804221340E1
:10183000DBB2002B01D0372302E0572300E0302336
:10184000BA68D1B2FA68501CF8605B18DBB213704A
:101850007B6901337B613B69002BC4D1FB680022AB
:101860001A70C046BD4606B080BD80B582B000AFDC
:10187000786039607B68002B05DA7B685B427B60AF
:101880003B682D221A727B683A6811001800FFF736
:101890008DFFC046BD4602B080BD80B586B000AFAA
:1018A0007860396000237B6101233B613B681B69E1
:1018B000FB6004E03B68DA683B6953433B6139698C
:1018C0007868FEF721FC03001A003B68DB689A4247
:1018D000F0D237E039697868FEF716FC0300BB6088
:1018E0007B6839691800FEF795FC0B007B603B684C
:1018F000DB6819003869FEF707FC03003B617B6970
:10190000002B05D1BB68002B02DC3B69002B19D1F1
:10191000BB68092B0ADD3B681B7804221340DBB24D
:10192000002B01D0372302E0572300E03023BA68B0
:10193000D1B2FA68501CF8605B18DBB213707B6997
:1019400001337B613B69002BC4D1FB6800221A7014
:10195000C046BD4606B080BD80B582B000AF78609D
:1019600039607B68002B05DA7B685B427B603B68F3
:101970002D221A727B683A6811001800FFF78DFF5C
:10198000C046BD4602B080BD80B582B000AF020047
:10199000FB1D1A70FB1D1B782F2B07D9FB1D1B7815
:1019A000392B03D8FB1D1B78303B19E0FB1D1B783E
:1019B000602B07D9FB1D1B78662B03D8FB1D1B78FA
:1019C000573B0DE0FB1D1B78402B07D9FB1D1B78F7
:1019D000462B03D8FB1D1B78373B01E001235B42FC
:1019E0001800BD4602B080BD80B588B000AFB960B8
:1019F0007A603B600F23FB18021C1A70BB681B68DF
:101A0000FB610023BB6110E07A697B689A4218DCB5
:101A10007B68BA695A437B69D318BB61FB695A1C5E
:101A2000FA610F22BA181B7813700F23FB181B786A
:101A30001800FFF7A9FF03007B617B69002BE3DA45
:101A400000E0C046BB68FA691A603B68BA691A6070
:101A50000F23FB181B781800BD4608B080BD80B569
:101A600088B000AFF860B9607A607B685B68FB6142
:101A70007B681B69BB6102E0FB69013BFB61BB69E1
:101A80005A1CBA611B78002B02D0FB69002BF3DCD7
:101A90007B681B7A002B02D0FB69013BFB617B68F2
:101AA0001B7802221340DBB2002B07D07B68DB6877
:101AB000102B03D1FB69023BFB610DE07B681B78B7
:101AC00002221340DBB2002B06D07B68DB68082BB8
:101AD00002D1FB69013BFB617B681B78012213404B
:101AE000DBB2002B11D17B681B7808221340DBB2DC
:101AF000002B0AD104E0FA68BB6820211000984747
:101B0000FB695A1EFA61002BF5DC7B681B7A002BFF
:101B100005D07B68197AFA68BB68100098477B6823
:101B20001B7802221340DBB2002B17D07B68DB68E6
:101B3000102B13D1FA68BB683021100098477B68DE
:101B40001B7804221340DBB2002B01D0582200E0A6
:101B50007822F868BB68110098470FE07B681B7813
:101B600002221340DBB2002B08D07B68DB68082B15
:101B700004D1FA68BB683021100098477B681B7855
:101B800001221340DBB2002B0AD004E0FA68BB68E4
:101B9000302110009847FB695A1EFA61002BF5DCD2
:101BA0007B681B69BB6106E01723FB181978FA688C
:101BB000BB6810009847BB695A1CBA6117217A1894
:101BC0001B7813707B181B78002BEDD17B681B787A
:101BD00001221340DBB2002B11D17B681B78082255
:101BE0001340DBB2002B0AD004E0FA68BB68202166
:101BF00010009847FB695A1EFA61002BF5DCC046BD
:101C0000BD4608B080BD000090B591B000AFF8604F
:101C1000B9607A603B602823FB181022BA181A6159
:101C2000C7E13F22BB181B78252B06D0BB181978BB
:101C3000FA68BB6810009847BBE13E23FB180022FE
:101C40001A7028203B181A7801218A431A703B1811
:101C50001A7802218A431A703B1800225A603B18F6
:101C60001A7808218A431A703B1800221A7220E061
:101C70003F23FB181B78302B0BD018DC232B0FD005
:101C80002D2B14D12823FB181A7808210A431A7027
:101C90000FE02823FB181A7801210A431A7008E084
:101CA0002823FB181A7802210A431A7001E0C04663
:101CB0000AE07B685A1C7A603F217A181B781370FF
:101CC0007B181B78002BD3D13F203B181B782F2B80
:101CD00010D93B181B78392B0CD83C182823FB183B
:101CE0001A1D391D3B18187813000A22FFF77CFED5
:101CF000030023703F23FB181B782E2B15D12823BC
:101D0000FB181A7801210A431A707B685A1C7A6002
:101D10003F217A181B7813700A00BB181B782F2BF1
:101D200003D9BB181B78392BEFD93F217B181B78BF
:101D30007A2B0AD17B685A1C7A607A181B78137048
:101D40003E23FB1801221A701BE03F217B181B78F1
:101D50006C2B16D17B685A1C7A607A181B7813702A
:101D60003E203B1801221A707B181B786C2B08D17F
:101D70007B685A1C7A607A181B7813703B18022211
:101D80001A703F23FB181B78782B00DD10E1582BCD
:101D900006DA002B00D119E1252B00D101E107E182
:101DA000583B202B00D903E19A008B4BD3181B68BA
:101DB0009F4628243B190A22DA603E23FB181B7831
:101DC000022B0DD13B680733072293431A000832D8
:101DD0003A60186859683B191A00FFF745FC19E08A
:101DE0003E23FB181B78012B0AD13B681A1D3A6071
:101DF0001B682822BA1811001800FFF7D7FC09E069
:101E00003B681A1D3A601B682822BA181100180096
:101E1000FFF743FD2823FA18B968FB681800FFF79D
:101E20001EFEC6E028243B190A22DA603E23FB1876
:101E30001B78022B0DD13B680733072293431A000E
:101E400008323A60186859683B191A00FFF78EFC8F
:101E500019E03E23FB181B78012B0AD13B681A1DA1
:101E60003A601B682822BA1811001800FFF7FDFC21
:101E700009E03B681A1D3A601B682822BA18110055
:101E80001800FFF769FD2823FA18B968FB681800E5
:101E9000FFF7E5FD8DE02823FB181A7802210A439D
:101EA0001A703E23FB1800221A7028243B191022B6
:101EB000DA603F23FB181B78583B5A425341DAB291
:101EC0003B1901210A4090001A7804218A43111C11
:101ED000021C0A431A703E23FB181B78022B0DD1FB
:101EE0003B680733072293431A0008323A601868A8
:101EF00059683B191A00FFF7B7FB19E03E23FB189E
:101F00001B78012B0AD13B681A1D3A601B682822F6
:101F1000BA1811001800FFF749FC09E03B681A1DC8
:101F20003A601B682822BA1811001800FFF7B5FCA8
:101F30002823FA18B968FB681800FFF790FD38E00D
:101F400028217B180822DA603B681A1D3A601B685A
:101F50000C007A1811001800FFF79FFC3A19B968B5
:101F6000FB681800FFF77BFD23E03B681A1D3A6011
:101F70001B68D9B2FA68BB681000984719E03B6843
:101F80001A1D3A601A6828243B191A613A19B9686F
:101F9000FB681800FFF763FD3B191022BA181A619D
:101FA00007E03F23FB181978FA68BB6810009847D0
:101FB000C0467B685A1C7A603F217A181B781370E0
:101FC0007B181B78002B00D02BE600E0C046C046F3
:101FD000BD4611B090BDC046F428000880B582B05F
:101FE00000AF78603960054B3A681A60044B7A6834
:101FF0001A60C046BD4602B080BDC046C004002085
:10200000C40400200FB480B582B000AF1423FB18C5
:102010007B60074B1868074B19687B683A69FFF7C4
:10202000F3FDC046BD4602B080BC08BC04B01847F2
:10203000C4040020C004002080B582B000AF0200BC
:10204000FB1D1A70FB1D1B787F2B09D8FB1D1B780D
:102050001A001F231A40044B012191400A001A6004
:10206000C046BD4602B080BD00E100E080B582B050
:1020700000AF374B9A69364B8021C9010A439A61F8
:10208000334B5A69324B8021C9020A435A61314BA2
:102090001A6A304B30490A401A622E4B1A682D4B8F
:1020A0002D490A401A602B4B1A682A4B90210905CA
:1020B0000A431A60274B1A6A264B28490A401A62BB
:1020C000244B1A6A234BC02189020A431A62214B0E
:1020D0001A68204B21490A401A601E4B1A681D4B92
:1020E0008021C9020A431A601D4B00229A611C4BD1
:1020F0003022DA611A4B9A69194B19210A439A6105
:10210000184B1B68E12251021800FDF7FDFF030088
:102110001A00BB1D1A80BB1D1B881B099AB2104BED
:102120001A62BB1D1A880E4B0F210A405A620C4BD3
:1021300002221A611B20FFF77FFF0B4A0A4B110096
:102140001800FFF74BFFC046BD4602B080BDC04639
:102150000010024000040048FFFFFFF0FFFFF0FF07
:1021600000380140080000200323000880B582B039
:1021700000AF384BDB68022213402FD0354B5A6931
:10218000344B02210A435A61324B5A68FB1D1A70C4
:10219000FB1D1B781800FEF7E1FDFB1D1B78312BA2
:1021A0000CD12D4BDB680822134003D02A4B0822A8
:1021B0005A6113E0284B08221A610FE0FB1D1B78BF
:1021C000322B0BD1244BDB680422134003D0224B6B
:1021D00004225A6102E0204B04221A611D4BDB6885
:1021E0000122134031D01B4B5A691A4B01210A437B
:1021F0005A611A4B1B68002B21D0194B1B68591CC4
:10220000174A1160174AD25C124B1A60144B1A68B5
:1022100080239B009A4202D3114B00221A600F4B7D
:102220001B685A1E0D4B1A600C4B1B68002B0CD1FF
:10223000084B1A69074B01218A431A6105E0054BD7
:102240001A69044B01218A431A61C046BD4602B097
:1022500080BDC04600380140000C0048CC0600207C
:10226000C8060020C804002080B584B000AF02007A
:10227000FB1D1A70144B1A69134B01218A431A6112
:10228000124B1A6880239B009A4212D2104B1A6894
:102290000E4B1B68D318DB05DB0DFB600D4AFB689A
:1022A000D318FA1D12781A70084B1B685A1C074B7A
:1022B0001A60054B1A69044B01210A431A61C04692
:1022C000BD4604B080BDC04600380140CC060020A9
:1022D000C8060020C804002080B582B000AF786036
:1022E00006E07B685A1C7A601B781800FFF7BCFF79
:1022F0007B681B78002BF4D1C046C046BD4602B0B7
:1023000080BD80B582B000AF78600A00FB1C1A70F7
:10231000FB1C1B781800FFF7A7FFC046BD4602B0A4
:1023200080BD00000D4885460D480E490E4A002329
:1023300002E0D458C4500433C4188C42F9D30B4A79
:102340000B4C002301E013600432A242FBD300F0E7
:1023500013F800F0ABF8FEF731FCFEE700100020A8
:10236000000000203C040020902900083C040020CC
:10237000D4060020FEE7000080B500AF164B1A68B7
:10238000154B01210A431A60134B5A68124B13492B
:102390000A405A60104B1A680F4B11490A401A60E4
:1023A0000D4B1A680C4B0F490A401A600A4B5A68C9
:1023B000094B0D490A405A60074B1A68064B0B49F6
:1023C0000A401A60044B9F2212049A6000F010F831
:1023D000C046BD4680BDC046001002400CC0FFF89C
:1023E000FFFFF6FEFFFFFBFFFFFF3CFFFFFF8F003D
:1023F00080B582B000AF284B1A68274B01210A43F1
:102400001A60C046244B1B6802221340FAD0234BAB
:10241000234A1A60234B1A68224B10210A431A6080
:10242000204B1A681F4B07218A431A601B4B1B68FD
:10243000013B1D491800FDF767FE03007B60194B47
:102440001968184B7A680A431A60134A124B52688B
:102450005A60114A104B52685A600F4B1A680E4B63
:10246000802149030A431A600B4B5A680A4B032127
:102470008A435A60084B5A68074B02210A435A6044
:10248000C046054B5B680C221340082BF9D1C046AF
:10249000C046BD4602B080BD0010024008000020CA
:1024A00000A24A040020024000366E0170B50C4DB7
:1024B0000C4E761BB61005D0002408CD0134984789
:1024C000A642FAD100F096F8074D084E761BB610DA
:1024D00005D0002408CD01349847A642FAD170BD3A
:1024E0008429000884290008842900088C29000810
:1024F000034B10B5002B02D0024800F005F810BDC8
:10250000000000001925000810B50100002300227A
:10251000002000F019F810BD70B5074D074C641B82
:10252000A41005D0013CA300EB589847002CF9D12A
:1025300000F066F870BDC0468C290008902900089C
:102540007047C0467047C046F0B5D6464F4646462F
:10255000C0B5264F82B00600386892469846894634
:10256000FFF7EEFF224B1B680193A423019A5B0047
:10257000D558002D2ED06C681F2C30DC002E0FD1CA
:10258000631C6B604B460234A40038686351FFF74C
:10259000D9FF002002B0E0BCBA46B146A846F0BD63
:1025A000882251462800A300EB189950873AA24090
:1025B0008930FF30016811430160842140464900A1
:1025C0005850022EDCD12B008D33FF3319680A439B
:1025D0001A60D5E715004D35FF35D550CBE7386883
:1025E000FFF7B0FF01204042D4E7C0463804002086
:1025F00078290008F8B5C046F8BC08BC9E4670476C
:0C260000F8B5C046F8BC08BC9E46704708
:10260C000D0A494E464F3A20486F76657220626F2C
:10261C006172642073746570706572206D6F746F75
:10262C007220746573740D0A000000003100000004
:10263C0030000000796573006E6F000020656E3A03
:10264C00257320553A25642041726F743A2564280D
:10265C0025642920416D6F743A256420416578709A
:10266C003A2564205374616C6C3A25730D0A000092
:10267C00537065656420646563726561736564207D
:10268C00746F3A2025640D0A0000000053706565D4
:10269C006420696E6372656173656420746F3A209F
:1026AC0025640D0A00000000656E61626C656400B3
:1026BC0064697361626C65640000000050494420D9
:1026CC00636F6E74726F6C2025730D0A000000002E
:1026DC0053796E6320706861736520736574207420
:1026EC006F3A2025640D0A00000000000500000070
:1026FC000A0000000F000000140000001900000088
:10270C001E00000023000000280000002D00000027
:10271C0031000000360000003B00000040000000CB
:10272C00450000004A0000004E000000530000006D
:10273C00570000005B0000005F000000620000001A
:10274C006400000067000000690000006B000000DE
:10275C006D0000006E0000006F00000070000000B3
:10276C007100000071000000710000007100000099
:10277C00700000006F0000006E0000006D00000093
:10278C006B0000006900000067000000640000009E
:10279C00620000005F0000005B00000057000000BA
:1027AC00530000004E0000004A00000045000000ED
:1027BC00400000003B00000036000000310000002B
:1027CC002D00000028000000230000001E00000067
:1027DC0019000000140000000F0000000A000000A7
:1027EC000500000000000000FBFFFFFFF6FFFFFFED
:1027FC00F1FFFFFFECFFFFFFE7FFFFFFE2FFFFFF33
:10280C00DDFFFFFFD8FFFFFFD3FFFFFFCFFFFFFF71
:10281C00CAFFFFFFC5FFFFFFC0FFFFFFBBFFFFFFAE
:10282C00B6FFFFFFB2FFFFFFADFFFFFFA9FFFFFFEA
:10283C00A5FFFFFFA1FFFFFF9EFFFFFF9CFFFFFF18
:10284C0099FFFFFF97FFFFFF95FFFFFF93FFFFFF30
:10285C0092FFFFFF91FFFFFF90FFFFFF8FFFFFFF36
:10286C008FFFFFFF8FFFFFFF8FFFFFFF90FFFFFF2B
:10287C0091FFFFFF92FFFFFF93FFFFFF95FFFFFF0D
:10288C0097FFFFFF99FFFFFF9CFFFFFF9EFFFFFFDE
:10289C00A1FFFFFFA5FFFFFFA9FFFFFFADFFFFFF9C
:1028AC00B2FFFFFFB6FFFFFFBBFFFFFFC0FFFFFF45
:1028BC00C5FFFFFFCAFFFFFFCFFFFFFFD3FFFFFFE7
:1028CC00D8FFFFFFDDFFFFFFE2FFFFFFE7FFFFFF8A
:1028DC00ECFFFFFFF1FFFFFFF6FFFFFFFBFFFFFF2A
:1028EC000000000000000000AA1E0008B01F000835
:1028FC00B01F0008B01F0008B01F0008B01F000870
:10290C00B01F0008B01F0008B01F0008B01F00085F
:10291C00B01F00086A1F0008241E0008B01F000822
:10292C00B01F0008B01F0008B01F0008241E0008CC
:10293C00B01F0008B01F0008B01F0008B01F00082F
:10294C00B01F0008401F0008961E0008B01F0008AA
:10295C00B01F00087E1F0008B01F0008B21D000841
:10296C00B01F0008B01F0008AA1E000810000020AD
:08297C0014DBFF7F01000000E5
:08298400F1240008E90000083D
:04298C00C10000087E
:102990003C000000005A000000A24A0400000000B1
:1029A00000000000FC02002064030020CC03002093
:1029B0000000000000000000000000000000000017
:1029C0000000000000000000000000000000000007
:1029D00000000000000000000000000000000000F7
:1029E00000000000000000000000000000000000E7
:1029F00000000000000000000000000000000000D7
:102A000000000000000000000000000000000000C6
:102A100000000000000000000000000000000000B6
:102A200000000000000000000000000000000000A6
:102A30000000000000000000000000000000000096
:102A40000000000000000000010000000000000085
:102A50000E33CDAB34126DE6ECDE05000B0000004A
:102A60000000000000000000000000000000000066
:102A70000000000000000000000000000000000056
:102A80000000000000000000000000000000000046
:102A90000000000000000000000000000000000036
:0C2DC0000000000000000000D006002011
:0400000508002325A7
:00000001FF
