:020000040800F2
:1000000000100020C9210008192200081922000848
:1000100000000000000000000000000000000000E0
:10002000000000000000000000000000192200088D
:10003000000000000000000019220008F509000877
:1000400019220008192200081922000819220008A4
:100050001922000819220008192200081922000894
:100060001922000819220008192200081922000884
:10007000C9020008192200081922000819220008E4
:1000800019220008000000000000000019220008EA
:100090000000000019220008192200081922000897
:1000A0000000000019220008192200087119000838
:1000B00019220008000000001922000800000000BA
:1000C00010B5064C2378002B07D1054B002B02D02E
:1000D000044800E000BF0123237010BD3C04002051
:1000E0000000000064230008044B10B5002B03D06F
:1000F0000349044800E000BF10BDC04600000000F6
:100100004004002064230008F0B5D6464F4646461A
:10011000C0B588B008AF324B5A69314B01218A43D0
:100120005A6100F049FC00F0A3FB01F0A1FB00F0D4
:100130008DFC00F095FD2B4B04221A612A4B9A6826
:10014000294B04210A439A60284B180001F0C2FC95
:100150009023DB05802212011A61FA235B0018004C
:1001600000F060FC9023DB05802212015A61FA2323
:100170005B00180000F056FC1D4B1D681D4B5B8892
:100180009BB299461B4B9B889BB29A46194B1B8886
:100190009BB21E00174BDB889BB29C46154B1B89FC
:1001A0009BB29846144B1B78002B01D0134B00E0F8
:1001B000134B144A1168144A1068144A1268144CFC
:1001C000069205900491039343460293634601937C
:1001D000009653464A462900200001F047FAB7E747
:1001E000001002400004004800240140FC230008E5
:1001F000980400205C0400205804002028240008F3
:100200002C2400086C0400207004002074040020DA
:100210003024000880B582B000AF0200FB1D1A70C8
:10022000FB1D1B78312B05D1234B1B685A1C224B1D
:100230001A603DE0FB1D1B78322B05D11F4B1B685C
:100240005A1C1E4B1A6033E0FB1D1B78332B05D163
:100250001B4B1B685A1C1A4B1A6029E0FB1D1B78AC
:10026000712B05D1144B1B685A1E134B1A601FE0EB
:10027000FB1D1B78772B05D1104B1B685A1E0F4BAB
:100280001A6015E0FB1D1B78652B05D10C4B1B6814
:100290005A1E0B4B1A600BE0FB1D1B78202B07D15D
:1002A000084B1B785A425341DBB21A00054B1A70B7
:1002B000C046BD4602B080BD6C0400207004002022
:1002C000740400205804002080B582B000AFDF4BDA
:1002D0005A69DE4B01210A435A61DC4B9B699AB291
:1002E000DA4BDB699BB2D31A9BB21B051B0D9AB28A
:1002F000D74B5A80D54B9B6A9AB2D44BDB6A9BB2E0
:10030000D31A9BB21B051B0D9AB2D14B9A80CF4BCF
:100310005B6B9BB21B051B0D9AB2CD4B1A80CB4B6E
:10032000DB6B9BB21B051B0D9AB2C94BDA80C74B26
:100330001B6D9BB21B051B0D9AB2C54B1A81C54B99
:100340001B78002B06D0C34B1B78013BDAB2C14BA4
:100350001A70D5E1C04B00229B5E002B4ADDBC4BDE
:100360005B889BB21A00BD4B1B68D218BB4B1A604E
:10037000B74B9B889BB21A00B94B1B68D218B84B7D
:100380001A60B34B1B889BB21A00B64B1B68D2187D
:10039000B44B1A60B04B00229B5E9BB2013B9BB2F8
:1003A0001AB2AD4B1A80AC4B00229B5E002B00D0E2
:1003B000A5E1AA4B1B68002B02DAAB4A94466344C2
:1003C0009B121AB2A94B1A80A54B1B68002B02DAAC
:1003D000A54A944663449B121AB2A54B1A80A14BBE
:1003E0001B68002B02DAA04A944663449B121AB29F
:1003F000A04B1A80964B5B889AB29C4B00215B5EA7
:100400009BB2D31A9BB21AB29B4B1A80904B9B881B
:100410009AB2974B00215B5E9BB2D31A9BB21AB281
:10042000964B1A808A4B1B889AB2924B00215B5ED6
:100430009BB2D31A9BB21AB2914B1A80904B1B8875
:100440001BB2002B06DA8E4B1B881BB28D4A9342DF
:100450000ADB05E08A4B1B881BB28B4A934203DC04
:100460008A4B1B78002B06D1894B5A6C884B8949E3
:100470000A405A6406E0864B5A6C854B802109027B
:100480000A435A64844B9A6880231B0213405A42E1
:100490005341DAB2FB1D1A707F4B9A688023DB014F
:1004A00013405A425341DAB2BB1D1A707A4B9A6814
:1004B00080239B0113405A425341DAB27B1D1A70CC
:1004C000764B1A68764B9200D258764B1B68534392
:1004D0006421180001F048FC03001A00724B1A60F6
:1004E0006E4B1B680A33714A134004D5013B20222E
:1004F0005242134301331A00694B9200D258694BA0
:100500001B6853436421180001F02EFC03001A00FD
:10051000674B1A60614B1B681533644A134004D55E
:10052000013B20225242134301331A005C4B9200DC
:10053000D2585C4B1B6853436421180001F014FC33
:1005400003001A005B4B1A60544B1B680133574A77
:10055000134004D5013B20225242134301331A00B9
:100560004E4B1A60504B1B68534A9A18534B00214C
:100570005B5E1900524B5B1A9A4208DB4F4B00221C
:100580009B5E9BB24E4AD31A9BB21A0017E0464BB1
:100590001B684C4A94466344484A0021525E934289
:1005A00008DB414B1B689BB2464A944663449BB2AE
:1005B0001A0004E0414B00229B5E9BB21A00344BB0
:1005C0005A633B4B1B683C4A9A183C4B00215B5ECC
:1005D00019003B4B5B1A9A4208DB384B00229B5EAA
:1005E0009BB2374AD31A9BB21A0017E0304B1B68F4
:1005F000344A94466344314A0021525E934208DBF8
:100600002B4B1B689BB22F4A944663449BB21A0043
:1006100004E02A4B00229B5E9BB21A001C4B9A639B
:10062000244B1B68244A9A18244B00215B5E190056
:10063000234B5B1A9A4247DB204B00229B5E9BB206
:100640001F4AD31A9BB21A0056E0C046002401404C
:100650005C0400200400002006000020800400202C
:100660008404002088040020FF0300008C04002084
:100670008E040020900400206604002068040020FE
:100680006A040020AEFCFFFF520300005804002063
:10069000002C0140FF7FFFFF000800487804002085
:1006A0007C230008000000206C0400201F00008054
:1006B0007004002074040020DB0500007C0400208E
:1006C000B80B0000DC0500000F4B1B680F4A944676
:1006D00063440F4A0021525E934208DB0A4B1B68B9
:1006E0009BB20A4A944663449BB21A0004E0084B4A
:1006F00000229B5E9BB21A00064BDA6300E0C04604
:10070000BD4602B080BDC04674040020DC05000078
:100710007C040020002C014080B582B000AF0200B4
:10072000FB1D1A70FB1D1B787F2B09D8FB1D1B7846
:100730001A001F231A40044B012191400A001A603D
:10074000C046BD4602B080BD00E100E090B583B078
:1007500000AF02003960FB1D1A70FB1D1B787F2B58
:1007600028D82F4AFB1D1B785BB29B08C0339B0027
:100770009B58FA1D1278110003220A40D200FF2173
:1007800091400A00D2431A4011003B689B01FF22AE
:100790001A40FB1D1B78180003230340DB009A401E
:1007A0001F48FB1D1B785BB29B080A43C0339B00AC
:1007B0001A5031E01B4AFB1D1B7819000F230B4018
:1007C000083B9B0806339B00D31804331B68FA1DB3
:1007D0001278110003220A40D200FF2191400A0042
:1007E000D2431A4011003B689B01FF221A40FB1DB7
:1007F0001B78180003230340DB009A400948FB1DC7
:100800001B781C000F232340083B9B080A43063338
:100810009B00C31804331A60C046BD4603B090BDA8
:1008200000E100E000ED00E080B582B000AF78604C
:100830007B685A1E80235B049A4201D3012310E097
:100840000A4B7A68013A5A6001235B42032118007F
:10085000FFF77CFF054B00229A60044B07221A60C9
:1008600000231800BD4602B080BDC04610E000E085
:1008700080B500AF494B5A69484BF02149030A4300
:100880005A619023DB055A689023DB0544490A40EE
:100890005A609023DB055A689023DB0580214901CB
:1008A0000A435A609023DB05802212015A613D4BB6
:1008B0001A683C4B3A490A401A603A4B1A68394B5D
:1008C000802149010A431A60364B08225A61354B90
:1008D0001A68344B34490A401A60324B1A68314B5B
:1008E000802149000A431A602E4B04225A612F4B83
:1008F0005A682E4B2C490A405A602C4B5A682B4B95
:10090000802149000A435A60284B8022D2005A6154
:10091000264B1A68254B24490A401A60234B1A6853
:10092000224B802149000A431A60204B04225A615D
:100930001E4B5A681D4BF0218A435A601B4B5A6864
:100940001A4B40210A435A60194B5A68184B12013E
:1009500012095A60164B5A68154B8021C9050A4383
:100960005A60134B5A68124B12490A405A60104B96
:100970005A680F4B8021C9040A435A600C4B5A68CD
:100980000B4B0C490A405A60094B5A68084B8021AE
:10099000C9040A435A60C046BD4680BD00100240EB
:1009A000FF0FFFFF000C0048FFF0FFFF00040048AE
:1009B00000080048FFFFFFF080B500AF0B4B00229E
:1009C0001A600B4B1B68FA229100180001F042F9E3
:1009D00003001800FFF728FF01235B4200211800E5
:1009E000FFF7B4FEC046BD4680BDC0469804002057
:1009F0000800002080B500AF084B1B68002B04D016
:100A0000064B1B685A1E054B1A60054B1B685A1C87
:100A1000034B1A60C046BD4680BDC046940400200A
:100A20009804002080B582B000AF7860064B7A68E9
:100A30001A60C046044B1B68002BFBD1C046C04661
:100A4000BD4602B080BDC0469404002080B500AF12
:100A5000794B9A69784B802109010A439A61764B58
:100A60005A69754BC021C9020A435A619023DB05BC
:100A70005A6A9023DB050F218A435A629023DB05D3
:100A80005A6A9023DB0502210A435A629023DB0550
:100A90005A689023DB050F218A435A609023DB05B7
:100AA0005A689023DB0509210A435A609023DB052D
:100AB0005A6A9023DB05F0218A435A629023DB05B2
:100AC0005A6A9023DB0520210A435A629023DB05F2
:100AD0005A689023DB05F0218A435A609023DB0596
:100AE0005A689023DB0590210A435A609023DB0566
:100AF0005A6A9023DB0551490A405A629023DB056C
:100B00005A6A9023DB05802189000A435A629023A8
:100B1000DB055A689023DB0548490A405A60902358
:100B2000DB055A689023DB05902109010A435A60CE
:100B3000434B5A6A424B43490A405A62404B5A6AF5
:100B40003F4B802189030A435A623D4B5A683C4B14
:100B50003C490A405A603A4B5A68394B9021090483
:100B60000A435A60364B5A6A354B37490A405A6233
:100B7000334B5A6A324B802189040A435A62304B04
:100B80005A682F4B30490A405A602D4B5A682C4BFB
:100B9000902109050A435A60294B5A6A284B1201D1
:100BA00012095A62264B5A6A254B802189050A434D
:100BB0005A62234B5A68224B120112095A60204B89
:100BC0005A681F4B902109060A435A601F4B0022A6
:100BD0009A601E4B20221A601C4B00229A621B4B0B
:100BE0001B4ADA62194B01221A63184B20225A6001
:100BF000164B184A9A61154B6022DA61134B164A5C
:100C00005A64124B154A1A62104B5A6C0F4B8021D2
:100C100009020A435A640D4B5A680C4BA8218901FA
:100C20000A435A60094B1A68084B01210A431A60AB
:100C3000C046BD4680BDC04600100240FFF0FFFF29
:100C400000040048FFFF0FFFFFFFFFF0002C0140F2
:100C5000B80B0000606000001E0C0000550500008D
:100C600080B500AF154B9A69144B802189000A4367
:100C70009A61124B5A69114BC021C9020A435A6149
:100C80009023DB0500221A600D4B1A680C4BFF21E4
:100C90008A431A600B4B0C4A5A600A4B0B4A9A6003
:100CA000084B0B4ADA6000210C20FFF74FFD0C20A7
:100CB000FFF732FDC046BD4680BDC0460010024071
:100CC00000040048002401400D040000010202005D
:100CD000B3420000B0B58EB000AFB861F9617A617F
:100CE00000237B6301220023BA62FB627B691B69DC
:100CF0007B620EE07B69DB68BB600023FB60BA6847
:100D0000FB68B86AF96A01F03BF902000B00BA62AD
:100D1000FB62BA6AFB6AB869F96901F011F902006D
:100D20000B007969C9680C0000210D009D4248D86C
:100D3000E0D19442DED944E0BA6AFB6AB869F96945
:100D400001F0FEF802000B0013003B62B869F9697C
:100D5000BA6AFB6A01F0F4F8BA61FB617B69DB688F
:100D60003B6000237B603A687B68B86AF96A01F0EF
:100D7000E7F802000B00BA62FB627B6B002B06D126
:100D80003B6A002B03DCBB6AFA6A134319D13B6A46
:100D9000092B0ADD7B691B7804221340DBB2002B90
:100DA00001D0372302E0572300E030233A6AD1B262
:100DB0007A6A501C78625B18DBB213707B6B01336C
:100DC0007B63BB6AFA6A1343B6D17B6A00221A704E
:100DD000C046BD460EB0B0BD80B584B000AFB860AF
:100DE000F9607A60FB68002B0CDABA68FB680020B7
:100DF0000021801A994102000B00BA60FB607B68F9
:100E00002D221A72B868F9687B681A00FFF762FF32
:100E1000C046BD4604B080BD80B586B000AF7860E6
:100E2000396000237B6101233B613B681B69FB60E8
:100E300004E03B68DA683B6953433B613969786891
:100E400000F008FF03001A003B68DB689A42F0D20A
:100E500037E03969786800F0FDFE0300BB607B680D
:100E60003969180000F07CFF0B007B603B68DB6891
:100E70001900386900F0EEFE03003B617B69002B2E
:100E800005D1BB68002B02DC3B69002B19D1BB6884
:100E9000092B0ADD3B681B7804221340DBB2002BD0
:100EA00001D0372302E0572300E03023BA68D1B2E3
:100EB000FA68501CF8605B18DBB213707B69013371
:100EC0007B613B69002BC4D1FB6800221A70C046CD
:100ED000BD4606B080BD80B582B000AF7860396095
:100EE0007B68002B05DA7B685B427B603B682D22C8
:100EF0001A727B683A6811001800FFF78DFFC04630
:100F0000BD4602B080BD80B586B000AF7860396064
:100F100000237B6101233B613B681B69FB6004E0AC
:100F20003B68DA683B6953433B613969786800F094
:100F300091FE03001A003B68DB689A42F0D237E06A
:100F40003969786800F086FE0300BB607B68396908
:100F5000180000F005FF0B007B603B68DB681900A0
:100F6000386900F077FE03003B617B69002B05D1F7
:100F7000BB68002B02DC3B69002B19D1BB68092B35
:100F80000ADD3B681B7804221340DBB2002B01D042
:100F9000372302E0572300E03023BA68D1B2FA6861
:100FA000501CF8605B18DBB213707B6901337B6106
:100FB0003B69002BC4D1FB6800221A70C046BD46B5
:100FC00006B080BD80B582B000AF786039607B68C4
:100FD000002B05DA7B685B427B603B682D221A722E
:100FE0007B683A6811001800FFF78DFFC046BD46C8
:100FF00002B080BD80B582B000AF0200FB1D1A7048
:10100000FB1D1B782F2B07D9FB1D1B78392B03D811
:10101000FB1D1B78303B19E0FB1D1B78602B07D9AB
:10102000FB1D1B78662B03D8FB1D1B78573B0DE07F
:10103000FB1D1B78402B07D9FB1D1B78462B03D8C3
:10104000FB1D1B78373B01E001235B421800BD46C6
:1010500002B080BD80B588B000AFB9607A603B60F7
:101060000F23FB18021C1A70BB681B68FB6100236E
:10107000BB6110E07A697B689A4218DC7B68BA69C8
:101080005A437B69D318BB61FB695A1CFA610F2272
:10109000BA181B7813700F23FB181B781800FFF782
:1010A000A9FF03007B617B69002BE3DA00E0C04607
:1010B000BB68FA691A603B68BA691A600F23FB18AB
:1010C0001B781800BD4608B080BD80B588B000AF61
:1010D000F860B9607A607B685B68FB617B681B695C
:1010E000BB6102E0FB69013BFB61BB695A1CBA6151
:1010F0001B78002B02D0FB69002BF3DC7B681B7A8A
:10110000002B02D0FB69013BFB617B681B7802224C
:101110001340DBB2002B07D07B68DB68102B03D1B8
:10112000FB69023BFB610DE07B681B7802221340E8
:10113000DBB2002B06D07B68DB68082B02D1FB6991
:10114000013BFB617B681B7801221340DBB2002B63
:1011500011D17B681B7808221340DBB2002B0AD127
:1011600004E0FA68BB68202110009847FB695A1E0A
:10117000FA61002BF5DC7B681B7A002B05D07B68BD
:10118000197AFA68BB68100098477B681B780222BE
:101190001340DBB2002B17D07B68DB68102B13D118
:1011A000FA68BB683021100098477B681B780422DE
:1011B0001340DBB2002B01D0582200E07822F868FF
:1011C000BB68110098470FE07B681B780222134030
:1011D000DBB2002B08D07B68DB68082B04D1FA68EF
:1011E000BB683021100098477B681B7801221340B0
:1011F000DBB2002B0AD004E0FA68BB683021100093
:101200009847FB695A1EFA61002BF5DC7B681B6965
:10121000BB6106E01723FB181978FA68BB68100059
:101220009847BB695A1CBA6117217A181B7813704A
:101230007B181B78002BEDD17B681B7801221340B3
:10124000DBB2002B11D17B681B7808221340DBB284
:10125000002B0AD004E0FA68BB68202110009847F0
:10126000FB695A1EFA61002BF5DCC046BD4608B08A
:1012700080BD90B591B000AFF860B9607A603B6016
:101280002823FB181022BA181A61C7E13F22BB18A5
:101290001B78252B06D0BB181978FA68BB6810009C
:1012A0009847BBE13E23FB1800221A7028203B1808
:1012B0001A7801218A431A703B181A7802218A434E
:1012C0001A703B1800225A603B181A7808218A438A
:1012D0001A703B1800221A7220E03F23FB181B787B
:1012E000302B0BD018DC232B0FD02D2B14D128231F
:1012F000FB181A7808210A431A700FE02823FB18FC
:101300001A7801210A431A7008E02823FB181A787A
:1013100002210A431A7001E0C0460AE07B685A1CA9
:101320007A603F217A181B7813707B181B78002B8A
:10133000D3D13F203B181B782F2B10D93B181B789B
:10134000392B0CD83C182823FB181A1D391D3B18C3
:10135000187813000A22FFF77DFE030023703F2355
:10136000FB181B782E2B15D12823FB181A78012186
:101370000A431A707B685A1C7A603F217A181B78DE
:1013800013700A00BB181B782F2B03D9BB181B78CE
:10139000392BEFD93F217B181B787A2B0AD17B6838
:1013A0005A1C7A607A181B7813703E23FB180122AE
:1013B0001A701BE03F217B181B786C2B16D17B68C1
:1013C0005A1C7A607A181B7813703E203B18012251
:1013D0001A707B181B786C2B08D17B685A1C7A60BA
:1013E0007A181B7813703B1802221A703F23FB18DF
:1013F0001B78782B00DD10E1582B06DA002B00D18A
:1014000019E1252B00D101E107E1583B202B00D940
:1014100003E19A008A4BD3181B689F4628243B1986
:101420000A22DA603E23FB181B78022B0DD13B68A1
:101430000733072293431A0008323A601868596844
:101440003B191A00FFF746FC19E03E23FB181B78F6
:10145000012B0AD13B681A1D3A601B682822BA1872
:1014600011001800FFF7D8FC09E03B681A1D3A602C
:101470001B682822BA1811001800FFF744FD282322
:10148000FA18B968FB681800FFF71FFEC6E02824A9
:101490003B190A22DA603E23FB181B78022B0DD180
:1014A0003B680733072293431A0008323A601868F2
:1014B00059683B191A00FFF78FFC19E03E23FB180F
:1014C0001B78012B0AD13B681A1D3A601B68282241
:1014D000BA1811001800FFF7FEFC09E03B681A1D5E
:1014E0003A601B682822BA1811001800FFF76AFD3D
:1014F0002823FA18B968FB681800FFF7E6FD8DE0AD
:101500002823FB181A7802210A431A703E23FB187D
:1015100000221A7028243B191022DA603F23FB189E
:101520001B78583B5A425341DAB23B1901210A4019
:1015300090001A7804218A43111C021C0A431A7075
:101540003E23FB181B78022B0DD13B680733072283
:1015500093431A0008323A60186859683B191A0018
:10156000FFF7B8FB19E03E23FB181B78012B0AD1CB
:101570003B681A1D3A601B682822BA18110018002F
:10158000FFF74AFC09E03B681A1D3A601B682822F5
:10159000BA1811001800FFF7B6FC2823FA18B9682A
:1015A000FB681800FFF791FD38E028217B1808221E
:1015B000DA603B681A1D3A601B680C007A1811004B
:1015C0001800FFF7A0FC3A19B968FB681800FFF78C
:1015D0007CFD23E03B681A1D3A601B68D9B2FA68AB
:1015E000BB681000984719E03B681A1D3A601A68FA
:1015F00028243B191A613A19B968FB681800FFF7EB
:1016000064FD3B191022BA181A6107E03F23FB184A
:101610001978FA68BB6810009847C0467B685A1C66
:101620007A603F217A181B7813707B181B78002B87
:1016300000D02BE600E0C046C046BD4611B090BDCC
:101640008824000880B582B000AF78603960054B0F
:101650003A681A60044B7A681A60C046BD4602B008
:1016600080BDC046DC040020E00400200FB480B53B
:1016700082B000AF1423FB187B60074B1868074B40
:1016800019687B683A69FFF7F4FDC046BD4602B0B1
:1016900080BC08BC04B01847E0040020DC04002033
:1016A00080B584B000AF78600A00FB1C1A707B68BC
:1016B000FB60FB689A68FB681B689A4207D2FB686C
:1016C0005A68FB689B68D318FA1C12781A70FB687A
:1016D0009B685A1CFB689A60C046BD4604B080BD3A
:1016E00090B589B000AFF860B9607A603B60BB68C4
:1016F000002B01D100232CE014217B18FA685A60DA
:10170000BB685A1E7B181A6008007B1800229A607A
:101710003B687A68114904003818FFF7AAFD2100D8
:101720007B189A687B181B689A4207D27B185A6804
:101730007B189B68D31800221A7007E014217B18CD
:101740005A687B181B68D31800221A701423FB18E0
:101750009B681800BD4609B090BDC046A1160008A0
:101760000CB480B584B000AF786039601C23FB18DE
:10177000BB60BB68BA6939687868FFF7B1FF0300DE
:10178000FB60FB681800BD4604B080BC08BC02B01A
:10179000184780B584B000AF78600A00FB1C1A704F
:1017A0007B68FB60FB681968FB685B68581CFA681B
:1017B0005060CB18FA1C12781A70C046BD4604B0AF
:1017C00080BD90B587B000AFF860B9607A60102036
:1017D0003B18FA681A603B1800225A607B68BA68A6
:1017E000094904003818FFF744FD21007B181A68E6
:1017F0007B185B68D31800221A707B185B6818008E
:10180000BD4607B090BDC046931700080EB480B522
:1018100085B000AF78602023FB18BB60BA68F96917
:101820007B681800FFF7CDFF0300FB60FB68180022
:10183000BD4605B080BC08BC03B0184780B582B077
:1018400000AF0200FB1D1A70FB1D1B787F2B09D80F
:10185000FB1D1B781A001F231A40044B01219140E5
:101860000A001A60C046BD4602B080BD00E100E03B
:1018700080B582B000AF374B9A69364B8021C901E1
:101880000A439A61334B5A69324B8021C9020A4399
:101890005A61314B1A6A304B30490A401A622E4B5A
:1018A0001A682D4B2D490A401A602B4B1A682A4B97
:1018B000902109050A431A60274B1A6A264B2849CA
:1018C0000A401A62244B1A6A234BC02189020A4338
:1018D0001A62214B1A68204B21490A401A601E4B9C
:1018E0001A681D4B8021C9020A431A601D4B002251
:1018F0009A611C4B3022DA611A4B9A69194B1921F3
:101900000A439A61184B1B68E1225102180000F04B
:10191000A1F903001A00BB1D1A80BB1D1B881B09FF
:101920009AB2104B1A62BB1D1A880E4B0F210A4047
:101930005A620C4B02221A611B20FFF77FFF0B4AF1
:101940000A4B11001800FFF77DFEC046BD4602B0ED
:1019500080BDC0460010024000040048FFFFFFF0B9
:10196000FFFFF0FF0038014008000020FF1A0008C8
:1019700080B582B000AF374BDB68022213402FD016
:10198000344B5A69334B02210A435A61314B5A682E
:10199000FB1D1A70FB1D1B781800FEF73BFCFB1D9E
:1019A0001B78312B0CD12C4BDB680822134003D061
:1019B000294B08225A6113E0274B08221A610FE0D5
:1019C000FB1D1B78322B0BD1234BDB680422134009
:1019D00003D0214B04225A6102E01F4B04221A61FA
:1019E0001C4BDB68012213402FD01A4B5A69194B4C
:1019F00001210A435A61194B1B68002B1FD0184B59
:101A00001B68591C164A1160164AD25C114B1A60A9
:101A1000134B1B687F2B02D9114B00221A600F4B0E
:101A20001B685A1E0D4B1A600C4B1B68002B0CD107
:101A3000084B1A69074B01218A431A6105E0054BDF
:101A40001A69044B01218A431A61C046BD4602B09F
:101A500080BDC04600380140000C004868050020E9
:101A600064050020E404002080B584B000AF0200CB
:101A7000FB1D1A70134B1A69124B01218A431A611C
:101A8000114B1B687F2B12D8104B1A680E4B1B682A
:101A9000D3187F221340FB600D4AFB68D318FA1D50
:101AA00012781A70084B1B685A1C074B1A60054BBA
:101AB0001A69044B01210A431A61C046BD4604B0AD
:101AC00080BDC04600380140680500206405002044
:101AD000E404002080B582B000AF786006E07B6847
:101AE0005A1C7A601B781800FFF7BEFF7B681B78D2
:101AF000002BF4D1C046C046BD4602B080BD80B5C3
:101B000082B000AF78600A00FB1C1A70FB1C1B78C7
:101B10001800FFF7A9FFC046BD4602B080BDC04611
:101B200080B500AF164B1A68154B01210A431A60A5
:101B3000134B5A68124B13490A405A60104B1A68EB
:101B40000F4B11490A401A600D4B1A680C4B0F4994
:101B50000A401A600A4B5A68094B0D490A405A60FC
:101B6000074B1A68064B0B490A401A60044B9F2228
:101B700012049A6000F010F8C046BD4680BDC04611
:101B8000001002400CC0FFF8FFFFF6FEFFFFFBFF56
:101B9000FFFF3CFFFFFF8F0080B582B000AF284BF6
:101BA0001A68274B01210A431A60C046244B1B6860
:101BB00002221340FAD0234B234A1A60234B1A689F
:101BC000224B10210A431A60204B1A681F4B072131
:101BD0008A431A601B4B1B68013B1D49180000F02B
:101BE00039F803007B60194B1968184B7A680A436F
:101BF0001A60134A124B52685A60114A104B5268CD
:101C00005A600F4B1A680E4B802149030A431A6031
:101C10000B4B5A680A4B03218A435A60084B5A6897
:101C2000074B02210A435A60C046054B5B680C22F1
:101C30001340082BF9D1C046C046BD4602B080BD56
:101C4000001002400800002000A24A0400200240C8
:101C500000366E01002243088B4274D303098B4285
:101C60005FD3030A8B4244D3030B8B4228D3030C6C
:101C70008B420DD3FF22090212BA030C8B4202D30E
:101C80001212090265D0030B8B4219D300E0090A36
:101C9000C30B8B4201D3CB03C01A5241830B8B423F
:101CA00001D38B03C01A5241430B8B4201D34B0328
:101CB000C01A5241030B8B4201D30B03C01A52418D
:101CC000C30A8B4201D3CB02C01A5241830A8B4212
:101CD00001D38B02C01A5241430A8B4201D34B02FB
:101CE000C01A5241030A8B4201D30B02C01A52415F
:101CF000CDD2C3098B4201D3CB01C01A5241830913
:101D00008B4201D38B01C01A524143098B4201D34C
:101D10004B01C01A524103098B4201D30B01C01A77
:101D20005241C3088B4201D3CB00C01A52418308F1
:101D30008B4201D38B00C01A524143088B4201D31E
:101D40004B00C01A5241411A00D20146524110467E
:101D50007047FFE701B5002000F0F0F802BDC04673
:101D60000029F7D076E7704703460B437FD4002263
:101D700043088B4274D303098B425FD3030A8B421F
:101D800044D3030B8B4228D3030C8B420DD3FF2289
:101D9000090212BA030C8B4202D31212090265D057
:101DA000030B8B4219D300E0090AC30B8B4201D30A
:101DB000CB03C01A5241830B8B4201D38B03C01A51
:101DC0005241430B8B4201D34B03C01A5241030BC8
:101DD0008B4201D30B03C01A5241C30A8B4201D379
:101DE000CB02C01A5241830A8B4201D38B02C01A24
:101DF0005241430A8B4201D34B02C01A5241030A9B
:101E00008B4201D30B02C01A5241CDD2C3098B427F
:101E100001D3CB01C01A524183098B4201D38B01FC
:101E2000C01A524143098B4201D34B01C01A52419F
:101E300003098B4201D30B01C01A5241C3088B42E4
:101E400001D3CB00C01A524183088B4201D38B00CF
:101E5000C01A524143088B4201D34B00C01A524171
:101E6000411A00D201465241104670475DE0CA0F48
:101E700000D04942031000D34042534000229C4608
:101E800003098B422DD3030A8B4212D3FC22890112
:101E900012BA030A8B420CD3890192118B4208D3E8
:101EA000890192118B4204D389013AD0921100E04A
:101EB0008909C3098B4201D3CB01C01A524183095E
:101EC0008B4201D38B01C01A524143098B4201D38B
:101ED0004B01C01A524103098B4201D30B01C01AB6
:101EE0005241C3088B4201D3CB00C01A5241830830
:101EF0008B4201D38B00C01A5241D9D243088B4286
:101F000001D34B00C01A5241411A00D20146634628
:101F100052415B10104601D34042002B00D549428C
:101F2000704763465B1000D3404201B5002000F0CB
:101F300005F802BD0029F8D016E770477047C04683
:101F4000002B11D1002A0FD1002900D1002802D086
:101F50000021C943080007B4024802A140180290BA
:101F600003BDC046D9FFFFFF03B4684601B5029820
:101F700000F034F8019B9E4602B00CBC7047C0468E
:101F8000F0B5CE46474680B5070099463B0C9C46C7
:101F900013041B0C1D000E0061460004140C000C01
:101FA00045434B4360436143C0182C0C20188C46BA
:101FB000834203D980235B029846C444494679434F
:101FC0007243030C63442D042D0CC91800044019FE
:101FD0008918C0BCB946B046F0BDC046F0B55746FA
:101FE0004E464546DE46E0B504000D009246994651
:101FF00083B08B4230D82DD04946504600F0BAF815
:1020000029000600200000F0B5F8331A9846203B5E
:102010009B4633D45A465346934042461F0053468C
:1020200093401E00AF423AD8AF4200D178E05B4601
:10203000A41BBD41002B00DA75E0002200230092B2
:10204000019301235A469340019301234246934052
:10205000009328E08242CFD900220023009201930E
:102060000C9B002B01D01C605D600098019903B0AF
:10207000F0BCBB46B246A946A046F0BD424620236E
:102080009B1A5246DA40414613004A468A401700DE
:1020900042461F43534693401E00AF42C4D900221C
:1020A0000023009201934346002BD9D0FB0772080E
:1020B0001A4346467B080EE0AB4201D1A2420CD83F
:1020C000A41A9D41012024196D410021013E2418CC
:1020D0004D41002E06D0AB42EED9013E24196D4190
:1020E000002EF8D1009801995B4600196941002B38
:1020F00024DB2B005A464446D3402A00E2401C0011
:102100005B461500002B2ADB26009E40330026008C
:102110004746BE403200801A9941009001919FE7E6
:10212000A342BCD883E74246202300219B1A002209
:10213000009101920122DA40019286E74246202373
:102140009B1A2A0046469A402300F3404446134314
:102150002A00E2401C005B461500002BD4DA424600
:102160002F002023260097409B1ADE403B0033437C
:10217000CDE7C04610B5002903D100F007F82030A4
:1021800002E0080000F002F810BDC0461C21012347
:102190001B04984201D3000C10391B0A984201D34A
:1021A000000A08391B09984201D30009043902A228
:1021B000105C40187047C04604030202010101018F
:1021C00000000000000000000D4885460D480E4943
:1021D0000E4A002302E0D458C4500433C4188C4281
:1021E000F9D30B4A0B4C002301E013600432A242E6
:1021F000FBD3FFF795FC00F011F8FDF785FFFEE734
:1022000000100020000000203C04002024250008CD
:102210003C04002078050020FEE7000070B50C4D5E
:102220000C4E761BB61005D0002408CD013498471B
:10223000A642FAD100F096F8074D084E761BB6106C
:1022400005D0002408CD01349847A642FAD170BDCC
:102250001825000818250008182500082025000862
:10226000034B10B5002B02D0024800F005F810BD5A
:10227000000000008922000810B5010000230022A0
:10228000002000F019F810BD70B5074D074C641B15
:10229000A41005D0013CA300EB589847002CF9D1BD
:1022A00000F066F870BDC04620250008242500080F
:1022B0007047C0467047C046F0B5D6464F464646C2
:1022C000C0B5264F82B006003868924698468946C7
:1022D000FFF7EEFF224B1B680193A423019A5B00DA
:1022E000D558002D2ED06C681F2C30DC002E0FD15D
:1022F000631C6B604B460234A40038686351FFF7DF
:10230000D9FF002002B0E0BCBA46B146A846F0BDF5
:10231000882251462800A300EB189950873AA24022
:102320008930FF3001681143016084214046490033
:102330005850022EDCD12B008D33FF3319680A432D
:102340001A60D5E715004D35FF35D550CBE7386815
:10235000FFF7B0FF01204042D4E7C0463804002018
:102360000C250008F8B5C046F8BC08BC9E4670476E
:0C237000F8B5C046F8BC08BC9E4670479B
:10237C0000000000130000002600000038000000E0
:10238C0047000000530000005C00000062000000E9
:10239C0064000000620000005C00000053000000BC
:1023AC004700000038000000260000001300000069
:1023BC0000000000EDFFFFFFDAFFFFFFC8FFFFFF8B
:1023CC00B9FFFFFFADFFFFFFA4FFFFFF9EFFFFFF65
:1023DC009CFFFFFF9EFFFFFFA4FFFFFFADFFFFFF72
:1023EC00B9FFFFFFC8FFFFFFDAFFFFFFEDFFFFFFA5
:1023FC000D0A494E464F3A20486F76657220626F3F
:10240C006172642073746570706572206D6F746F87
:10241C007220746573740D0A000000002B0000001C
:10242C002D0000006D696C6C69733A25644144435E
:10243C00207272423A2564207272433A25642064F9
:10244C0063723A25642062617474313A2564207495
:10245C00656D703A25642020656E61626C653A2565
:10246C0073202075723A2564202076723A256420F8
:10247C002077723A25640D0A00000000141500083C
:10248C001A1600081A1600081A1600081A16000860
:10249C001A1600081A1600081A1600081A16000850
:1024AC001A1600081A160008D41500088E14000815
:1024BC001A1600081A1600081A1600081A16000830
:1024CC008E1400081A1600081A1600081A160008AE
:1024DC001A1600081A160008AA150008001500089C
:1024EC001A1600081A160008E81500081A16000833
:1024FC001C1400081A1600081A16000814150008F7
:04250C00100000209B
:08251000CCFAFF7F010000007E
:0825180061220008E90000083F
:04252000C1000008EE
:10252400140000006400000400A24A04000000003B
:1025340000000000FC02002064030020CC03002003
:102544000000000000000000000000000000000087
:102554000000000000000000000000000000000077
:102564000000000000000000000000000000000067
:102574000000000000000000000000000000000057
:102584000000000000000000000000000000000047
:102594000000000000000000000000000000000037
:1025A4000000000000000000000000000000000027
:1025B4000000000000000000000000000000000017
:1025C4000000000000000000000000000000000007
:1025D40000000000000000000100000000000000F6
:1025E4000E33CDAB34126DE6ECDE05000B000000BB
:1025F40000000000000000000000000000000000D7
:1026040000000000000000000000000000000000C6
:1026140000000000000000000000000000000000B6
:1026240000000000000000000000000000000000A6
:0C295400000000000000000074050020DE
:04000005080021C905
:00000001FF
