:020000040800F2
:100000000010002099230008E9230008E9230008D4
:1000100000000000000000000000000000000000E0
:10002000000000000000000000000000E9230008BC
:100030000000000000000000E9230008051400088B
:10004000E9230008E9230008E9230008E923000860
:10005000E9230008E9230008E9230008E923000850
:10006000E9230008E9230008E9230008E923000840
:10007000390C0008E9230008E9230008E9230008F7
:10008000E92300080000000000000000E923000848
:1000900000000000E9230008E9230008E923000824
:1000A00000000000E9230008E9230008E921000816
:1000B000E923000800000000E92300080000000018
:1000C00010B5064C2378002B07D1054B002B02D02E
:1000D000044800E000BF0123237010BD4404002049
:1000E0000000000068260008044B10B5002B03D068
:1000F0000349044800E000BF10BDC04600000000F6
:100100004804002068260008002243088B4274D36C
:1001100003098B425FD3030A8B4244D3030B8B4208
:1001200028D3030C8B420DD3FF22090212BA030C11
:100130008B4202D31212090265D0030B8B4219D3F2
:1001400000E0090AC30B8B4201D3CB03C01A524112
:10015000830B8B4201D38B03C01A5241430B8B425A
:1001600001D34B03C01A5241030B8B4201D30B0343
:10017000C01A5241C30A8B4201D3CB02C01A52416A
:10018000830A8B4201D38B02C01A5241430A8B422D
:1001900001D34B02C01A5241030A8B4201D30B0216
:1001A000C01A5241CDD2C3098B4201D3CB01C01A30
:1001B000524183098B4201D38B01C01A524143093A
:1001C0008B4201D34B01C01A524103098B4201D328
:1001D0000B01C01A5241C3088B4201D3CB00C01A95
:1001E000524183088B4201D38B00C01A524143080D
:1001F0008B4201D34B00C01A5241411A00D2014632
:10020000524110467047FFE701B5002000F0F0F8BA
:1002100002BDC0460029F7D076E7704703460B437E
:100220007FD4002243088B4274D303098B425FD3EF
:10023000030A8B4244D3030B8B4228D3030C8B421B
:100240000DD3FF22090212BA030C8B4202D3121201
:10025000090265D0030B8B4219D300E0090AC30BD6
:100260008B4201D3CB03C01A5241830B8B4201D383
:100270008B03C01A5241430B8B4201D34B03C01A6C
:100280005241030B8B4201D30B03C01A5241C30AE4
:100290008B4201D3CB02C01A5241830A8B4201D355
:1002A0008B02C01A5241430A8B4201D34B02C01A3F
:1002B0005241030A8B4201D30B02C01A5241CDD2E4
:1002C000C3098B4201D3CB01C01A524183098B422F
:1002D00001D38B01C01A524143098B4201D34B0118
:1002E000C01A524103098B4201D30B01C01A52417B
:1002F000C3088B4201D3CB00C01A524183088B4202
:1003000001D38B00C01A524143088B4201D34B00EA
:10031000C01A5241411A00D201465241104670475C
:100320005DE0CA0F00D04942031000D34042534061
:1003300000229C4603098B422DD3030A8B4212D321
:10034000FC22890112BA030A8B420CD38901921153
:100350008B4208D3890192118B4204D389013AD090
:10036000921100E08909C3098B4201D3CB01C01A65
:10037000524183098B4201D38B01C01A5241430978
:100380008B4201D34B01C01A524103098B4201D366
:100390000B01C01A5241C3088B4201D3CB00C01AD3
:1003A000524183088B4201D38B00C01A5241D9D2EB
:1003B00043088B4201D34B00C01A5241411A00D26C
:1003C0000146634652415B10104601D34042002B68
:1003D00000D54942704763465B1000D3404201B5E7
:1003E000002000F005F802BD0029F8D016E770479C
:1003F0007047C046002B11D1002A0FD1002900D12F
:10040000002802D00021C943080007B4024802A115
:100410004018029003BDC046D9FFFFFF03B46846F1
:1004200001B5029800F034F8019B9E4602B00CBC66
:100430007047C046F0B5CE46474680B5070099469E
:100440003B0C9C4613041B0C1D000E00614600046F
:10045000140C000C45434B4360436143C0182C0C03
:1004600020188C46834203D980235B029846C444FB
:10047000494679437243030C63442D042D0CC9187B
:10048000000440198918C0BCB946B046F0BDC0464A
:10049000F0B557464E464546DE46E0B504000D0031
:1004A0009246994683B08B4230D82DD0494650466B
:1004B00000F0BAF829000600200000F0B5F8331A61
:1004C0009846203B9B4633D45A4653469340424677
:1004D0001F00534693401E00AF423AD8AF4200D1AE
:1004E00078E05B46A41BBD41002B00DA75E00022DA
:1004F00000230092019301235A4693400193012364
:1005000042469340009328E08242CFD90022002344
:10051000009201930C9B002B01D01C605D60009841
:10052000019903B0F0BCBB46B246A946A046F0BD57
:10053000424620239B1A5246DA40414613004A465F
:100540008A40170042461F43534693401E00AF4265
:10055000C4D900220023009201934346002BD9D036
:10056000FB0772081A4346467B080EE0AB4201D1F6
:10057000A2420CD8A41A9D41012024196D410021EA
:10058000013E24184D41002E06D0AB42EED9013E6B
:1005900024196D41002EF8D1009801995B4600198D
:1005A0006941002B24DB2B005A464446D3402A00E5
:1005B000E2401C005B461500002B2ADB26009E4013
:1005C000330026004746BE403200801A9941009011
:1005D00001919FE7A342BCD883E742462023002134
:1005E0009B1A0022009101920122DA40019286E7D3
:1005F000424620239B1A2A0046469A402300F34095
:10060000444613432A00E2401C005B461500002BC1
:10061000D4DA42462F002023260097409B1ADE4062
:100620003B003343CDE7C04610B5002903D100F0AD
:1006300007F8203002E0080000F002F810BDC046C4
:100640001C2101231B04984201D3000C10391B0A02
:10065000984201D3000A08391B09984201D30009C6
:10066000043902A2105C40187047C046040302021D
:10067000010101010000000000000000F0B5DE46AD
:1006800057464E464546E0B58FB00AAF574B5A69BC
:10069000564B01218A435A6100F096FE00F0F0FDAE
:1006A00001F022FD00F0DAFE00F0E2FF504B0422E0
:1006B0001A61504B9A684F4B04210A439A604E4B83
:1006C000180001F043FE9023DB05802212011A611D
:1006D000FA235B00180000F0ADFE9023DB058022BA
:1006E00012015A61FA235B00180000F0A3FE434B8D
:1006F0009A6880231B0213405A425341DAB20F23F7
:10070000FB181A703D4B9A688023DB0113405A4254
:100710005341DAB20E23FB181A70384B9A688023C3
:100720009B0113405A425341DAB20D23FB181A7051
:10073000334B1B78002B01D0324900E03249334B58
:100740001B689B46314B1B68DB43DB0FDBB27B60D6
:100750002F4B1B683B602F4B1D682F4B1E682D4B8A
:100760001A6813005B009B181A01D21AD3001A00F2
:10077000294B1B68D218294B1B68D31A9C46284B5F
:100780001B689846274B1B6899460F23FB181B785C
:10079000002B01D0312200E030220E23FB181B7801
:1007A000002B01D0312000E030200D23FB181B78F6
:1007B000002B01D0312300E030231B4CA2460893CC
:1007C000079006924B460593434604936346039372
:1007D000029601953B6800937B685A46504601F0AB
:1007E0004FFC124B00221A606DE7C0460010024019
:1007F000000400480024014080260008000800484A
:1008000060040020AC260008B02600080400002088
:10081000000000208C040020880400200800002034
:100820009004002094040020B426000874040020E2
:1008300080B582B000AF0200FB1D1A70FB1D1B7853
:10084000312B06D1824B1B680A3B1A00804B1A6081
:10085000FAE0FB1D1B78322B06D17D4B1B680A3357
:100860001A007B4B1A60EFE0FB1D1B78712B06D141
:10087000784B1B680A3B1A00764B1A60E4E0FB1DBC
:100880001B78772B06D1734B1B680A331A00714B08
:100890001A60D9E0FB1D1B78612B13D16E4B1B68CE
:1008A0005A1F6D4B1A606C4B1B68002B02DA6A4BA7
:1008B00000221A60684B1A68684B1100180001F09A
:1008C000DFFBC1E0FB1D1B78732B16D1624B1B684D
:1008D0005A1D614B1A60604B1A6896235B009A425E
:1008E00003DD5D4B962252001A605B4B1A685C4B2D
:1008F0001100180001F0C4FBA6E0FB1D1B78332B90
:1009000000D1A1E0FB1D1B78342B13D1554B1B6884
:100910005A1F544B1A60534B1B68002B02DA514B81
:1009200000221A604F4B1A684F4B1100180001F05B
:10093000A7FB89E0FB1D1B78352B16D1494B1B68A3
:100940005A1D484B1A60474B1A68FA235B009A42BB
:1009500003DD444BFA2252001A60424B1A68434BA3
:100960001100180001F08CFB6EE0FB1D1B78362B8C
:100970000ED13F4B01221A703E4B5A6C3D4B8021E9
:1009800009020A435A643C4B180001F079FB5BE012
:10099000FB1D1B78372B0DD1354B00221A70354BC0
:1009A0005A6C344B35490A405A64354B180001F0F3
:1009B00067FB49E0FB1D1B78392B1CD1314B1B78A1
:1009C000DBB25A1E9341DBB201225340DBB21A1C48
:1009D00001231340DAB22B4B1A702A4B1B78DBB27F
:1009E000002B01D0284B00E0284B294A19001000A9
:1009F00001F046FB28E0FB1D1B78302B18D1254B5E
:100A00001A6813005B009B181A01D21AD3001A004F
:100A1000214B1B68D2180E4B1B68D21A1F4B1A6051
:100A20001E4B1A681E4B1100180001F029FB0BE049
:100A3000FB1D1B78202B07D10D4B1B785A425341CD
:100A4000DBB21A000A4B1A70C046BD4602B080BD28
:100A500090040020940400200400002024270008B3
:100A600040270008000000205C27000880270008BD
:100A700060040020002C0140A4270008FF7FFFFF36
:100A8000B427000884040020C8270008D0270008E5
:100A9000DC2700088C0400208804002008000020C7
:100AA000F027000880B582B000AF5F4B9A688023C2
:100AB0001B0213405A425341DAB2FB1D1A705A4BC3
:100AC0009A688023DB0113405A425341DAB2BB1DBE
:100AD0001A70554B9A6880239B0113405A42534128
:100AE000DAB27B1D1A70FB1D1B78002B0BD1BB1DCE
:100AF0001B78002B07D17B1D1B78002B03D04B4BA1
:100B000000221A604FE0FB1D1B78002B0BD1BB1D90
:100B10001B78002B07D07B1D1B78002B03D0434B89
:100B20003C221A603FE0FB1D1B78002B0BD1BB1D44
:100B30001B78002B07D07B1D1B78002B03D13B4B70
:100B400078221A602FE0FB1D1B78002B0BD0BB1DF9
:100B50001B78002B07D07B1D1B78002B03D1334B58
:100B6000B4221A601FE0FB1D1B78002B0BD0BB1DAD
:100B70001B78002B07D17B1D1B78002B03D12B4B3F
:100B8000F0221A600FE0FB1D1B78002B46D0BB1D26
:100B90001B78002B42D17B1D1B78002B3ED0234BB2
:100BA000962252001A60214B1A68214B1B689A4208
:100BB00036D01E4B1A681E4B1B68D31A3B603B682D
:100BC000B42B04DD3B68693BFF3B3B6006E03B68C0
:100BD000B43303DA3B686933FF333B60144B1B6863
:100BE000EF2B09DD114B1B683C2B05DC114B1B68FF
:100BF0005A1C104B1A600CE00D4B1B683C2B08DC98
:100C00000A4B1B68EF2B04DD0A4B1B685A1E094B6D
:100C10001A60064B1A68064B1A6002E0C04600E0F4
:100C2000C046BD4602B080BD0008004888040020D0
:100C3000B40400208C04002080B582B000AFD94BF2
:100C40005A69D84B01210A435A61D74B1B685A1C79
:100C5000D54B1A60D34B9B699AB2D24BDB699BB2DE
:100C6000D31A9BB21B051B0D9AB2D04B5A80CD4BA9
:100C70009B6A9AB2CB4BDB6A9BB2D31A9BB21B0521
:100C80001B0D9AB2C94B9A80C64B5B6B9BB21B057E
:100C90001B0D9AB2C54B1A80C24BDB6B9BB21B0576
:100CA0001B0D9AB2C14BDA80BE4B1B6D9BB21B056C
:100CB0001B0D9AB2BD4B1A81BD4B1B78002B06D081
:100CC000BB4B1B78013BDAB2B94B1A701BE2B94B34
:100CD00000229B5E002B4ADDB44B5B889BB21A005E
:100CE000B54B1B68D218B44B1A60B04B9B889BB2B3
:100CF0001A00B24B1B68D218B04B1A60AB4B1B8862
:100D00009BB21A00AE4B1B68D218AD4B1A60A94BB0
:100D100000229B5E9BB2013B9BB21AB2A54B1A808C
:100D2000A44B00229B5E002B00D0EBE1A24B1B6882
:100D3000002B02DAA34A944663449B121AB2A24BD8
:100D40001A809E4B1B68002B02DA9E4A944663442D
:100D50009B121AB29D4B1A80994B1B68002B02DA2A
:100D6000984A944663449B121AB2994B1A808F4B4F
:100D70005B889AB2944B00215B5E9BB2D31A9BB204
:100D80001AB2944B1A80894B9B889AB28F4B0021E0
:100D90005B5E9BB2D31A9BB21AB28F4B1A80834B05
:100DA0001B889AB28A4B00215B5E9BB2D31A9BB21E
:100DB0001AB28A4B1A80894B1B881BB2002B06DAA9
:100DC000864B1B881BB2864A93420ADB05E0834BA5
:100DD0001B881BB2834A934203DC834B1B78002B96
:100DE00006D1824B5A6C814B81490A405A6406E015
:100DF0007E4B5A6C7D4B802109020A435A64FFF7EF
:100E000051FE7C4B1B78DBB2002B5CD07A4B1A680E
:100E100013005B009B181A01D21AD3001A00774BFB
:100E20001B68D218764B1B68D21A764B1B68D31AF4
:100E30007B607B68DA179B1853403C2B2CDD7B686A
:100E4000002B13DA7B68DA179B1853403C211800FB
:100E5000FFF7E4F903001A006B4B1A606A4B1B683A
:100E60000A2B1CDD684B0A221A6018E07B68DA172F
:100E70009B1853403C2251421800FFF7CFF9030062
:100E80001A00614B1A60604B1B680A3307DA5E4B2D
:100E90000A2252421A6002E05B4B00221A605B4B4E
:100EA0001B681D2B05DC594B1B685A1C574B1A60DD
:100EB00009E0564B00221A60534B1A68544B1B68CA
:100EC000D218534B1A60524B1B68B42251001800C1
:100ED000FFF78AFA0B00DB01B42251001800FFF77C
:100EE0009DF903003B603B687F2213403B60494B08
:100EF0003A689200D258484B1B685343642118004B
:100F0000FFF78CF903001A00444B1A603B682A3340
:100F10007F221A403F4B9200D2583F4B1B685343ED
:100F200064211800FFF77AF903001A003C4B1A609D
:100F30003B6855337F221A40364B9200D258364BCD
:100F40001B68534364211800FFF768F903001A0077
:100F5000344B1A60314B1B68334A9A18334B0021CB
:100F60005B5E1900324B5B1A9A4208DB2F4B002262
:100F70009B5E9BB22E4AD31A9BB21A0061E0274BAC
:100F80001B682C4A94466344284A0021525E9342CF
:100F900052DB224B1B689BB2264A944663449BB2A9
:100FA0001A004EE000240140740400206404002074
:100FB0000C0000200E0000209C040020A004002053
:100FC000A4040020FF030000A8040020AA040020BD
:100FD000AC0400206E040020700400207204002085
:100FE000AEFCFFFF5203000060040020002C014013
:100FF000FF7FFFFF840400208C0400208804002071
:10100000080000209404002004000020B004002008
:101010009004002008280008000000207804002028
:101020007C04002080040020DB05000098040020E0
:10103000B80B0000DC050000344B00229B5E9BB225
:101040001A00334B5A63334B1B68334A9A182F4BA1
:1010500000215B5E1900314B5B1A9A4208DB2B4B77
:1010600000229B5E9BB22D4AD31A9BB21A0017E056
:10107000284B1B682A4A94466344244A0021525E46
:10108000934208DB234B1B689BB2254A944663447A
:101090009BB21A0004E01D4B00229B5E9BB21A001B
:1010A0001B4B9A631F4B1B681B4A9A18174B002156
:1010B0005B5E1900194B5B1A9A4208DB134B002246
:1010C0009B5E9BB2154AD31A9BB21A0017E0154BD0
:1010D0001B68134A944663440C4A0021525E9342B3
:1010E00008DB104B1B689BB20D4A944663449BB2CD
:1010F0001A0004E0054B00229B5E9BB21A00044BD1
:10110000DA6300E0C046BD4602B080BD980400200E
:10111000002C01407C040020DB050000B80B00001F
:10112000DC0500008004002080B582B000AF020022
:10113000FB1D1A70FB1D1B787F2B09D8FB1D1B782C
:101140001A001F231A40044B012191400A001A6023
:10115000C046BD4602B080BD00E100E090B583B05E
:1011600000AF02003960FB1D1A70FB1D1B787F2B3E
:1011700028D82F4AFB1D1B785BB29B08C0339B000D
:101180009B58FA1D1278110003220A40D200FF2159
:1011900091400A00D2431A4011003B689B01FF2294
:1011A0001A40FB1D1B78180003230340DB009A4004
:1011B0001F48FB1D1B785BB29B080A43C0339B0092
:1011C0001A5031E01B4AFB1D1B7819000F230B40FE
:1011D000083B9B0806339B00D31804331B68FA1D99
:1011E0001278110003220A40D200FF2191400A0028
:1011F000D2431A4011003B689B01FF221A40FB1D9D
:101200001B78180003230340DB009A400948FB1DAC
:101210001B781C000F232340083B9B080A4306331E
:101220009B00C31804331A60C046BD4603B090BD8E
:1012300000E100E000ED00E080B582B000AF786032
:101240007B685A1E80235B049A4201D3012310E07D
:101250000A4B7A68013A5A6001235B420321180065
:10126000FFF77CFF054B00229A60044B07221A60AF
:1012700000231800BD4602B080BDC04610E000E06B
:1012800080B500AF494B5A69484BF02149030A43E6
:101290005A619023DB055A689023DB0544490A40D4
:1012A0005A609023DB055A689023DB0580214901B1
:1012B0000A435A609023DB05802212015A613D4B9C
:1012C0001A683C4B3A490A401A603A4B1A68394B43
:1012D000802149010A431A60364B08225A61354B76
:1012E0001A68344B34490A401A60324B1A68314B41
:1012F000802149000A431A602E4B04225A612F4B69
:101300005A682E4B2C490A405A602C4B5A682B4B7A
:10131000802149000A435A60284B8022D2005A613A
:10132000264B1A68254B24490A401A60234B1A6839
:10133000224B802149000A431A60204B04225A6143
:101340001E4B5A681D4BF0218A435A601B4B5A684A
:101350001A4B40210A435A60194B5A68184B120124
:1013600012095A60164B5A68154B8021C9050A4369
:101370005A60134B5A68124B12490A405A60104B7C
:101380005A680F4B8021C9040A435A600C4B5A68B3
:101390000B4B0C490A405A60094B5A68084B802194
:1013A000C9040A435A60C046BD4680BD00100240D1
:1013B000FF0FFFFF000C0048FFF0FFFF0004004894
:1013C00000080048FFFFFFF080B500AF0B4B002284
:1013D0001A600B4B1B68FA2291001800FEF794FE6E
:1013E00003001800FFF728FF01235B4200211800CB
:1013F000FFF7B4FEC046BD4680BDC046BC04002019
:101400001000002080B500AF084B1B68002B04D0F3
:10141000064B1B685A1E054B1A60054B1B685A1C6D
:10142000034B1A60C046BD4680BDC046B8040020CC
:10143000BC04002080B582B000AF7860064B7A68AB
:101440001A60C046044B1B68002BFBD1C046C04647
:10145000BD4602B080BDC046B804002080B500AFD4
:10146000794B9A69784B802109010A439A61764B3E
:101470005A69754BC021C9020A435A619023DB05A2
:101480005A6A9023DB050F218A435A629023DB05B9
:101490005A6A9023DB0502210A435A629023DB0536
:1014A0005A689023DB050F218A435A609023DB059D
:1014B0005A689023DB0509210A435A609023DB0513
:1014C0005A6A9023DB05F0218A435A629023DB0598
:1014D0005A6A9023DB0520210A435A629023DB05D8
:1014E0005A689023DB05F0218A435A609023DB057C
:1014F0005A689023DB0590210A435A609023DB054C
:101500005A6A9023DB0551490A405A629023DB0551
:101510005A6A9023DB05802189000A435A6290238E
:10152000DB055A689023DB0548490A405A6090233E
:10153000DB055A689023DB05902109010A435A60B4
:10154000434B5A6A424B43490A405A62404B5A6ADB
:101550003F4B802189030A435A623D4B5A683C4BFA
:101560003C490A405A603A4B5A68394B9021090469
:101570000A435A60364B5A6A354B37490A405A6219
:10158000334B5A6A324B802189040A435A62304BEA
:101590005A682F4B30490A405A602D4B5A682C4BE1
:1015A000902109050A435A60294B5A6A284B1201B7
:1015B00012095A62264B5A6A254B802189050A4333
:1015C0005A62234B5A68224B120112095A60204B6F
:1015D0005A681F4B902109060A435A601F4B00228C
:1015E0009A601E4B20221A601C4B00229A621B4BF1
:1015F0001B4ADA62194B01221A63184B20225A60E7
:10160000164B184A9A61154B6022DA61134B164A41
:101610005A64124B154A1A62104B5A6C0F4B8021B8
:1016200009020A435A640D4B5A680C4BA8218901E0
:101630000A435A60094B1A68084B01210A431A6091
:10164000C046BD4680BDC04600100240FFF0FFFF0F
:1016500000040048FFFF0FFFFFFFFFF0002C0140D8
:10166000B80B0000606000001E0C00005505000073
:1016700080B500AF154B9A69144B802189000A434D
:101680009A61124B5A69114BC021C9020A435A612F
:101690009023DB0500221A600D4B1A680C4BFF21CA
:1016A0008A431A600B4B0C4A5A600A4B0B4A9A60E9
:1016B000084B0B4ADA6000210C20FFF74FFD0C208D
:1016C000FFF732FDC046BD4680BDC0460010024057
:1016D00000040048002401400D0400000102020043
:1016E000B3420000B0B58EB000AFB861F9617A6165
:1016F00000237B6301220023BA62FB627B691B69C2
:101700007B620EE07B69DB68BB600023FB60BA682C
:10171000FB68B86AF96AFEF78DFE02000B00BA6238
:10172000FB62BA6AFB6AB869F969FEF763FE0200F8
:101730000B007969C9680C0000210D009D4248D852
:10174000E0D19442DED944E0BA6AFB6AB869F9692B
:10175000FEF750FE02000B0013003B62B869F96906
:10176000BA6AFB6AFEF746FEBA61FB617B69DB6819
:101770003B6000237B603A687B68B86AF96AFEF7D1
:1017800039FE02000B00BA62FB627B6B002B06D1B4
:101790003B6A002B03DCBB6AFA6A134319D13B6A2C
:1017A000092B0ADD7B691B7804221340DBB2002B76
:1017B00001D0372302E0572300E030233A6AD1B248
:1017C0007A6A501C78625B18DBB213707B6B013352
:1017D0007B63BB6AFA6A1343B6D17B6A00221A7034
:1017E000C046BD460EB0B0BD80B584B000AFB86095
:1017F000F9607A60FB68002B0CDABA68FB6800209D
:101800000021801A994102000B00BA60FB607B68DE
:101810002D221A72B868F9687B681A00FFF762FF18
:10182000C046BD4604B080BD80B586B000AF7860CC
:10183000396000237B6101233B613B681B69FB60CE
:1018400004E03B68DA683B6953433B613969786877
:10185000FEF75AFC03001A003B68DB689A42F0D29C
:1018600037E039697868FEF74FFC0300BB607B689E
:1018700039691800FEF7CEFC0B007B603B68DB6823
:1018800019003869FEF740FC03003B617B69002BBF
:1018900005D1BB68002B02DC3B69002B19D1BB686A
:1018A000092B0ADD3B681B7804221340DBB2002BB6
:1018B00001D0372302E0572300E03023BA68D1B2C9
:1018C000FA68501CF8605B18DBB213707B69013357
:1018D0007B613B69002BC4D1FB6800221A70C046B3
:1018E000BD4606B080BD80B582B000AF786039607B
:1018F0007B68002B05DA7B685B427B603B682D22AE
:101900001A727B683A6811001800FFF78DFFC04615
:10191000BD4602B080BD80B586B000AF786039604A
:1019200000237B6101233B613B681B69FB6004E092
:101930003B68DA683B6953433B6139697868FEF775
:10194000E3FB03001A003B68DB689A42F0D237E001
:1019500039697868FEF7D8FB0300BB607B6839699A
:101960001800FEF757FC0B007B603B68DB68190032
:101970003869FEF7C9FB03003B617B69002B05D189
:10198000BB68002B02DC3B69002B19D1BB68092B1B
:101990000ADD3B681B7804221340DBB2002B01D028
:1019A000372302E0572300E03023BA68D1B2FA6847
:1019B000501CF8605B18DBB213707B6901337B61EC
:1019C0003B69002BC4D1FB6800221A70C046BD469B
:1019D00006B080BD80B582B000AF786039607B68AA
:1019E000002B05DA7B685B427B603B682D221A7214
:1019F0007B683A6811001800FFF78DFFC046BD46AE
:101A000002B080BD80B582B000AF0200FB1D1A702D
:101A1000FB1D1B782F2B07D9FB1D1B78392B03D8F7
:101A2000FB1D1B78303B19E0FB1D1B78602B07D991
:101A3000FB1D1B78662B03D8FB1D1B78573B0DE065
:101A4000FB1D1B78402B07D9FB1D1B78462B03D8A9
:101A5000FB1D1B78373B01E001235B421800BD46AC
:101A600002B080BD80B588B000AFB9607A603B60DD
:101A70000F23FB18021C1A70BB681B68FB61002354
:101A8000BB6110E07A697B689A4218DC7B68BA69AE
:101A90005A437B69D318BB61FB695A1CFA610F2258
:101AA000BA181B7813700F23FB181B781800FFF768
:101AB000A9FF03007B617B69002BE3DA00E0C046ED
:101AC000BB68FA691A603B68BA691A600F23FB1891
:101AD0001B781800BD4608B080BD80B588B000AF47
:101AE000F860B9607A607B685B68FB617B681B6942
:101AF000BB6102E0FB69013BFB61BB695A1CBA6137
:101B00001B78002B02D0FB69002BF3DC7B681B7A6F
:101B1000002B02D0FB69013BFB617B681B78022232
:101B20001340DBB2002B07D07B68DB68102B03D19E
:101B3000FB69023BFB610DE07B681B7802221340CE
:101B4000DBB2002B06D07B68DB68082B02D1FB6977
:101B5000013BFB617B681B7801221340DBB2002B49
:101B600011D17B681B7808221340DBB2002B0AD10D
:101B700004E0FA68BB68202110009847FB695A1EF0
:101B8000FA61002BF5DC7B681B7A002B05D07B68A3
:101B9000197AFA68BB68100098477B681B780222A4
:101BA0001340DBB2002B17D07B68DB68102B13D1FE
:101BB000FA68BB683021100098477B681B780422C4
:101BC0001340DBB2002B01D0582200E07822F868E5
:101BD000BB68110098470FE07B681B780222134016
:101BE000DBB2002B08D07B68DB68082B04D1FA68D5
:101BF000BB683021100098477B681B780122134096
:101C0000DBB2002B0AD004E0FA68BB683021100078
:101C10009847FB695A1EFA61002BF5DC7B681B694B
:101C2000BB6106E01723FB181978FA68BB6810003F
:101C30009847BB695A1CBA6117217A181B78137030
:101C40007B181B78002BEDD17B681B780122134099
:101C5000DBB2002B11D17B681B7808221340DBB26A
:101C6000002B0AD004E0FA68BB68202110009847D6
:101C7000FB695A1EFA61002BF5DCC046BD4608B070
:101C800080BD000090B591B000AFF860B9607A6097
:101C90003B602823FB181022BA181A61C7E13F22C3
:101CA000BB181B78252B06D0BB181978FA68BB68BF
:101CB00010009847BBE13E23FB1800221A70282031
:101CC0003B181A7801218A431A703B181A780221AE
:101CD0008A431A703B1800225A603B181A78082170
:101CE0008A431A703B1800221A7220E03F23FB1827
:101CF0001B78302B0BD018DC232B0FD02D2B14D1BD
:101D00002823FB181A7808210A431A700FE02823A9
:101D1000FB181A7801210A431A7008E02823FB18DF
:101D20001A7802210A431A7001E0C0460AE07B6873
:101D30005A1C7A603F217A181B7813707B181B7825
:101D4000002BD3D13F203B181B782F2B10D93B18E9
:101D50001B78392B0CD83C182823FB181A1D391D69
:101D60003B18187813000A22FFF77CFE030023704B
:101D70003F23FB181B782E2B15D12823FB181A782C
:101D800001210A431A707B685A1C7A603F217A1835
:101D90001B7813700A00BB181B782F2B03D9BB18B4
:101DA0001B78392BEFD93F217B181B787A2B0AD16E
:101DB0007B685A1C7A607A181B7813703E23FB18D4
:101DC00001221A701BE03F217B181B786C2B16D167
:101DD0007B685A1C7A607A181B7813703E203B1877
:101DE00001221A707B181B786C2B08D17B685A1C57
:101DF0007A607A181B7813703B1802221A703F23FE
:101E0000FB181B78782B00DD10E1582B06DA002B2D
:101E100000D119E1252B00D101E107E1583B202B2E
:101E200000D903E19A008B4BD3181B689F462824E6
:101E30003B190A22DA603E23FB181B78022B0DD1D6
:101E40003B680733072293431A0008323A60186848
:101E500059683B191A00FFF745FC19E03E23FB18AF
:101E60001B78012B0AD13B681A1D3A601B68282297
:101E7000BA1811001800FFF7D7FC09E03B681A1DDB
:101E80003A601B682822BA1811001800FFF743FDBA
:101E90002823FA18B968FB681800FFF71EFEC6E091
:101EA00028243B190A22DA603E23FB181B78022BF8
:101EB0000DD13B680733072293431A0008323A607A
:101EC000186859683B191A00FFF78EFC19E03E2389
:101ED000FB181B78012B0AD13B681A1D3A601B685E
:101EE0002822BA1811001800FFF7FDFC09E03B6832
:101EF0001A1D3A601B682822BA1811001800FFF753
:101F000069FD2823FA18B968FB681800FFF7E5FD9A
:101F10008DE02823FB181A7802210A431A703E2309
:101F2000FB1800221A7028243B191022DA603F2384
:101F3000FB181B78583B5A425341DAB23B19012136
:101F40000A4090001A7804218A43111C021C0A439B
:101F50001A703E23FB181B78022B0DD13B68073308
:101F6000072293431A0008323A60186859683B19EF
:101F70001A00FFF7B7FB19E03E23FB181B78012B73
:101F80000AD13B681A1D3A601B682822BA18110052
:101F90001800FFF749FC09E03B681A1D3A601B680E
:101FA0002822BA1811001800FFF7B5FC2823FA18E8
:101FB000B968FB681800FFF790FD38E028217B180E
:101FC0000822DA603B681A1D3A601B680C007A1818
:101FD00011001800FFF79FFC3A19B968FB68180058
:101FE000FFF77BFD23E03B681A1D3A601B68D9B2FE
:101FF000FA68BB681000984719E03B681A1D3A6000
:102000001A6828243B191A613A19B968FB68180044
:10201000FFF763FD3B191022BA181A6107E03F234E
:10202000FB181978FA68BB6810009847C0467B68AF
:102030005A1C7A603F217A181B7813707B181B7822
:10204000002B00D02BE600E0C046C046BD4611B0D4
:1020500090BDC046082A000880B582B000AF786005
:102060003960054B3A681A60044B7A681A60C046BA
:10207000BD4602B080BDC046C0040020C40400209C
:102080000FB480B582B000AF1423FB187B60074B00
:102090001868074B19687B683A69FFF7F3FDC0467B
:1020A000BD4602B080BC08BC04B01847C404002080
:1020B000C004002080B582B000AF0200FB1D1A7082
:1020C000FB1D1B787F2B09D8FB1D1B781A001F23D3
:1020D0001A40044B012191400A001A60C046BD46D7
:1020E00002B080BD00E100E080B582B000AF374BA8
:1020F0009A69364B8021C9010A439A61334B5A6968
:10210000324B8021C9020A435A61314B1A6A304B63
:1021100030490A401A622E4B1A682D4B2D490A404D
:102120001A602B4B1A682A4B902109050A431A6042
:10213000274B1A6A264B28490A401A62244B1A6A0E
:10214000234BC02189020A431A62214B1A68204B93
:1021500021490A401A601E4B1A681D4B8021C90292
:102160000A431A601D4B00229A611C4B3022DA612F
:102170001A4B9A69194B19210A439A61184B1B682B
:10218000E12251021800FDF7BFFF03001A00BB1D3A
:102190001A80BB1D1B881B099AB2104B1A62BB1D0B
:1021A0001A880E4B0F210A405A620C4B02221A6108
:1021B0001B20FFF77FFF0B4A0A4B11001800FFF7A7
:1021C0004BFFC046BD4602B080BDC0460010024075
:1021D00000040048FFFFFFF0FFFFF0FF0038014060
:1021E000100000207723000880B582B000AF374B85
:1021F000DB68022213402FD0344B5A69334B022143
:102200000A435A61314B5A68FB1D1A70FB1D1B783B
:102210001800FEF70DFBFB1D1B78312B0CD12C4B4E
:10222000DB680822134003D0294B08225A6113E0CF
:10223000274B08221A610FE0FB1D1B78322B0BD1B4
:10224000234BDB680422134003D0214B04225A6144
:1022500002E01F4B04221A611C4BDB680122134071
:102260002FD01A4B5A69194B01210A435A61194B55
:102270001B68002B1FD0184B1B68591C164A116095
:10228000164AD25C114B1A60134B1B687F2B02D984
:10229000114B00221A600F4B1B685A1E0D4B1A601F
:1022A0000C4B1B68002B0CD1084B1A69074B012102
:1022B0008A431A6105E0054B1A69044B01218A43E0
:1022C0001A61C046BD4602B080BDC046003801401C
:1022D000000C00484C05002048050020C8040020E0
:1022E00080B584B000AF0200FB1D1A70134B1A6951
:1022F000124B01218A431A61114B1B687F2B12D8A4
:10230000104B1A680E4B1B68D3187F221340FB60DA
:102310000D4AFB68D318FA1D12781A70084B1B6817
:102320005A1C074B1A60054B1A69044B01210A43DA
:102330001A61C046BD4604B080BDC04600380140A9
:102340004C05002048050020C804002080B582B05C
:1023500000AF786006E07B685A1C7A601B78180032
:10236000FFF7BEFF7B681B78002BF4D1C046C04648
:10237000BD4602B080BD80B582B000AF78600A0073
:10238000FB1C1A70FB1C1B781800FFF7A9FFC04646
:10239000BD4602B080BD00000D4885460D480E497F
:1023A0000E4A002302E0D458C4500433C4188C42AF
:1023B000F9D30B4A0B4C002301E013600432A24214
:1023C000FBD300F013F800F0ABF8FEF757F9FEE787
:1023D000001000200000002044040020A42A00086F
:1023E0004404002054050020FEE7000080B500AF43
:1023F000164B1A68154B01210A431A60134B5A6891
:10240000124B13490A405A60104B1A680F4B11497E
:102410000A401A600D4B1A680C4B0F490A401A60AB
:102420000A4B5A68094B0D490A405A60074B1A6813
:10243000064B0B490A401A60044B9F2212049A6013
:1024400000F010F8C046BD4680BDC04600100240F6
:102450000CC0FFF8FFFFF6FEFFFFFBFFFFFF3CFF96
:10246000FFFF8F0080B582B000AF284B1A68274B62
:1024700001210A431A60C046244B1B680222134004
:10248000FAD0234B234A1A60234B1A68224B10219F
:102490000A431A60204B1A681F4B07218A431A60AF
:1024A0001B4B1B68013B1D491800FDF72DFE030067
:1024B0007B60194B1968184B7A680A431A60134AF3
:1024C000124B52685A60114A104B52685A600F4BB7
:1024D0001A680E4B802149030A431A600B4B5A6855
:1024E0000A4B03218A435A60084B5A68074B022162
:1024F0000A435A60C046054B5B680C221340082B08
:10250000F9D1C046C046BD4602B080BD00100240B1
:102510001000002000A24A040020024000366E0194
:1025200070B50C4D0C4E761BB61005D0002408CDAE
:1025300001349847A642FAD100F096F8074D084EAC
:10254000761BB61005D0002408CD01349847A6426A
:10255000FAD170BD982A0008982A0008982A000825
:10256000A02A0008034B10B5002B02D0024800F04F
:1025700005F810BD000000008D25000810B5010011
:1025800000230022002000F019F810BD70B5074D9F
:10259000074C641BA41005D0013CA300EB589847DE
:1025A000002CF9D100F066F870BDC046A02A0008E2
:1025B000A42A00087047C0467047C046F0B5D6460A
:1025C0004F464646C0B5264F82B006003868924650
:1025D00098468946FFF7EEFF224B1B680193A42320
:1025E000019A5B00D558002D2ED06C681F2C30DC72
:1025F000002E0FD1631C6B604B460234A400386878
:102600006351FFF7D9FF002002B0E0BCBA46B146E3
:10261000A846F0BD882251462800A300EB18995027
:10262000873AA2408930FF3001681143016084215C
:10263000404649005850022EDCD12B008D33FF3329
:1026400019680A431A60D5E715004D35FF35D55096
:10265000CBE73868FFF7B0FF01204042D4E7C0461F
:10266000400400208C2A0008F8B5C046F8BC08BC1D
:102670009E467047F8B5C046F8BC08BC9E467047F9
:102680000D0A494E464F3A20486F76657220626FB8
:102690006172642073746570706572206D6F746F01
:1026A0007220746573740D0A000000003100000090
:1026B0003000000020656E3A2573207370656564F4
:1026C0003A2564206469723A25642073696E7573D3
:1026D0005F553A2564207475726E735F62795F6826
:1026E000616C6C3A256420616E676C655F683A25A1
:1026F000642070686173655F683A25642070686162
:1027000073655F6D3A25642070686173655F733A25
:10271000256420753A256320763A256320773A258B
:10272000630D0A00537065656420646563726561BA
:1027300073656420746F3A2025640D0A0000000060
:10274000537065656420696E6372656173656420AA
:10275000746F3A2025640D0A0000000053696E75FD
:102760007320616D706C6974756465206465637253
:10277000656173656420746F3A2025640D0A00005A
:1027800053696E757320616D706C69747564652032
:10279000696E6372656173656420746F3A202564A5
:1027A0000D0A00004D6F746F7220656E61626C657A
:1027B000640D0A004D6F746F722064697361626CFE
:1027C00065640D0A00000000656E61626C6564005E
:1027D00064697361626C65640000000050494420C4
:1027E000636F6E74726F6C2025730D0A0000000019
:1027F00053796E632070686173652073657420740B
:102800006F3A2025640D0A0000000000050000005A
:102810000A0000000F000000140000001900000072
:102820001E00000023000000280000002D00000012
:1028300031000000360000003B00000040000000B6
:10284000450000004A0000004E0000005300000058
:10285000570000005B0000005F0000006200000005
:102860006400000067000000690000006B000000C9
:102870006D0000006E0000006F000000700000009E
:102880007100000071000000710000007100000084
:10289000700000006F0000006E0000006D0000007E
:1028A0006B00000069000000670000006400000089
:1028B000620000005F0000005B00000057000000A5
:1028C000530000004E0000004A00000045000000D8
:1028D000400000003B000000360000003100000016
:1028E0002D00000028000000230000001E00000052
:1028F00019000000140000000F0000000A00000092
:102900000500000000000000FBFFFFFFF6FFFFFFD7
:10291000F1FFFFFFECFFFFFFE7FFFFFFE2FFFFFF1D
:10292000DDFFFFFFD8FFFFFFD3FFFFFFCFFFFFFF5C
:10293000CAFFFFFFC5FFFFFFC0FFFFFFBBFFFFFF99
:10294000B6FFFFFFB2FFFFFFADFFFFFFA9FFFFFFD5
:10295000A5FFFFFFA1FFFFFF9EFFFFFF9CFFFFFF03
:1029600099FFFFFF97FFFFFF95FFFFFF93FFFFFF1B
:1029700092FFFFFF91FFFFFF90FFFFFF8FFFFFFF21
:102980008FFFFFFF8FFFFFFF8FFFFFFF90FFFFFF16
:1029900091FFFFFF92FFFFFF93FFFFFF95FFFFFFF8
:1029A00097FFFFFF99FFFFFF9CFFFFFF9EFFFFFFC9
:1029B000A1FFFFFFA5FFFFFFA9FFFFFFADFFFFFF87
:1029C000B2FFFFFFB6FFFFFFBBFFFFFFC0FFFFFF30
:1029D000C5FFFFFFCAFFFFFFCFFFFFFFD3FFFFFFD2
:1029E000D8FFFFFFDDFFFFFFE2FFFFFFE7FFFFFF75
:1029F000ECFFFFFFF1FFFFFFF6FFFFFFFBFFFFFF15
:102A00000000000000000000261F00082C20000825
:102A10002C2000082C2000082C2000082C20000866
:102A20002C2000082C2000082C2000082C20000856
:102A30002C200008E61F0008A01E00082C2000081B
:102A40002C2000082C2000082C200008A01E0008C4
:102A50002C2000082C2000082C2000082C20000826
:102A60002C200008BC1F0008121F00082C200008A2
:102A70002C200008FA1F00082C2000082E1E000839
:102A80002C2000082C200008261F00081800002019
:082A900000DAFF7F01000000E5
:082A980065250008E9000008B3
:042AA000C100000869
:102AA400640000003C0000007800000064000004A2
:102AB40000A24A04000000000000000004030020FB
:102AC4006C030020D403002000000000000000007C
:102AD40000000000000000000000000000000000F2
:102AE40000000000000000000000000000000000E2
:102AF40000000000000000000000000000000000D2
:102B040000000000000000000000000000000000C1
:102B140000000000000000000000000000000000B1
:102B240000000000000000000000000000000000A1
:102B34000000000000000000000000000000000091
:102B44000000000000000000000000000000000081
:102B54000000000000000000000000000000000071
:102B640001000000000000000E33CDAB34126DE60E
:102B7400ECDE05000B000000000000000000000077
:102B84000000000000000000000000000000000041
:102B94000000000000000000000000000000000031
:102BA4000000000000000000000000000000000021
:102BB4000000000000000000000000000000000011
:042EE4005005002075
:040000050800239933
:00000001FF
