:020000040800F2
:1000000000100020E52600083527000835270008E5
:1000100000000000000000000000000000000000E0
:10002000000000000000000000000000352700086C
:10003000000000000000000035270008C10C000887
:100040003527000835270008352700083527000820
:100050003527000835270008352700083527000810
:100060003527000835270008352700083527000800
:100070009D030008352700083527000835270008AC
:1000800035270008000000000000000035270008A8
:100090000000000035270008352700083527000834
:1000A0000000000035270008352700083D1C000827
:1000B0003527000800000000352700080000000078
:1000C00010B5064C2378002B07D1054B002B02D02E
:1000D000044800E000BF0123237010BD4404002049
:1000E0000000000080280008044B10B5002B03D04E
:1000F0000349044800E000BF10BDC04600000000F6
:100100004804002080280008F0B5D6464F464646F1
:10011000C0B588B008AF324B5A69314B01218A43D0
:100120005A6100F0AFFD00F009FD01F007FD00F09D
:10013000F3FD00F0FBFE2B4B04221A612A4B9A6858
:10014000294B04210A439A60284B180001F028FE2D
:100150009023DB05802212011A61FA235B0018004C
:1001600000F0C6FD9023DB05802212015A61FA23BC
:100170005B00180000F0BCFD1D4B1C681D4B1B886C
:100180001BB299461C4B1B881BB29A461B4B1B8803
:100190001BB21D001A4BDB889BB21E00184B1B893B
:1001A0009BB29C46174B1B78002B01D0164B00E0EE
:1001B000164B174A1168174A12789046164A126869
:1001C00016480692424605920491039363460293B1
:1001D0000196009553464A46210001F0ADFBB7E772
:1001E00000100240000400480024014018290008C3
:1001F000A80400206E040020700400207204002077
:1002000064040020600400204429000848290008F4
:100210000400002008000020000000204C290008F5
:1002200080B582B000AF0200FB1D1A70FB1D1B7869
:10023000312B0AD14C4B1B68002B00DC8FE04A4B62
:100240001B685A1E484B1A6089E0FB1D1B78322B35
:1002500005D1454B1B685A1C434B1A607FE0FB1DC0
:100260001B78332B1AD1414B1B785A1E9341DBB2BA
:1002700001225340DBB21A1C01231340DAB23B4B7C
:100280001A703A4B1B78002B01D0394B00E0394BE8
:10029000394A1900100001F04FFB60E0FB1D1B788C
:1002A000342B13D1354B1B685A1F344B1A60334B18
:1002B0001B68002B02DA314B00221A602F4B1A68A0
:1002C0002F4B1100180001F037FB48E0FB1D1B7895
:1002D000352B13D1294B1B685A1D284B1A60274B0D
:1002E0001B68642B02DD254B64221A60234B1A68BD
:1002F000244B1100180001F01FFB30E0FB1D1B78A0
:10030000362B0ED1204B01221A70204B5A6C1F4BFA
:10031000802109020A435A641D4B180001F00CFBAE
:100320001DE0FB1D1B78372B0DD1174B00221A70D7
:10033000164B5A6C154B17490A405A64164B180055
:1003400001F0FAFA0BE0FB1D1B78202B07D10E4BB6
:100350001B785A425341DBB21A000B4B1A70C0464D
:10036000BD4602B080BDC046040000200800002049
:10037000C4290008CC290008D82900080000002062
:10038000F4290008182A000860040020002C01400D
:100390003C2A0008FF7FFFFF4C2A0008B0B596B04A
:1003A00000AF6A4B5969694A01230B435361674B9C
:1003B0009B699AB2654BDB699BB2D31A9BB21B0552
:1003C0001B0D9BB2624A5380604B9B6A9AB25F4B93
:1003D000DB6A9BB2D31A9BB21B051B0D9BB25C4A16
:1003E00093805A4B5B6B9BB21B051B0D9BB2584A0B
:1003F0001380564BDB6B9BB21B051B0D9BB2544A03
:10040000D380524B1B6D9BB21B051B0D9BB2504AF8
:100410001381504B1B78002B06D04E4B1B78013BB1
:10042000DAB24C4B1A70CDE24B4B00229B5E002B94
:100430004ADD474B5B889BB21A00484B1B68D218B9
:10044000464B1A60424B9B889BB21A00444B1B6878
:10045000D218434B1A603E4B1B889BB21A00414B8B
:100460001B68D2183F4B1A603B4B00229B5E9BB22D
:10047000013B9BB21BB2384A1380374B00229B5E74
:10048000002B00D09DE2354B1B68002B02DA364A68
:10049000944663449B121BB2344A1380304B1B6852
:1004A000002B02DA304A944663449B121BB2304A56
:1004B00013802C4B1B68002B02DA2B4A94466344B2
:1004C0009B121BB22B4A1380214B5B889AB2274B9D
:1004D00000215B5E9BB2D31A9BB21BB2264A1380EB
:1004E0001B4B9B889AB2224B00215B5E9BB2D31AB6
:1004F0009BB21BB2214A1380154B1B889AB21D4B2D
:1005000000215B5E9BB2D31A9BB21BB21C4A1380C4
:100510001B4B1B881BB2002B06DA194B1B881AB227
:10052000184B9A420ADB05E0154B1B881AB2164B92
:100530009A4203DC154B1B78002B2DD1144B596CC0
:10054000134A144B0B4053642DE0C0460024014075
:1005500064040020090000200A0000208804002014
:100560008C04002090040020FF030000940400206D
:1005700096040020980400206E04002070040020DF
:1005800072040020AEFCFFFF520300006004002054
:10059000002C0140FF7FFFFFDA4B596CD94A8023C2
:1005A0001B020B435364D84B9A6880231B021340F1
:1005B0005A425341DBB23F22BA181370D24B9A68A9
:1005C0008023DB0113405A425341DBB23E22BA186A
:1005D0001370CD4B9A6880239B0113405A425341BC
:1005E000DBB23D22BA181370C84B1B687B65C84B41
:1005F0001A7801235340DBB2002B03D0C34B1B6896
:100600005B427B65C34B1A687B6D934205D1C04B3F
:100610001A78C14B1B789A4264D0BE4B1B683B6270
:10062000DB177B62BD4B1B68BB610023FB61BA69B2
:10063000FB69386A796A01F02DFE02000B00100098
:100640001900B74A002301F0E1FD02000B00BA6473
:10065000FB64B14B1A7801235340DBB2002B07D067
:10066000B86CF96C00220023121A8B41BA64FB6447
:10067000BA6CFB6C1F2111403963DB0FDB077B6316
:10068000386B796B0B1E16DA01225242D317801891
:10069000594120235B4203433B6301235B420B43ED
:1006A0007B6301220023386B796B8018594102006B
:1006B0000B003A637B633A6B7B6B9A4B1B68D318D6
:1006C000994A134004D5013B20225242134301337F
:1006D0001A00944B1A608F4B7A6D1A608C4B1A7803
:1006E0008D4B1A707B6D3B61DB177B618B4B1B68FD
:1006F000BB600023FB60BA68FB683869796901F068
:10070000C9FD02000B0010001900854A002301F00A
:100710007DFD02000B003A647B64824B1B683B60EA
:10072000DB177B603A6C7B6C1F211140B962DB0FD9
:10073000DB07FB62B86AF96A0B1E14DA0122524227
:10074000D31712184B41202149421143B9620121AC
:1007500049421943F96201220023B86AF96A121862
:100760004B41BA62FB62BA6AFB6A386879688018E2
:10077000594102000B003A647B647B6C002B07DA62
:100780003A6C7B6C2020002112184B413A647B6448
:100790003A6C7B6C1F2111400C00DB0FDD0712D57A
:1007A00001225242D31712196B41202149421143B1
:1007B0000C000121494219430D00012200231219A6
:1007C0006B4114001D0022002B00584B1A60574B40
:1007D0001A68574B9200D258564B1B6853436421FA
:1007E000180001F027FC03001A00534B1A604F4B0E
:1007F0001B680A334C4A134004D5013B2022524265
:10080000134301331A004A4B9200D258494B1B68DC
:1008100053436421180001F00DFC03001A00474BFC
:100820001A60424B1B6815333F4A134004D5013B05
:1008300020225242134301331A003D4B9200D258FA
:100840003C4B1B6853436421180001F0F3FB030089
:100850001A003B4B1A60384B1B683A4A9A183A4BBD
:1008600000215B5E1900394B5B1A9A4208DB364B5C
:1008700000229B5E9BB2354AD31A9BB21A0017E046
:100880002D4B1B68324A944663442F4A0021525E26
:10089000934208DB284B1B689BB22D4A9446634465
:1008A0009BB21A0004E0284B00229B5E9BB21A0008
:1008B000144B5A63214B1B68224A9A18224B002181
:1008C0005B5E1900214B5B1A9A4208DB1E4B00222B
:1008D0009B5E9BB21D4AD31A9BB21A003FE0174B96
:1008E0001B681B4A94466344174A0021525E934298
:1008F00030DB124B1B689BB2154A944663449BB293
:100900001A002CE0002C01400008004804000020E0
:10091000080000209C0400200C000020A8040020F7
:1009200053070000A00400201F0000808004002066
:10093000982800080000002074040020780400209B
:100940007C040020DB05000084040020B80B0000BC
:10095000DC0500001D4B00229B5E9BB21A001C4B65
:100960009A631C4B1B681C4A9A18184B00215B5E4B
:1009700019001A4B5B1A9A4208DB144B00229B5E4B
:100980009BB2164AD31A9BB21A0017E0114B1B6890
:10099000134A944663440D4A0021525E934208DB99
:1009A0000C4B1B689BB20E4A944663449BB21A00E0
:1009B00004E0064B00229B5E9BB21A00044BDA63F4
:1009C00000E0C046BD4616B0B0BDC046840400205D
:1009D000002C01407C040020DB050000B80B000067
:1009E000DC05000080B582B000AF0200FB1D1A706C
:1009F000FB1D1B787F2B09D8FB1D1B781A001F23BA
:100A00001A40044B012191400A001A60C046BD46BD
:100A100002B080BD00E100E090B583B000AF0200FD
:100A20003960FB1D1A70FB1D1B787F2B28D82F4ABD
:100A3000FB1D1B785BB29B08C0339B009B58FA1DC3
:100A40001278110003220A40D200FF2191400A00CF
:100A5000D2431A4011003B689B01FF221A40FB1D44
:100A60001B78180003230340DB009A401F48FB1D3E
:100A70001B785BB29B080A43C0339B001A5031E0DD
:100A80001B4AFB1D1B7819000F230B40083B9B08DA
:100A900006339B00D31804331B68FA1D127811002B
:100AA00003220A40D200FF2191400A00D2431A409B
:100AB00011003B689B01FF221A40FB1D1B781800A8
:100AC00003230340DB009A400948FB1D1B781C00F0
:100AD0000F232340083B9B080A4306339B00C3189F
:100AE00004331A60C046BD4603B090BD00E100E08B
:100AF00000ED00E080B582B000AF78607B685A1EE0
:100B000080235B049A4201D3012310E00A4B7A68E8
:100B1000013A5A6001235B4203211800FFF77CFF72
:100B2000054B00229A60044B07221A60002318002C
:100B3000BD4602B080BDC04610E000E080B500AF09
:100B4000494B5A69484BF02149030A435A619023A3
:100B5000DB055A689023DB0544490A405A6090231C
:100B6000DB055A689023DB05802149010A435A605E
:100B70009023DB05802212015A613D4B1A683C4BE1
:100B80003A490A401A603A4B1A68394B80214901A8
:100B90000A431A60364B08225A61354B1A68344BA7
:100BA00034490A401A60324B1A68314B802149009F
:100BB0000A431A602E4B04225A612F4B5A682E4B5F
:100BC0002C490A405A602C4B5A682B4B8021490013
:100BD0000A435A60284B8022D2005A61264B1A6879
:100BE000254B24490A401A60234B1A68224B802166
:100BF00049000A431A60204B04225A611E4B5A686E
:100C00001D4BF0218A435A601B4B5A681A4B4021F6
:100C10000A435A60194B5A68184B120112095A605C
:100C2000164B5A68154B8021C9050A435A60134B6D
:100C30005A68124B12490A405A60104B5A680F4BBF
:100C40008021C9040A435A600C4B5A680B4B0C496B
:100C50000A405A60094B5A68084B8021C9040A436C
:100C60005A60C046BD4680BD00100240FF0FFFFF26
:100C7000000C0048FFF0FFFF000400480008004897
:100C8000FFFFFFF080B500AF0B4B00221A600B4B4B
:100C90001B68FA229100180001F042F903001800C5
:100CA000FFF728FF01235B4200211800FFF7B4FE85
:100CB000C046BD4680BDC046A804002010000020EC
:100CC00080B500AF084B1B68002B04D0064B1B6897
:100CD0005A1E054B1A60054B1B685A1C034B1A60C1
:100CE000C046BD4680BDC046A4040020A804002024
:100CF00080B582B000AF7860064B7A681A60C04653
:100D0000044B1B68002BFBD1C046C046BD4602B059
:100D100080BDC046A404002080B500AF794B9A691D
:100D2000784B802109010A439A61764B5A69754BC9
:100D3000C021C9020A435A619023DB055A6A9023F5
:100D4000DB050F218A435A629023DB055A6A902300
:100D5000DB0502210A435A629023DB055A6890237F
:100D6000DB050F218A435A609023DB055A689023E4
:100D7000DB0509210A435A609023DB055A6A902358
:100D8000DB05F0218A435A629023DB055A6A9023DF
:100D9000DB0520210A435A629023DB055A68902321
:100DA000DB05F0218A435A609023DB055A689023C3
:100DB000DB0590210A435A609023DB055A6A902391
:100DC000DB0551490A405A629023DB055A6A902399
:100DD000DB05802189000A435A629023DB055A68AB
:100DE0009023DB0548490A405A609023DB055A6886
:100DF0009023DB05902109010A435A60434B5A6A4C
:100E0000424B43490A405A62404B5A6A3F4B802149
:100E100089030A435A623D4B5A683C4B3C490A409D
:100E20005A603A4B5A68394B902109040A435A6078
:100E3000364B5A6A354B37490A405A62334B5A6A25
:100E4000324B802189040A435A62304B5A682F4B37
:100E500030490A405A602D4B5A682C4B90210905A5
:100E60000A435A60294B5A6A284B120112095A62E6
:100E7000264B5A6A254B802189050A435A62234B27
:100E80005A68224B120112095A60204B5A681F4BB4
:100E9000902109060A435A601F4B00229A601E4B9C
:100EA00020221A601C4B00229A621B4B1B4ADA62FA
:100EB000194B01221A63184B20225A60164B184A0C
:100EC0009A61154B6022DA61134B164A5A64124B31
:100ED000154A1A62104B5A6C0F4B802109020A43C3
:100EE0005A640D4B5A680C4BA82189010A435A6079
:100EF000094B1A68084B01210A431A60C046BD46D7
:100F000080BDC04600100240FFF0FFFF0004004813
:100F1000FFFF0FFFFFFFFFF0002C0140B80B0000A8
:100F2000606000001E0C00005505000080B500AF99
:100F3000154B9A69144B802189000A439A61124B20
:100F40005A69114BC021C9020A435A619023DB053B
:100F500000221A600D4B1A680C4BFF218A431A605D
:100F60000B4B0C4A5A600A4B0B4A9A60084B0B4ACF
:100F7000DA6000210C20FFF74FFD0C20FFF732FD57
:100F8000C046BD4680BDC046001002400004004877
:100F9000002401400D04000001020200B3420000E1
:100FA000B0B58EB000AFB861F9617A6100237B63A0
:100FB00001220023BA62FB627B691B697B620EE03F
:100FC0007B69DB68BB600023FB60BA68FB68B86ABA
:100FD000F96A01F05FF902000B00BA62FB62BA6ABB
:100FE000FB6AB869F96901F035F902000B0079690B
:100FF000C9680C0000210D009D4248D8E0D1944200
:10100000DED944E0BA6AFB6AB869F96901F022F9ED
:1010100002000B0013003B62B869F969BA6AFB6A07
:1010200001F018F9BA61FB617B69DB683B60002362
:101030007B603A687B68B86AF96A01F00BF90200D4
:101040000B00BA62FB627B6B002B06D13B6A002B64
:1010500003DCBB6AFA6A134319D13B6A092B0ADD28
:101060007B691B7804221340DBB2002B01D03723AD
:1010700002E0572300E030233A6AD1B27A6A501C6A
:1010800078625B18DBB213707B6B01337B63BB6AE6
:10109000FA6A1343B6D17B6A00221A70C046BD4675
:1010A0000EB0B0BD80B584B000AFB860F9607A60B2
:1010B000FB68002B0CDABA68FB6800200021801A5C
:1010C000994102000B00BA60FB607B682D221A7206
:1010D000B868F9687B681A00FFF762FFC046BD4632
:1010E00004B080BD80B586B000AF78603960002361
:1010F0007B6101233B613B681B69FB6004E03B684B
:10110000DA683B6953433B613969786800F008FF4E
:1011100003001A003B68DB689A42F0D237E0396975
:10112000786800F0FDFE0300BB607B683969180039
:1011300000F07CFF0B007B603B68DB6819003869BE
:1011400000F0EEFE03003B617B69002B05D1BB681C
:10115000002B02DC3B69002B19D1BB68092B0ADD8F
:101160003B681B7804221340DBB2002B01D03723ED
:1011700002E0572300E03023BA68D1B2FA68501C6D
:10118000F8605B18DBB213707B6901337B613B69EC
:10119000002BC4D1FB6800221A70C046BD4606B0C1
:1011A00080BD80B582B000AF786039607B68002B6D
:1011B00005DA7B685B427B603B682D221A727B6894
:1011C0003A6811001800FFF78DFFC046BD4602B017
:1011D00080BD80B586B000AF7860396000237B6148
:1011E00001233B613B681B69FB6004E03B68DA68F4
:1011F0003B6953433B613969786800F091FE030015
:101200001A003B68DB689A42F0D237E039697868A7
:1012100000F086FE0300BB607B683969180000F0AF
:1012200005FF0B007B603B68DB681900386900F044
:1012300077FE03003B617B69002B05D1BB68002B67
:1012400002DC3B69002B19D1BB68092B0ADD3B6826
:101250001B7804221340DBB2002B01D0372302E0BD
:10126000572300E03023BA68D1B2FA68501CF86006
:101270005B18DBB213707B6901337B613B69002B28
:10128000C4D1FB6800221A70C046BD4606B080BDBE
:1012900080B582B000AF786039607B68002B05DADA
:1012A0007B685B427B603B682D221A727B683A68E0
:1012B00011001800FFF78DFFC046BD4602B080BD8B
:1012C00080B582B000AF0200FB1D1A70FB1D1B78B9
:1012D0002F2B07D9FB1D1B78392B03D8FB1D1B783F
:1012E000303B19E0FB1D1B78602B07D9FB1D1B78D9
:1012F000662B03D8FB1D1B78573B0DE0FB1D1B78AD
:10130000402B07D9FB1D1B78462B03D8FB1D1B78F0
:10131000373B01E001235B421800BD4602B080BDAF
:1013200080B588B000AFB9607A603B600F23FB18CE
:10133000021C1A70BB681B68FB610023BB6110E0D4
:101340007A697B689A4218DC7B68BA695A437B6980
:10135000D318BB61FB695A1CFA610F22BA181B78BB
:1013600013700F23FB181B781800FFF7A9FF030069
:101370007B617B69002BE3DA00E0C046BB68FA6959
:101380001A603B68BA691A600F23FB181B781800B3
:10139000BD4608B080BD80B588B000AFF860B960C8
:1013A0007A607B685B68FB617B681B69BB6102E0FC
:1013B000FB69013BFB61BB695A1CBA611B78002BBE
:1013C00002D0FB69002BF3DC7B681B7A002B02D078
:1013D000FB69013BFB617B681B7802221340DBB297
:1013E000002B07D07B68DB68102B03D1FB69023B25
:1013F000FB610DE07B681B7802221340DBB2002BFF
:1014000006D07B68DB68082B02D1FB69013BFB61DE
:101410007B681B7801221340DBB2002B11D17B6863
:101420001B7808221340DBB2002B0AD104E0FA68D3
:10143000BB68202110009847FB695A1EFA61002BF7
:10144000F5DC7B681B7A002B05D07B68197AFA687B
:10145000BB68100098477B681B7802221340DBB200
:10146000002B17D07B68DB68102B13D1FA68BB68A0
:101470003021100098477B681B7804221340DBB2B0
:10148000002B01D0582200E07822F868BB681100D8
:1014900098470FE07B681B7802221340DBB2002BD9
:1014A00008D07B68DB68082B04D1FA68BB68302160
:1014B000100098477B681B7801221340DBB2002B99
:1014C0000AD004E0FA68BB68302110009847FB6935
:1014D0005A1EFA61002BF5DC7B681B69BB6106E0D4
:1014E0001723FB181978FA68BB6810009847BB6986
:1014F0005A1CBA6117217A181B7813707B181B7855
:10150000002BEDD17B681B7801221340DBB2002B4E
:1015100011D17B681B7808221340DBB2002B0AD064
:1015200004E0FA68BB68202110009847FB695A1E46
:10153000FA61002BF5DCC046BD4608B080BD90B511
:1015400091B000AFF860B9607A603B602823FB1867
:101550001022BA181A61C7E13F22BB181B78252B4D
:1015600006D0BB181978FA68BB6810009847BBE131
:101570003E23FB1800221A7028203B181A780121FC
:101580008A431A703B181A7802218A431A703B1852
:1015900000225A603B181A7808218A431A703B18B7
:1015A00000221A7220E03F23FB181B78302B0BD04F
:1015B00018DC232B0FD02D2B14D12823FB181A78DD
:1015C00008210A431A700FE02823FB181A7801211A
:1015D0000A431A7008E02823FB181A7802210A43EC
:1015E0001A7001E0C0460AE07B685A1C7A603F210D
:1015F0007A181B7813707B181B78002BD3D13F20EF
:101600003B181B782F2B10D93B181B78392B0CD883
:101610003C182823FB181A1D391D3B181878130095
:101620000A22FFF77DFE030023703F23FB181B787F
:101630002E2B15D12823FB181A7801210A431A7082
:101640007B685A1C7A603F217A181B7813700A0055
:10165000BB181B782F2B03D9BB181B78392BEFD95C
:101660003F217B181B787A2B0AD17B685A1C7A6041
:101670007A181B7813703E23FB1801221A701BE0A6
:101680003F217B181B786C2B16D17B685A1C7A6023
:101690007A181B7813703E203B1801221A707B18B1
:1016A0001B786C2B08D17B685A1C7A607A181B78DF
:1016B00013703B1802221A703F23FB181B78782BFB
:1016C00000DD10E1582B06DA002B00D119E1252BA3
:1016D00000D101E107E1583B202B00D903E19A003A
:1016E0008A4BD3181B689F4628243B190A22DA60CC
:1016F0003E23FB181B78022B0DD13B6807330722D2
:1017000093431A0008323A60186859683B191A0066
:10171000FFF746FC19E03E23FB181B78012B0AD18A
:101720003B681A1D3A601B682822BA18110018007D
:10173000FFF7D8FC09E03B681A1D3A601B682822B5
:10174000BA1811001800FFF744FD2823FA18B968E9
:10175000FB681800FFF71FFEC6E028243B190A2289
:10176000DA603E23FB181B78022B0DD13B68073350
:10177000072293431A0008323A60186859683B19E7
:101780001A00FFF78FFC19E03E23FB181B78012B92
:101790000AD13B681A1D3A601B682822BA1811004A
:1017A0001800FFF7FEFC09E03B681A1D3A601B6851
:1017B0002822BA1811001800FFF76AFD2823FA182A
:1017C000B968FB681800FFF7E6FD8DE02823FB18D9
:1017D0001A7802210A431A703E23FB1800221A705D
:1017E00028243B191022DA603F23FB181B78583B52
:1017F0005A425341DAB23B1901210A4090001A784B
:1018000004218A43111C021C0A431A703E23FB1850
:101810001B78022B0DD13B680733072293431A0034
:1018200008323A60186859683B191A00FFF7B8FB8C
:1018300019E03E23FB181B78012B0AD13B681A1DC7
:101840003A601B682822BA1811001800FFF74AFCFA
:1018500009E03B681A1D3A601B682822BA1811007B
:101860001800FFF7B6FC2823FA18B968FB681800BF
:10187000FFF791FD38E028217B180822DA603B68E9
:101880001A1D3A601B680C007A1811001800FFF747
:10189000A0FC3A19B968FB681800FFF77CFD23E04B
:1018A0003B681A1D3A601B68D9B2FA68BB68100021
:1018B000984719E03B681A1D3A601A6828243B19BA
:1018C0001A613A19B968FB681800FFF764FD3B1903
:1018D0001022BA181A6107E03F23FB181978FA683A
:1018E000BB6810009847C0467B685A1C7A603F214D
:1018F0007A181B7813707B181B78002B00D02BE60E
:1019000000E0C046C046BD4611B090BD602A000848
:1019100080B582B000AF78603960054B3A681A60D4
:10192000044B7A681A60C046BD4602B080BDC0460E
:10193000EC040020F00400200FB480B582B000AFAA
:101940001423FB187B60074B1868074B19687B68EA
:101950003A69FFF7F4FDC046BD4602B080BC08BC42
:1019600004B01847F0040020EC04002080B584B0D7
:1019700000AF78600A00FB1C1A707B68FB60FB6894
:101980009A68FB681B689A4207D2FB685A68FB6832
:101990009B68D318FA1C12781A70FB689B685A1C53
:1019A000FB689A60C046BD4604B080BD90B589B062
:1019B00000AFF860B9607A603B60BB68002B01D172
:1019C00000232CE014217B18FA685A60BB685A1E69
:1019D0007B181A6008007B1800229A603B687A68BE
:1019E000114904003818FFF7AAFD21007B189A68F6
:1019F0007B181B689A4207D27B185A687B189B6831
:101A0000D31800221A7007E014217B185A687B183B
:101A10001B68D31800221A701423FB189B68180047
:101A2000BD4609B090BDC0466D1900080CB480B524
:101A300084B000AF786039601C23FB18BB60BB68C2
:101A4000BA6939687868FFF7B1FF0300FB60FB688B
:101A50001800BD4604B080BC08BC02B0184780B571
:101A600084B000AF78600A00FB1C1A707B68FB60D2
:101A7000FB681968FB685B68581CFA685060CB18F3
:101A8000FA1C12781A70C046BD4604B080BD90B5ED
:101A900087B000AFF860B9607A6010203B18FA6830
:101AA0001A603B1800225A607B68BA680949040032
:101AB0003818FFF744FD21007B181A687B185B6813
:101AC000D31800221A707B185B681800BD4607B057
:101AD00090BDC0465F1A00080EB480B585B000AF57
:101AE00078602023FB18BB60BA68F9697B6818002E
:101AF000FFF7CDFF0300FB60FB681800BD4605B093
:101B000080BC08BC03B0184780B582B000AF0200AB
:101B1000FB1D1A70FB1D1B787F2B09D8FB1D1B7842
:101B20001A001F231A40044B012191400A001A6039
:101B3000C046BD4602B080BD00E100E080B582B085
:101B400000AF374B9A69364B8021C9010A439A612D
:101B5000334B5A69324B8021C9020A435A61314BD7
:101B60001A6A304B30490A401A622E4B1A682D4BC4
:101B70002D490A401A602B4B1A682A4B90210905FF
:101B80000A431A60274B1A6A264B28490A401A62F0
:101B9000244B1A6A234BC02189020A431A62214B43
:101BA0001A68204B21490A401A601E4B1A681D4BC7
:101BB0008021C9020A431A601D4B00229A611C4B06
:101BC0003022DA611A4B9A69194B19210A439A613A
:101BD000184B1B68E1225102180000F0A1F9030024
:101BE0001A00BB1D1A80BB1D1B881B099AB2104B23
:101BF0001A62BB1D1A880E4B0F210A405A620C4B09
:101C000002221A611B20FFF77FFF0B4A0A4B1100CB
:101C10001800FFF77DFEC046BD4602B080BDC0463D
:101C20000010024000040048FFFFFFF0FFFFF0FF3C
:101C30000038014010000020CB1D000880B582B0A4
:101C400000AF374BDB68022213402FD0344B5A6968
:101C5000334B02210A435A61314B5A68FB1D1A70FB
:101C6000FB1D1B781800FEF7DBFAFB1D1B78312BE0
:101C70000CD12C4BDB680822134003D0294B0822DF
:101C80005A6113E0274B08221A610FE0FB1D1B78F5
:101C9000322B0BD1234BDB680422134003D0214BA2
:101CA00004225A6102E01F4B04221A611C4BDB68BC
:101CB000012213402FD01A4B5A69194B01210A43B4
:101CC0005A61194B1B68002B1FD0184B1B68591CFD
:101CD000164A1160164AD25C114B1A60134B1B68EE
:101CE0007F2B02D9114B00221A600F4B1B685A1E22
:101CF0000D4B1A600C4B1B68002B0CD1084B1A695A
:101D0000074B01218A431A6105E0054B1A69044B10
:101D100001218A431A61C046BD4602B080BDC0465B
:101D200000380140000C00487805002074050020B0
:101D3000F404002080B584B000AF0200FB1D1A70CF
:101D4000134B1A69124B01218A431A61114B1B680C
:101D50007F2B12D8104B1A680E4B1B68D3187F22AA
:101D60001340FB600D4AFB68D318FA1D12781A70F5
:101D7000084B1B685A1C074B1A60054B1A69044B29
:101D800001210A431A61C046BD4604B080BDC04669
:101D9000003801407805002074050020F40400207C
:101DA00080B582B000AF786006E07B685A1C7A602C
:101DB0001B781800FFF7BEFF7B681B78002BF4D15F
:101DC000C046C046BD4602B080BD80B582B000AFFF
:101DD00078600A00FB1C1A70FB1C1B781800FFF7C8
:101DE000A9FFC046BD4602B080BDC04680B500AF69
:101DF000164B1A68154B01210A431A60134B5A6897
:101E0000124B13490A405A60104B1A680F4B114984
:101E10000A401A600D4B1A680C4B0F490A401A60B1
:101E20000A4B5A68094B0D490A405A60074B1A6819
:101E3000064B0B490A401A60044B9F2212049A6019
:101E400000F010F8C046BD4680BDC04600100240FC
:101E50000CC0FFF8FFFFF6FEFFFFFBFFFFFF3CFF9C
:101E6000FFFF8F0080B582B000AF284B1A68274B68
:101E700001210A431A60C046244B1B68022213400A
:101E8000FAD0234B234A1A60234B1A68224B1021A5
:101E90000A431A60204B1A681F4B07218A431A60B5
:101EA0001B4B1B68013B1D49180000F039F803006B
:101EB0007B60194B1968184B7A680A431A60134AF9
:101EC000124B52685A60114A104B52685A600F4BBD
:101ED0001A680E4B802149030A431A600B4B5A685B
:101EE0000A4B03218A435A60084B5A68074B022168
:101EF0000A435A60C046054B5B680C221340082B0E
:101F0000F9D1C046C046BD4602B080BD00100240B7
:101F10001000002000A24A040020024000366E019A
:101F2000002243088B4274D303098B425FD3030A18
:101F30008B4244D3030B8B4228D3030C8B420DD32B
:101F4000FF22090212BA030C8B4202D312120902B9
:101F500065D0030B8B4219D300E0090AC30B8B42F7
:101F600001D3CB03C01A5241830B8B4201D38B03A5
:101F7000C01A5241430B8B4201D34B03C01A52414A
:101F8000030B8B4201D30B03C01A5241C30A8B428D
:101F900001D3CB02C01A5241830A8B4201D38B0278
:101FA000C01A5241430A8B4201D34B02C01A52411C
:101FB000030A8B4201D30B02C01A5241CDD2C3098E
:101FC0008B4201D3CB01C01A524183098B4201D30A
:101FD0008B01C01A524143098B4201D34B01C01AF5
:101FE000524103098B4201D30B01C01A5241C3086D
:101FF0008B4201D3CB00C01A524183088B4201D3DC
:102000008B00C01A524143088B4201D34B00C01AC7
:102010005241411A00D20146524110467047FFE733
:1020200001B5002000F0F0F802BDC0460029F7D04D
:1020300076E7704703460B437FD4002243088B4268
:1020400074D303098B425FD3030A8B4244D3030B3F
:102050008B4228D3030C8B420DD3FF22090212BA04
:10206000030C8B4202D31212090265D0030B8B4280
:1020700019D300E0090AC30B8B4201D3CB03C01A6A
:102080005241830B8B4201D38B03C01A5241430B45
:102090008B4201D34B03C01A5241030B8B4201D335
:1020A0000B03C01A5241C30A8B4201D3CB02C01AA0
:1020B0005241830A8B4201D38B02C01A5241430A18
:1020C0008B4201D34B02C01A5241030A8B4201D307
:1020D0000B02C01A5241CDD2C3098B4201D3CB01AE
:1020E000C01A524183098B4201D38B01C01A52415D
:1020F00043098B4201D34B01C01A524103098B4261
:1021000001D30B01C01A5241C3088B4201D3CB004B
:10211000C01A524183088B4201D38B00C01A52412E
:1021200043088B4201D34B00C01A5241411A00D2DE
:1021300001465241104670475DE0CA0F00D0494247
:10214000031000D34042534000229C4603098B42B7
:102150002DD3030A8B4212D3FC22890112BA030A3F
:102160008B420CD3890192118B4208D389019211C1
:102170008B4204D389013AD0921100E08909C30946
:102180008B4201D3CB01C01A524183098B4201D348
:102190008B01C01A524143098B4201D34B01C01A33
:1021A000524103098B4201D30B01C01A5241C308AB
:1021B0008B4201D3CB00C01A524183088B4201D31A
:1021C0008B00C01A5241D9D243088B4201D34B0035
:1021D000C01A5241411A00D20146634652415B1077
:1021E000104601D34042002B00D549427047634658
:1021F0005B1000D3404201B5002000F005F802BD9D
:102200000029F8D016E770477047C046002B15D15B
:10221000002A13D1002906DB01DC002806D00020AB
:10222000C043410802E080210906002007B40248AB
:1022300001A14018029003BDD1FFFFFF03B468461F
:1022400001B5029800F020F9019B9E4602B00CBC3B
:102250007047C046002B11D1002A0FD1002900D1B0
:10226000002802D00021C943080007B4024802A197
:102270004018029003BDC04691FFFFFF03B46846BB
:1022800001B5029800F034F8019B9E4602B00CBCE8
:102290007047C046F0B5CE46474680B50700994620
:1022A0003B0C9C4613041B0C1D000E0061460004F1
:1022B000140C000C45434B4360436143C0182C0C85
:1022C00020188C46834203D980235B029846C4447D
:1022D000494679437243030C63442D042D0CC918FD
:1022E000000440198918C0BCB946B046F0BDC046CC
:1022F000F0B557464E464546DE46E0B504000D00B3
:102300009246994683B08B4230D82DD049465046EC
:1023100000F0D8F829000600200000F0D3F8331AA6
:102320009846203B9B4633D45A46534693404246F8
:102330001F00534693401E00AF423AD8AF4200D12F
:1023400078E05B46A41BBD41002B00DA75E000225B
:1023500000230092019301235A46934001930123E5
:1023600042469340009328E08242CFD900220023C6
:10237000009201930C9B002B01D01C605D600098C3
:10238000019903B0F0BCBB46B246A946A046F0BDD9
:10239000424620239B1A5246DA40414613004A46E1
:1023A0008A40170042461F43534693401E00AF42E7
:1023B000C4D900220023009201934346002BD9D0B8
:1023C000FB0772081A4346467B080EE0AB4201D178
:1023D000A2420CD8A41A9D41012024196D4100216C
:1023E000013E24184D41002E06D0AB42EED9013EED
:1023F00024196D41002EF8D1009801995B4600190F
:102400006941002B24DB2B005A464446D3402A0066
:10241000E2401C005B461500002B2ADB26009E4094
:10242000330026004746BE403200801A9941009092
:1024300001919FE7A342BCD883E7424620230021B5
:102440009B1A0022009101920122DA40019286E754
:10245000424620239B1A2A0046469A402300F34016
:10246000444613432A00E2401C005B461500002B43
:10247000D4DA42462F002023260097409B1ADE40E4
:102480003B003343CDE7C046F8B5CE46474680B55E
:102490009146984604000D0000F020F807000E0059
:1024A00002000B0048464146FFF7F4FE241A8D4116
:1024B000089B380031001C605D60C0BCB946B04666
:1024C000F8BDC04610B5002903D100F0EDF820306A
:1024D00002E0080000F0E8F810BDC046F0B557462D
:1024E0004E464546DE46E0B50F00190000230600C3
:1024F0009846100083B0002F07DA33003C00002715
:102500005E42A74101235B429846002907DA434611
:10251000DB430C009846030000215842A1413400DF
:102520003D0082468946B9426AD867D0494650463E
:10253000FFF7C8FF834639003000FFF7C3FF5B4653
:102540001B1A9C46203B9B466BD458465146814003
:1025500060460B00514681400A00BB4200D972E040
:10256000BB4200D179E034003D005946A41A9D4198
:10257000002900DA74E0002100200126009001917A
:1025800059468E400196614601268E40614600966E
:1025900000295FD0D90756080E435F086146012223
:1025A00000230CE0AF4201D1A6420AD8A41BBD41D2
:1025B00024196D410139A4185D41002906D0AF42AC
:1025C000F0D9013924196D410029F8D100980199F9
:1025D0005B4600196941002B4DDB2E002C00DE40CC
:1025E0006346DC405B46002B55DB34009C402300F7
:1025F0006446A6403200801A994103E0B04295D962
:10260000002000214346002B04D003000C000021D1
:102610005842A14103B0F0BCBB46B246A946A04611
:10262000F0BD624648462023514690409B1AD9404F
:1026300003000091009960460B43514681400A0017
:10264000BB4200D88CE70021002000900191614638
:1026500000299FD100980199D4E7B142F3D882E7CD
:10266000614620260127761A00200021F7400090BD
:102670000191019787E7624620239B1A2A009A401E
:10268000260013006246D6402C001E436346DC4001
:102690005B46002BA9DA62462023350094409B1A42
:1026A000DD4023002B43A3E71C2101231B04984298
:1026B00001D3000C10391B0A984201D3000A0839D3
:1026C0001B09984201D30009043902A2105C40188A
:1026D0007047C0460403020201010101000000002E
:1026E000000000000D4885460D480E490E4A0023A3
:1026F00002E0D458C4500433C4188C42F9D30B4AB6
:102700000B4C002301E013600432A242FBD3FFF71D
:102710006DFB00F011F8FDF7F7FCFEE7001000205C
:102720000000002044040020FC2A0008440400208B
:1027300088050020FEE7000070B50C4D0C4E761B9E
:10274000B61005D0002408CD01349847A642FAD12E
:1027500000F096F8074D084E761BB61005D0002401
:1027600008CD01349847A642FAD170BDF02A00087E
:10277000F02A0008F02A0008F82A0008034B10B5D8
:10278000002B02D0024800F005F810BD0000000048
:10279000A527000810B5010000230022002000F04A
:1027A00019F810BD70B5074D074C641BA41005D077
:1027B000013CA300EB589847002CF9D100F066F8D3
:1027C00070BDC046F82A0008FC2A00087047C046C1
:1027D0007047C046F0B5D6464F464646C0B5264F70
:1027E00082B006003868924698468946FFF7EEFFA9
:1027F000224B1B680193A423019A5B00D558002D3E
:102800002ED06C681F2C30DC002E0FD1631C6B6047
:102810004B460234A40038686351FFF7D9FF00200B
:1028200002B0E0BCBA46B146A846F0BD8822514687
:102830002800A300EB189950873AA2408930FF3056
:102840000168114301608421404649005850022E1E
:10285000DCD12B008D33FF3319680A431A60D5E7AA
:1028600015004D35FF35D550CBE73868FFF7B0FF81
:1028700001204042D4E7C04640040020E42A00087A
:10288000F8B5C046F8BC08BC9E467047F8B5C046CF
:08289000F8BC08BC9E4670472D
:1028980000000000130000002600000038000000BF
:1028A80047000000530000005C00000062000000C8
:1028B80064000000620000005C000000530000009B
:1028C8004700000038000000260000001300000048
:1028D80000000000EDFFFFFFDAFFFFFFC8FFFFFF6A
:1028E800B9FFFFFFADFFFFFFA4FFFFFF9EFFFFFF44
:1028F8009CFFFFFF9EFFFFFFA4FFFFFFADFFFFFF51
:10290800B9FFFFFFC8FFFFFFDAFFFFFFEDFFFFFF83
:102918000D0A494E464F3A20486F76657220626F1D
:102928006172642073746570706572206D6F746F66
:102938007220746573740D0A000000002B000000FB
:102948002D0000006D696C6C69733A25644144433D
:10295800206375725F706861423A256420637572FE
:102968005F706861433A2564206375725F44433A37
:1029780025642062617474313A25642074656D7031
:102988003A256420656E61626C653A257320737020
:102998006565643A256420646972656374696F6E5D
:1029A8003A25642073696E75735F616D706C697424
:1029B8007564653A25640D0A00000000666F727739
:1029C800617264006261636B776172640000000089
:1029D800446972656374696F6E206368616E6765C8
:1029E8006420746F3A2025730D0A000053696E75D0
:1029F8007320616D706C69747564652064656372B9
:102A0800656173656420746F3A2025640D0A0000BF
:102A180053696E757320616D706C69747564652097
:102A2800696E6372656173656420746F3A2025640A
:102A38000D0A00004D6F746F7220656E61626C65DF
:102A4800640D0A004D6F746F722064697361626C63
:102A580065640D0A00000000E0170008E618000889
:102A6800E6180008E6180008E6180008E618000846
:102A7800E6180008E6180008E6180008E618000836
:102A8800E6180008A01800085A170008E6180008F9
:102A9800E6180008E6180008E61800085A170008A3
:102AA800E6180008E6180008E6180008E618000806
:102AB800E618000876180008CC170008E618000881
:102AC800E6180008B4180008E6180008E816000818
:102AD800E6180008E6180008E017000818000020AB
:082AE80008F8FF7F0100000067
:082AF0007D270008E900000841
:042AF800C100000811
:102AFC00140000003C000000016400040100000010
:102B0C0000A24A04000000000000000004030020A2
:102B1C006C030020D4030020000000000000000023
:102B2C000000000000000000000000000000000099
:102B3C000000000000000000000000000000000089
:102B4C000000000000000000000000000000000079
:102B5C000000000000000000000000000000000069
:102B6C000000000000000000000000000000000059
:102B7C000000000000000000000000000000000049
:102B8C000000000000000000000000000000000039
:102B9C000000000000000000000000000000000029
:102BAC000000000000000000000000000000000019
:102BBC0001000000000000000E33CDAB34126DE6B6
:102BCC00ECDE05000B00000000000000000000001F
:102BDC0000000000000000000000000000000000E9
:102BEC0000000000000000000000000000000000D9
:102BFC0000000000000000000000000000000000C9
:102C0C0000000000000000000000000000000000B8
:042F3C0084050020E8
:04000005080026E5E4
:00000001FF
