:020000040800F2
:1000000000100020B122000801230008012300088D
:1000100000000000000000000000000000000000E0
:1000200000000000000000000000000001230008A4
:100030000000000000000000012300081D1300085C
:100040000123000801230008012300080123000800
:1000500001230008012300080123000801230008F0
:1000600001230008012300080123000801230008E0
:10007000950B000801230008012300080123000854
:100080000123000800000000000000000123000818
:1000900000000000012300080123000801230008DC
:1000A00000000000012300080123000801210008CE
:1000B00001230008000000000123000800000000E8
:1000C00010B5064C2378002B07D1054B002B02D02E
:1000D000044800E000BF0123237010BD3C04002051
:1000E0000000000080250008044B10B5002B03D051
:1000F0000349044800E000BF10BDC04600000000F6
:100100004004002080250008002243088B4274D35D
:1001100003098B425FD3030A8B4244D3030B8B4208
:1001200028D3030C8B420DD3FF22090212BA030C11
:100130008B4202D31212090265D0030B8B4219D3F2
:1001400000E0090AC30B8B4201D3CB03C01A524112
:10015000830B8B4201D38B03C01A5241430B8B425A
:1001600001D34B03C01A5241030B8B4201D30B0343
:10017000C01A5241C30A8B4201D3CB02C01A52416A
:10018000830A8B4201D38B02C01A5241430A8B422D
:1001900001D34B02C01A5241030A8B4201D30B0216
:1001A000C01A5241CDD2C3098B4201D3CB01C01A30
:1001B000524183098B4201D38B01C01A524143093A
:1001C0008B4201D34B01C01A524103098B4201D328
:1001D0000B01C01A5241C3088B4201D3CB00C01A95
:1001E000524183088B4201D38B00C01A524143080D
:1001F0008B4201D34B00C01A5241411A00D2014632
:10020000524110467047FFE701B5002000F0F0F8BA
:1002100002BDC0460029F7D076E7704703460B437E
:100220007FD4002243088B4274D303098B425FD3EF
:10023000030A8B4244D3030B8B4228D3030C8B421B
:100240000DD3FF22090212BA030C8B4202D3121201
:10025000090265D0030B8B4219D300E0090AC30BD6
:100260008B4201D3CB03C01A5241830B8B4201D383
:100270008B03C01A5241430B8B4201D34B03C01A6C
:100280005241030B8B4201D30B03C01A5241C30AE4
:100290008B4201D3CB02C01A5241830A8B4201D355
:1002A0008B02C01A5241430A8B4201D34B02C01A3F
:1002B0005241030A8B4201D30B02C01A5241CDD2E4
:1002C000C3098B4201D3CB01C01A524183098B422F
:1002D00001D38B01C01A524143098B4201D34B0118
:1002E000C01A524103098B4201D30B01C01A52417B
:1002F000C3088B4201D3CB00C01A524183088B4202
:1003000001D38B00C01A524143088B4201D34B00EA
:10031000C01A5241411A00D201465241104670475C
:100320005DE0CA0F00D04942031000D34042534061
:1003300000229C4603098B422DD3030A8B4212D321
:10034000FC22890112BA030A8B420CD38901921153
:100350008B4208D3890192118B4204D389013AD090
:10036000921100E08909C3098B4201D3CB01C01A65
:10037000524183098B4201D38B01C01A5241430978
:100380008B4201D34B01C01A524103098B4201D366
:100390000B01C01A5241C3088B4201D3CB00C01AD3
:1003A000524183088B4201D38B00C01A5241D9D2EB
:1003B00043088B4201D34B00C01A5241411A00D26C
:1003C0000146634652415B10104601D34042002B68
:1003D00000D54942704763465B1000D3404201B5E7
:1003E000002000F005F802BD0029F8D016E770479C
:1003F0007047C046002B11D1002A0FD1002900D12F
:10040000002802D00021C943080007B4024802A115
:100410004018029003BDC046D9FFFFFF03B46846F1
:1004200001B5029800F034F8019B9E4602B00CBC66
:100430007047C046F0B5CE46474680B5070099469E
:100440003B0C9C4613041B0C1D000E00614600046F
:10045000140C000C45434B4360436143C0182C0C03
:1004600020188C46834203D980235B029846C444FB
:10047000494679437243030C63442D042D0CC9187B
:10048000000440198918C0BCB946B046F0BDC0464A
:10049000F0B557464E464546DE46E0B504000D0031
:1004A0009246994683B08B4230D82DD0494650466B
:1004B00000F0BAF829000600200000F0B5F8331A61
:1004C0009846203B9B4633D45A4653469340424677
:1004D0001F00534693401E00AF423AD8AF4200D1AE
:1004E00078E05B46A41BBD41002B00DA75E00022DA
:1004F00000230092019301235A4693400193012364
:1005000042469340009328E08242CFD90022002344
:10051000009201930C9B002B01D01C605D60009841
:10052000019903B0F0BCBB46B246A946A046F0BD57
:10053000424620239B1A5246DA40414613004A465F
:100540008A40170042461F43534693401E00AF4265
:10055000C4D900220023009201934346002BD9D036
:10056000FB0772081A4346467B080EE0AB4201D1F6
:10057000A2420CD8A41A9D41012024196D410021EA
:10058000013E24184D41002E06D0AB42EED9013E6B
:1005900024196D41002EF8D1009801995B4600198D
:1005A0006941002B24DB2B005A464446D3402A00E5
:1005B000E2401C005B461500002B2ADB26009E4013
:1005C000330026004746BE403200801A9941009011
:1005D00001919FE7A342BCD883E742462023002134
:1005E0009B1A0022009101920122DA40019286E7D3
:1005F000424620239B1A2A0046469A402300F34095
:10060000444613432A00E2401C005B461500002BC1
:10061000D4DA42462F002023260097409B1ADE4062
:100620003B003343CDE7C04610B5002903D100F0AD
:1006300007F8203002E0080000F002F810BDC046C4
:100640001C2101231B04984201D3000C10391B0A02
:10065000984201D3000A08391B09984201D30009C6
:10066000043902A2105C40187047C046040302021D
:10067000010101010000000000000000F0B5DE46AD
:1006800057464E464546E0B591B00CAF5D4B5A69B2
:100690005C4B01218A435A6100F022FE00F07CFD90
:1006A00001F0AEFC00F066FE00F06EFF564B042237
:1006B0001A61564B9A68554B04210A439A60544B71
:1006C000180001F0CFFD9023DB05802212011A6192
:1006D000FA235B00180000F039FE9023DB0580222E
:1006E00012015A61FA235B00180000F02FFE494BFB
:1006F0009A6880231B0213405A425341DAB20F23F7
:10070000FB181A70434B9A688023DB0113405A424E
:100710005341DAB20E23FB181A703E4B9A688023BD
:100720009B0113405A425341DAB20D23FB181A7051
:10073000394B1A6813005B009B181A01D21AD300B8
:100740001A00364B1B68D318BB60354B1B881BB295
:100750009B46344B1B881BB27B60334B1B881BB200
:100760003B60324BDB889BB21A0013009B009B1846
:100770009A009D182E4B1B78002B01D02D4A00E0CB
:100780002D4A2E4B1E682E4B1B789A462D4B1B680C
:100790009C46214B1B689846204B1B6899460F23AB
:1007A000FB181B78002B01D0312100E030210E23F3
:1007B000FB181B78002B01D0312400E030240D23DE
:1007C000FB181B78002B01D0312300E030231E489A
:1007D0000A9309940891BB6807934B4606934346D6
:1007E0000593634604935346039302960192009542
:1007F0003B687A68594601F0CFFB144B00221A601F
:1008000061E7C04600100240000400480024014097
:100810009825000800080048840400208004002077
:1008200066040020680400206A0400205C040020A4
:1008300058040020C4250008C82500080400002032
:100840000800002000000020CC2500086C040020D7
:1008500080B582B000AF0200FB1D1A70FB1D1B7833
:10086000312B16D1594B1B685A225343642118006F
:10087000FFF7D4FC03001A00544B1A60534B1B685B
:10088000002B00DC9EE0514B1B685A1E4F4B1A6038
:1008900098E0FB1D1B78322B11D14C4B1B686E224C
:1008A000534364211800FFF7B9FC03001A00474BBB
:1008B0001A60464B1B685A1C444B1A6082E0FB1DB1
:1008C0001B78332B1AD1424B1B785A1E9341DBB253
:1008D00001225340DBB21A1C01231340DAB23C4B15
:1008E0001A703B4B1B78002B01D03A4B00E03A4B7F
:1008F0003A4A1900100001F04FFB63E0FB1D1B7822
:10090000342B13D1364B1B685A1F354B1A60344BAE
:100910001B68002B02DA324B00221A60304B1A6837
:10092000304B1100180001F037FB4BE0FB1D1B782A
:10093000352B16D12A4B1B685A1D294B1A60284BA0
:100940001A68FA235B009A4203DD254BFA22520013
:100950001A60234B1A68244B1100180001F01CFB8D
:1009600030E0FB1D1B78362B0ED1204B01221A7074
:100970001F4B5A6C1E4B802109020A435A641D4BBF
:10098000180001F009FB1DE0FB1D1B78372B0DD172
:10099000164B00221A70164B5A6C154B16490A401A
:1009A0005A64164B180001F0F7FA0BE0FB1D1B7898
:1009B000202B07D10D4B1B785A425341DBB21A0052
:1009C0000A4B1A70C046BD4602B080BD040000202C
:1009D0000800002058260008602600086C26000841
:1009E0000000002088260008AC26000858040020DB
:1009F000002C0140D0260008FF7FFFFFE026000802
:100A000080B582B000AF5F4B9A6880231B02134011
:100A10005A425341DAB2FB1D1A705A4B9A6880232E
:100A2000DB0113405A425341DAB2BB1D1A70554BD9
:100A30009A6880239B0113405A425341DAB27B1DCE
:100A40001A70FB1D1B78002B0BD1BB1D1B78002BD4
:100A500007D17B1D1B78002B03D04B4B00221A6063
:100A60004FE0FB1D1B78002B0BD1BB1D1B78002B0F
:100A700007D07B1D1B78002B03D0434B3C221A6010
:100A80003FE0FB1D1B78002B0BD1BB1D1B78002BFF
:100A900007D07B1D1B78002B03D13B4B78221A60BB
:100AA0002FE0FB1D1B78002B0BD0BB1D1B78002BF0
:100AB00007D07B1D1B78002B03D1334BB4221A6067
:100AC0001FE0FB1D1B78002B0BD0BB1D1B78002BE0
:100AD00007D17B1D1B78002B03D12B4BF0221A6012
:100AE0000FE0FB1D1B78002B46D0BB1D1B78002B95
:100AF00042D17B1D1B78002B3ED0234B9622520007
:100B00001A60214B1A68214B1B689A4236D01E4B43
:100B10001A681E4B1B68D31A3B603B68B42B04DD7C
:100B20003B68693BFF3B3B6006E03B68B43303DA5C
:100B30003B686933FF333B60144B1B68EF2B09DDC7
:100B4000114B1B683C2B05DC114B1B685A1C104BCE
:100B50001A600CE00D4B1B683C2B08DC0A4B1B6831
:100B6000EF2B04DD0A4B1B685A1E094B1A60064B1B
:100B70001A68064B1A6002E0C04600E0C046BD4657
:100B800002B080BD0008004880040020A8040020B6
:100B900084040020B0B586B000AFE04B5A69DF4B4B
:100BA00001210A435A61DE4B1B685A1CDC4B1A6058
:100BB000DA4B9B699AB2D94BDB699BB2D31A9BB2D1
:100BC0001B051B0D9AB2D74B5A80D44B9B6A9AB225
:100BD000D24BDB6A9BB2D31A9BB21B051B0D9AB298
:100BE000D04B9A80CD4B5B6B9BB21B051B0D9AB211
:100BF000CC4B1A80C94BDB6B9BB21B051B0D9AB209
:100C0000C84BDA80C54B1B6D9BB21B051B0D9AB2FE
:100C1000C44B1A81C44B1B78002B06D0C24B1B78E7
:100C2000013BDAB2C04B1A70FAE1C04B00229B5E66
:100C3000002B4ADDBB4B5B889BB21A00BC4B1B6888
:100C4000D218BB4B1A60B74B9B889BB21A00B94BAA
:100C50001B68D218B74B1A60B24B1B889BB21A00A4
:100C6000B54B1B68D218B44B1A60B04B00229B5E88
:100C70009BB2013B9BB21AB2AC4B1A80AB4B002229
:100C80009B5E002B00D0CAE1A94B1B68002B02DA47
:100C9000AA4A944663449B121AB2A94B1A80A54BE8
:100CA0001B68002B02DAA54A944663449B121AB2D1
:100CB000A44B1A80A04B1B68002B02DA9F4A944673
:100CC00063449B121AB2A04B1A80964B5B889AB26F
:100CD0009B4B00215B5E9BB2D31A9BB21AB29B4B1B
:100CE0001A80904B9B889AB2964B00215B5E9BB218
:100CF000D31A9BB21AB2964B1A808A4B1B889AB2AF
:100D0000914B00215B5E9BB2D31A9BB21AB2914BFE
:100D10001A80904B1B881BB2002B06DA8D4B1B8868
:100D20001BB28D4A93420ADB05E08A4B1B881BB23B
:100D30008A4A934203DC8A4B1B78002B06D1894BED
:100D40005A6C884B88490A405A6406E0854B5A6CB5
:100D5000844B802109020A435A64FFF751FE834BFA
:100D60001B68DA179B1853403B60DB177B603968C0
:100D70007A680B005B0A1000C5051D430B00DC05FB
:100D80007B4A002320002900FFF734FB02000B0000
:100D900013007B61774B1B683B61774B1B683A699B
:100DA000D31AFB60744B3A691A60744B1B78002BA2
:100DB00008D07B69FA685A43714B1B68D218704B94
:100DC0001A6007E06E4B1A687B69F9684B43D21AC8
:100DD0006B4B1A606A4B1B681B0C1A007F231A406E
:100DE000684B1A60674B1A68674B9200D258674B82
:100DF0001B68534364211800FFF710FA03001A0020
:100E0000634B1A605F4B1B682A33624A134004D558
:100E1000013B80225242134301331A005A4B920085
:100E2000D2585A4B1B68534364211800FFF7F6F958
:100E300003001A00584B1A60524B1B685533554A31
:100E4000134004D5013B80225242134301331A0060
:100E50004D4B9200D2584D4B1B68534364211800F0
:100E6000FFF7DCF903001A004C4B1A60484B1B6873
:100E70004B4A9A184B4B00215B5E19004A4B5B1A98
:100E80009A4208DB474B00229B5E9BB2464AD31A2C
:100E90009BB21A0017E03E4B1B68444A94466344D9
:100EA000404A0021525E934208DB394B1B689BB2DB
:100EB0003E4A944663449BB21A0004E0394B002238
:100EC0009B5E9BB21A00274B5A63334B1B68344A14
:100ED0009A18344B00215B5E1900334B5B1A9A421F
:100EE00008DB304B00229B5E9BB22F4AD31A9BB289
:100EF0001A0062E0284B1B682C4A94466344294A36
:100F00000021525E934253DB234B1B689BB2274A5E
:100F1000944663449BB21A004FE0C046002401404F
:100F20006C0400205C040020090000200A0000205E
:100F30008C0400209004002094040020FF03000093
:100F4000980400209A0400209C04002066040020DD
:100F5000680400206A040020AEFCFFFF520300007A
:100F600058040020002C0140FF7FFFFF04000020F8
:100F700060EA0000B0040020A00400200800002067
:100F8000A40400207C040020F426000800000020B7
:100F9000700400207F00008074040020780400208A
:100FA000DB05000088040020B80B0000DC05000011
:100FB0001D4B00229B5E9BB21A001C4B9A631C4B7C
:100FC0001B681C4A9A18184B00215B5E19001A4BCB
:100FD0005B1A9A4208DB144B00229B5E9BB2164AB6
:100FE000D31A9BB21A0017E0114B1B68134A9446A0
:100FF00063440D4A0021525E934208DB0C4B1B6890
:101000009BB20E4A944663449BB21A0004E0064B1E
:1010100000229B5E9BB21A00044BDA6300E0C046DC
:10102000BD4606B0B0BDC04688040020002C01407B
:1010300078040020DB050000B80B0000DC05000090
:1010400080B582B000AF0200FB1D1A70FB1D1B783B
:101050007F2B09D8FB1D1B781A001F231A40044B55
:10106000012191400A001A60C046BD4602B080BD11
:1010700000E100E090B583B000AF02003960FB1DD5
:101080001A70FB1D1B787F2B28D82F4AFB1D1B785D
:101090005BB29B08C0339B009B58FA1D127811006D
:1010A00003220A40D200FF2191400A00D2431A4095
:1010B00011003B689B01FF221A40FB1D1B781800A2
:1010C00003230340DB009A401F48FB1D1B785BB2E3
:1010D0009B080A43C0339B001A5031E01B4AFB1D9A
:1010E0001B7819000F230B40083B9B0806339B001D
:1010F000D31804331B68FA1D1278110003220A402A
:10110000D200FF2191400A00D2431A4011003B68EF
:101110009B01FF221A40FB1D1B781800032303408C
:10112000DB009A400948FB1D1B781C000F2323405D
:10113000083B9B080A4306339B00C31804331A601C
:10114000C046BD4603B090BD00E100E000ED00E008
:1011500080B582B000AF78607B685A1E80235B0444
:101160009A4201D3012310E00A4B7A68013A5A608F
:1011700001235B4203211800FFF77CFF054B00228F
:101180009A60044B07221A6000231800BD4602B083
:1011900080BDC04610E000E080B500AF494B5A6901
:1011A000484BF02149030A435A619023DB055A68F2
:1011B0009023DB0544490A405A609023DB055A68B6
:1011C0009023DB05802149010A435A609023DB0507
:1011D000802212015A613D4B1A683C4B3A490A4041
:1011E0001A603A4B1A68394B802149010A431A6048
:1011F000364B08225A61354B1A68344B34490A4041
:101200001A60324B1A68314B802149000A431A6038
:101210002E4B04225A612F4B5A682E4B2C490A4000
:101220005A602C4B5A682B4B802149000A435A6064
:10123000284B8022D2005A61264B1A68254B24493C
:101240000A401A60234B1A68224B802149000A4346
:101250001A60204B04225A611E4B5A681D4BF02124
:101260008A435A601B4B5A681A4B40210A435A6002
:10127000194B5A68184B120112095A60164B5A68DA
:10128000154B8021C9050A435A60134B5A68124B0B
:1012900012490A405A60104B5A680F4B8021C9040A
:1012A0000A435A600C4B5A680B4B0C490A405A606F
:1012B000094B5A68084B8021C9040A435A60C0464A
:1012C000BD4680BD00100240FF0FFFFF000C00482C
:1012D000FFF0FFFF0004004800080048FFFFFFF098
:1012E00080B500AF0B4B00221A600B4B1B68FA2233
:1012F00091001800FEF708FF03001800FFF728FF11
:1013000001235B4200211800FFF7B4FEC046BD4632
:1013100080BDC046B00400200C00002080B500AFA6
:10132000084B1B68002B04D0064B1B685A1E054B4C
:101330001A60054B1B685A1C034B1A60C046BD4619
:1013400080BDC046AC040020B004002080B582B04F
:1013500000AF7860064B7A681A60C046044B1B6881
:10136000002BFBD1C046C046BD4602B080BDC04682
:10137000AC04002080B500AF794B9A69784B80218E
:1013800009010A439A61764B5A69754BC021C9021B
:101390000A435A619023DB055A6A9023DB050F212B
:1013A0008A435A629023DB055A6A9023DB050221A7
:1013B0000A435A629023DB055A689023DB050F210C
:1013C0008A435A609023DB055A689023DB05092184
:1013D0000A435A609023DB055A6A9023DB05F0210B
:1013E0008A435A629023DB055A6A9023DB05202149
:1013F0000A435A629023DB055A689023DB05F021EB
:101400008A435A609023DB055A689023DB059021BC
:101410000A435A609023DB055A6A9023DB05514941
:101420000A405A629023DB055A6A9023DB0580212B
:1014300089000A435A629023DB055A689023DB0532
:1014400048490A405A609023DB055A689023DB051F
:10145000902109010A435A60434B5A6A424B43495F
:101460000A405A62404B5A6A3F4B802189030A4323
:101470005A623D4B5A683C4B3C490A405A603A4BD1
:101480005A68394B902109040A435A60364B5A6A0C
:10149000354B37490A405A62334B5A6A324B8021E6
:1014A00089040A435A62304B5A682F4B30490A402C
:1014B0005A602D4B5A682C4B902109050A435A60FB
:1014C000294B5A6A284B120112095A62264B5A6A52
:1014D000254B802189050A435A62234B5A68224BC7
:1014E000120112095A60204B5A681F4B90210906BD
:1014F0000A435A601F4B00229A601E4B20221A603A
:101500001C4B00229A621B4B1B4ADA62194B0122C8
:101510001A63184B20225A60164B184A9A61154BD1
:101520006022DA61134B164A5A64124B154A1A624A
:10153000104B5A6C0F4B802109020A435A640D4B21
:101540005A680C4BA82189010A435A60094B1A6852
:10155000084B01210A431A60C046BD4680BDC04603
:1015600000100240FFF0FFFF00040048FFFF0FFFE4
:10157000FFFFFFF0002C0140B80B0000606000008E
:101580001E0C00005505000080B500AF154B9A6990
:10159000144B802189000A439A61124B5A69114BFE
:1015A000C021C9020A435A619023DB0500221A6058
:1015B0000D4B1A680C4BFF218A431A600B4B0C4AE7
:1015C0005A600A4B0B4A9A60084B0B4ADA600021BA
:1015D0000C20FFF74FFD0C20FFF732FDC046BD4643
:1015E00080BDC046001002400004004800240140B5
:1015F0000D04000001020200B3420000B0B58EB03D
:1016000000AFB861F9617A6100237B630122002396
:10161000BA62FB627B691B697B620EE07B69DB68F7
:10162000BB600023FB60BA68FB68B86AF96AFEF722
:1016300001FF02000B00BA62FB62BA6AFB6AB8697A
:10164000F969FEF7D7FE02000B007969C9680C0042
:1016500000210D009D4248D8E0D19442DED944E0FB
:10166000BA6AFB6AB869F969FEF7C4FE02000B00AA
:1016700013003B62B869F969BA6AFB6AFEF7BAFE01
:10168000BA61FB617B69DB683B6000237B603A6881
:101690007B68B86AF96AFEF7ADFE02000B00BA6219
:1016A000FB627B6B002B06D13B6A002B03DCBB6A21
:1016B000FA6A134319D13B6A092B0ADD7B691B784F
:1016C00004221340DBB2002B01D0372302E0572362
:1016D00000E030233A6AD1B27A6A501C78625B1813
:1016E000DBB213707B6B01337B63BB6AFA6A134313
:1016F000B6D17B6A00221A70C046BD460EB0B0BD9E
:1017000080B584B000AFB860F9607A60FB68002BE8
:101710000CDABA68FB6800200021801A99410200A7
:101720000B00BA60FB607B682D221A72B868F968FA
:101730007B681A00FFF762FFC046BD4604B080BD5B
:1017400080B586B000AF7860396000237B610123EB
:101750003B613B681B69FB6004E03B68DA683B69FE
:1017600053433B6139697868FEF7CEFC03001A00E9
:101770003B68DB689A42F0D237E039697868FEF757
:10178000C3FC0300BB607B6839691800FEF742FDAB
:101790000B007B603B68DB6819003869FEF7B4FC1E
:1017A00003003B617B69002B05D1BB68002B02DC89
:1017B0003B69002B19D1BB68092B0ADD3B681B78FC
:1017C00004221340DBB2002B01D0372302E0572361
:1017D00000E03023BA68D1B2FA68501CF8605B1898
:1017E000DBB213707B6901337B613B69002BC4D191
:1017F000FB6800221A70C046BD4606B080BD80B5A9
:1018000082B000AF786039607B68002B05DA7B68B6
:101810005B427B603B682D221A727B683A6811003C
:101820001800FFF78DFFC046BD4602B080BD80B5F1
:1018300086B000AF7860396000237B6101233B6193
:101840003B681B69FB6004E03B68DA683B69534313
:101850003B6139697868FEF757FC03001A003B6862
:10186000DB689A42F0D237E039697868FEF74CFCC1
:101870000300BB607B6839691800FEF7CBFC0B00E6
:101880007B603B68DB6819003869FEF73DFC0300AC
:101890003B617B69002B05D1BB68002B02DC3B69F7
:1018A000002B19D1BB68092B0ADD3B681B78042289
:1018B0001340DBB2002B01D0372302E0572300E0B6
:1018C0003023BA68D1B2FA68501CF8605B18DBB2FA
:1018D00013707B6901337B613B69002BC4D1FB68CA
:1018E00000221A70C046BD4606B080BD80B582B0E9
:1018F00000AF786039607B68002B05DA7B685B425B
:101900007B603B682D221A727B683A6811001800D0
:10191000FFF78DFFC046BD4602B080BD80B582B0E6
:1019200000AF0200FB1D1A70FB1D1B782F2B07D97F
:10193000FB1D1B78392B03D8FB1D1B78303B19E0AE
:10194000FB1D1B78602B07D9FB1D1B78662B03D86A
:10195000FB1D1B78573B0DE0FB1D1B78402B07D967
:10196000FB1D1B78462B03D8FB1D1B78373B01E082
:1019700001235B421800BD4602B080BD80B588B02F
:1019800000AFB9607A603B600F23FB18021C1A702D
:10199000BB681B68FB610023BB6110E07A697B6850
:1019A0009A4218DC7B68BA695A437B69D318BB61D9
:1019B000FB695A1CFA610F22BA181B7813700F23A7
:1019C000FB181B781800FFF7A9FF03007B617B69F8
:1019D000002BE3DA00E0C046BB68FA691A603B6896
:1019E000BA691A600F23FB181B781800BD4608B0AF
:1019F00080BD80B588B000AFF860B9607A607B6860
:101A00005B68FB617B681B69BB6102E0FB69013BB2
:101A1000FB61BB695A1CBA611B78002B02D0FB69C1
:101A2000002BF3DC7B681B7A002B02D0FB69013BA7
:101A3000FB617B681B7802221340DBB2002B07D0CE
:101A40007B68DB68102B03D1FB69023BFB610DE077
:101A50007B681B7802221340DBB2002B06D07B6828
:101A6000DB68082B02D1FB69013BFB617B681B78BB
:101A700001221340DBB2002B11D17B681B780822B6
:101A80001340DBB2002B0AD104E0FA68BB682021C6
:101A900010009847FB695A1EFA61002BF5DC7B6841
:101AA0001B7A002B05D07B68197AFA68BB68100096
:101AB00098477B681B7802221340DBB2002B17D0BB
:101AC0007B68DB68102B13D1FA68BB6830211000EB
:101AD00098477B681B7804221340DBB2002B01D0AF
:101AE000582200E07822F868BB68110098470FE0A0
:101AF0007B681B7802221340DBB2002B08D07B6886
:101B0000DB68082B04D1FA68BB68302110009847C5
:101B10007B681B7801221340DBB2002B0AD004E063
:101B2000FA68BB68302110009847FB695A1EFA61B9
:101B3000002BF5DC7B681B69BB6106E01723FB18F3
:101B40001978FA68BB6810009847BB695A1CBA61DB
:101B500017217A181B7813707B181B78002BEDD196
:101B60007B681B7801221340DBB2002B11D17B680C
:101B70001B7808221340DBB2002B0AD004E0FA687D
:101B8000BB68202110009847FB695A1EFA61002BA0
:101B9000F5DCC046BD4608B080BD000090B591B0F0
:101BA00000AFF860B9607A603B602823FB18102210
:101BB000BA181A61C7E13F22BB181B78252B06D043
:101BC000BB181978FA68BB6810009847BBE13E2340
:101BD000FB1800221A7028203B181A7801218A432A
:101BE0001A703B181A7802218A431A703B18002297
:101BF0005A603B181A7808218A431A703B18002251
:101C00001A7220E03F23FB181B78302B0BD018DC16
:101C1000232B0FD02D2B14D12823FB181A78082141
:101C20000A431A700FE02823FB181A7801210A438F
:101C30001A7008E02823FB181A7802210A431A7048
:101C400001E0C0460AE07B685A1C7A603F217A189E
:101C50001B7813707B181B78002BD3D13F203B18C7
:101C60001B782F2B10D93B181B78392B0CD83C181C
:101C70002823FB181A1D391D3B18187813000A2257
:101C8000FFF77CFE030023703F23FB181B782E2BED
:101C900015D12823FB181A7801210A431A707B6892
:101CA0005A1C7A603F217A181B7813700A00BB18FF
:101CB0001B782F2B03D9BB181B78392BEFD93F2169
:101CC0007B181B787A2B0AD17B685A1C7A607A18A9
:101CD0001B7813703E23FB1801221A701BE03F2172
:101CE0007B181B786C2B16D17B685A1C7A607A188B
:101CF0001B7813703E203B1801221A707B181B784A
:101D00006C2B08D17B685A1C7A607A181B78137088
:101D10003B1802221A703F23FB181B78782B00DD3A
:101D200010E1582B06DA002B00D119E1252B00D148
:101D300001E107E1583B202B00D903E19A008B4BCE
:101D4000D3181B689F4628243B190A22DA603E23D9
:101D5000FB181B78022B0DD13B68073307229343F6
:101D60001A0008323A60186859683B191A00FFF7E0
:101D700045FC19E03E23FB181B78012B0AD13B6878
:101D80001A1D3A601B682822BA1811001800FFF7C4
:101D9000D7FC09E03B681A1D3A601B682822BA1874
:101DA00011001800FFF743FD2823FA18B968FB68F3
:101DB0001800FFF71EFEC6E028243B190A22DA604D
:101DC0003E23FB181B78022B0DD13B6807330722FB
:101DD00093431A0008323A60186859683B191A0090
:101DE000FFF78EFC19E03E23FB181B78012B0AD16C
:101DF0003B681A1D3A601B682822BA1811001800A7
:101E0000FFF7FDFC09E03B681A1D3A601B682822B9
:101E1000BA1811001800FFF769FD2823FA18B968ED
:101E2000FB681800FFF7E5FD8DE02823FB181A7802
:101E300002210A431A703E23FB1800221A7028243C
:101E40003B191022DA603F23FB181B78583B5A429B
:101E50005341DAB23B1901210A4090001A7804215B
:101E60008A43111C021C0A431A703E23FB181B787C
:101E7000022B0DD13B680733072293431A00083227
:101E80003A60186859683B191A00FFF7B7FB19E068
:101E90003E23FB181B78012B0AD13B681A1D3A60C0
:101EA0001B682822BA1811001800FFF749FC09E046
:101EB0003B681A1D3A601B682822BA1811001800E6
:101EC000FFF7B5FC2823FA18B968FB681800FFF77C
:101ED00090FD38E028217B180822DA603B681A1D43
:101EE0003A601B680C007A1811001800FFF79FFC7D
:101EF0003A19B968FB681800FFF77BFD23E03B68DF
:101F00001A1D3A601B68D9B2FA68BB68100098477E
:101F100019E03B681A1D3A601A6828243B191A61B7
:101F20003A19B968FB681800FFF763FD3B191022E6
:101F3000BA181A6107E03F23FB181978FA68BB68E2
:101F400010009847C0467B685A1C7A603F217A1877
:101F50001B7813707B181B78002B00D02BE600E059
:101F6000C046C046BD4611B090BDC046F42800082A
:101F700080B582B000AF78603960054B3A681A606E
:101F8000044B7A681A60C046BD4602B080BDC046A8
:101F9000B4040020B80400200FB480B582B000AFB4
:101FA0001423FB187B60074B1868074B19687B6884
:101FB0003A69FFF7F3FDC046BD4602B080BC08BCDD
:101FC00004B01847B8040020B404002080B582B0E3
:101FD00000AF0200FB1D1A70FB1D1B787F2B09D878
:101FE000FB1D1B781A001F231A40044B012191404E
:101FF0000A001A60C046BD4602B080BD00E100E0A4
:1020000080B582B000AF374B9A69364B8021C90149
:102010000A439A61334B5A69324B8021C9020A4301
:102020005A61314B1A6A304B30490A401A622E4BC2
:102030001A682D4B2D490A401A602B4B1A682A4BFF
:10204000902109050A431A60274B1A6A264B284932
:102050000A401A62244B1A6A234BC02189020A43A0
:102060001A62214B1A68204B21490A401A601E4B04
:102070001A681D4B8021C9020A431A601D4B0022B9
:102080009A611C4B3022DA611A4B9A69194B19215B
:102090000A439A61184B1B68E12251021800FEF7AF
:1020A00033F803001A00BB1D1A80BB1D1B881B09D7
:1020B0009AB2104B1A62BB1D1A880E4B0F210A40B0
:1020C0005A620C4B02221A611B20FFF77FFF0B4A5A
:1020D0000A4B11001800FFF74BFFC046BD4602B087
:1020E00080BDC0460010024000040048FFFFFFF022
:1020F000FFFFF0FF003801400C0000208F22000895
:1021000080B582B000AF374BDB68022213402FD07E
:10211000344B5A69334B02210A435A61314B5A6896
:10212000FB1D1A70FB1D1B781800FEF791FBFB1DB1
:102130001B78312B0CD12C4BDB680822134003D0C9
:10214000294B08225A6113E0274B08221A610FE03D
:10215000FB1D1B78322B0BD1234BDB680422134071
:1021600003D0214B04225A6102E01F4B04221A6162
:102170001C4BDB68012213402FD01A4B5A69194BB4
:1021800001210A435A61194B1B68002B1FD0184BC1
:102190001B68591C164A1160164AD25C114B1A6012
:1021A000134B1B687F2B02D9114B00221A600F4B77
:1021B0001B685A1E0D4B1A600C4B1B68002B0CD170
:1021C000084B1A69074B01218A431A6105E0054B48
:1021D0001A69044B01218A431A61C046BD4602B008
:1021E00080BDC04600380140000C0048400500207A
:1021F0003C050020BC04002080B584B000AF020084
:10220000FB1D1A70134B1A69124B01218A431A6184
:10221000114B1B687F2B12D8104B1A680E4B1B6892
:10222000D3187F221340FB600D4AFB68D318FA1DB8
:1022300012781A70084B1B685A1C074B1A60054B22
:102240001A69044B01210A431A61C046BD4604B015
:1022500080BDC04600380140400500203C050020FC
:10226000BC04002080B582B000AF786006E07B68D7
:102270005A1C7A601B781800FFF7BEFF7B681B783A
:10228000002BF4D1C046C046BD4602B080BD80B52B
:1022900082B000AF78600A00FB1C1A70FB1C1B7830
:1022A0001800FFF7A9FFC046BD4602B080BD000080
:1022B0000D4885460D480E490E4A002302E0D458C9
:1022C000C4500433C4188C42F9D30B4A0B4C00237E
:1022D00001E013600432A242FBD300F013F800F0D7
:1022E000ABF8FEF7CBF9FEE700100020000000205D
:1022F0003C040020902900083C04002048050020F0
:10230000FEE7000080B500AF164B1A68154B01219F
:102310000A431A60134B5A68124B13490A405A6019
:10232000104B1A680F4B11490A401A600D4B1A687E
:102330000C4B0F490A401A600A4B5A68094B0D4969
:102340000A405A60074B1A68064B0B490A401A604C
:10235000044B9F2212049A6000F010F8C046BD465C
:1023600080BDC046001002400CC0FFF8FFFFF6FE23
:10237000FFFFFBFFFFFF3CFFFFFF8F0080B582B038
:1023800000AF284B1A68274B01210A431A60C04648
:10239000244B1B6802221340FAD0234B234A1A60B5
:1023A000234B1A68224B10210A431A60204B1A68EB
:1023B0001F4B07218A431A601B4B1B68013B1D49B9
:1023C0001800FDF7A1FE03007B60194B1968184B3C
:1023D0007A680A431A60134A124B52685A60114ACB
:1023E000104B52685A600F4B1A680E4B80214903FC
:1023F0000A431A600B4B5A680A4B03218A435A60FE
:10240000084B5A68074B02210A435A60C046054BE5
:102410005B680C221340082BF9D1C046C046BD466C
:1024200002B080BD001002400C00002000A24A044F
:102430000020024000366E0170B50C4D0C4E761B2C
:10244000B61005D0002408CD01349847A642FAD131
:1024500000F096F8074D084E761BB61005D0002404
:1024600008CD01349847A642FAD170BD84290008EE
:1024700084290008842900088C290008034B10B522
:10248000002B02D0024800F005F810BD000000004B
:10249000A524000810B5010000230022002000F050
:1024A00019F810BD70B5074D074C641BA41005D07A
:1024B000013CA300EB589847002CF9D100F066F8D6
:1024C00070BDC0468C290008902900087047C0469E
:1024D0007047C046F0B5D6464F464646C0B5264F73
:1024E00082B006003868924698468946FFF7EEFFAC
:1024F000224B1B680193A423019A5B00D558002D41
:102500002ED06C681F2C30DC002E0FD1631C6B604A
:102510004B460234A40038686351FFF7D9FF00200E
:1025200002B0E0BCBA46B146A846F0BD882251468A
:102530002800A300EB189950873AA2408930FF3059
:102540000168114301608421404649005850022E21
:10255000DCD12B008D33FF3319680A431A60D5E7AD
:1025600015004D35FF35D550CBE73868FFF7B0FF84
:1025700001204042D4E7C0463804002078290008F2
:10258000F8B5C046F8BC08BC9E467047F8B5C046D2
:08259000F8BC08BC9E46704730
:102598000D0A494E464F3A20486F76657220626FA1
:1025A8006172642073746570706572206D6F746FEA
:1025B8007220746573740D0A000000003100000079
:1025C80030000000206375725F706861423A2564CC
:1025D800206375725F706861433A25642063757281
:1025E8005F44433A25642062617474313A2564205B
:1025F800656E3A25732073706565643A25642064B6
:1026080069723A25642073696E75735F553A25645B
:10261800207475726E735F62795F68616C6C3A25BD
:102628006420616E676C655F68616C6C3A25642034
:1026380070686173655F68616C6C3A256420753AEF
:10264800256320763A256320773A25630D0A000032
:10265800666F7277617264006261636B776172643E
:1026680000000000446972656374696F6E206368D6
:10267800616E67656420746F3A2025730D0A000047
:1026880053696E757320616D706C6974756465202B
:1026980064656372656173656420746F3A202564AC
:1026A8000D0A000053696E757320616D706C697452
:1026B80075646520696E6372656173656420746F03
:1026C8003A2025640D0A00004D6F746F7220656E04
:1026D80061626C65640D0A004D6F746F72206469E5
:1026E8007361626C65640D0A000000000000000060
:1026F800050000000A0000000F00000014000000A0
:10270800190000001E00000023000000280000003F
:102718002D00000031000000360000003B000000E2
:1027280040000000450000004A0000004E00000084
:1027380053000000570000005B0000005F0000002D
:1027480062000000640000006700000069000000EB
:102758006B0000006D0000006E0000006F000000BC
:10276800700000007100000071000000710000009E
:1027780071000000700000006F0000006E00000093
:102788006D0000006B000000690000006700000099
:1027980064000000620000005F0000005B000000B1
:1027A80057000000530000004E0000004A000000DF
:1027B80045000000400000003B000000360000001B
:1027C800310000002D000000280000002300000058
:1027D8001E00000019000000140000000F00000097
:1027E8000A0000000500000000000000FBFFFFFFDA
:1027F800F6FFFFFFF1FFFFFFECFFFFFFE7FFFFFF23
:10280800E2FFFFFFDDFFFFFFD8FFFFFFD3FFFFFF62
:10281800CFFFFFFFCAFFFFFFC5FFFFFFC0FFFFFF9E
:10282800BBFFFFFFB6FFFFFFB2FFFFFFADFFFFFFDC
:10283800A9FFFFFFA5FFFFFFA1FFFFFF9EFFFFFF0F
:102848009CFFFFFF99FFFFFF97FFFFFF95FFFFFF2B
:1028580093FFFFFF92FFFFFF91FFFFFF90FFFFFF36
:102868008FFFFFFF8FFFFFFF8FFFFFFF8FFFFFFF30
:1028780090FFFFFF91FFFFFF92FFFFFF93FFFFFF16
:1028880095FFFFFF97FFFFFF99FFFFFF9CFFFFFFEB
:102898009EFFFFFFA1FFFFFFA5FFFFFFA9FFFFFFAF
:1028A800ADFFFFFFB2FFFFFFB6FFFFFFBBFFFFFF5C
:1028B800C0FFFFFFC5FFFFFFCAFFFFFFCFFFFFFFFE
:1028C800D3FFFFFFD8FFFFFFDDFFFFFFE2FFFFFFA2
:1028D800E7FFFFFFECFFFFFFF1FFFFFFF6FFFFFF42
:1028E800FBFFFFFF00000000000000003E1E000884
:1028F800441F0008441F0008441F0008441F000824
:10290800441F0008441F0008441F0008441F000813
:10291800441F0008441F0008FE1E0008B81D0008D8
:10292800441F0008441F0008441F0008441F0008F3
:10293800B81D0008441F0008441F0008441F000871
:10294800441F0008441F0008D41E00082A1E00085F
:10295800441F0008441F0008121F0008441F0008F5
:10296800461D0008441F0008441F00083E1E0008BA
:04297800100000202B
:08297C0014DBFF7F01000000E5
:082984007D240008E9000008B1
:04298C00C10000087E
:10299000640000003C0000000164000400A24A043E
:1029A00000000000FC02002064030020CC03002093
:1029B0000000000000000000000000000000000017
:1029C0000000000000000000000000000000000007
:1029D00000000000000000000000000000000000F7
:1029E00000000000000000000000000000000000E7
:1029F00000000000000000000000000000000000D7
:102A000000000000000000000000000000000000C6
:102A100000000000000000000000000000000000B6
:102A200000000000000000000000000000000000A6
:102A30000000000000000000000000000000000096
:102A40000000000000000000010000000000000085
:102A50000E33CDAB34126DE6ECDE05000B0000004A
:102A60000000000000000000000000000000000066
:102A70000000000000000000000000000000000056
:102A80000000000000000000000000000000000046
:102A90000000000000000000000000000000000036
:0C2DC0000000000000000000440500209E
:04000005080022B11C
:00000001FF
