:020000040800F2
:100000000010002059080008A9080008A9080008E5
:1000100000000000000000000000000000000000E0
:10002000000000000000000000000000A908000817
:100030000000000000000000A9080008B505000845
:10004000A9080008A9080008A9080008A9080008CC
:10005000A9080008A9080008A9080008A9080008BC
:10006000A9080008A9080008A9080008A9080008AC
:10007000A9080008A9080008A9080008A90800089C
:10008000A90800080000000000000000A9080008FE
:1000900000000000A9080008A9080008A908000835
:1000A00000000000A9080008A9080008990100083C
:1000B000A908000800000000A908000800000000CE
:1000C00010B5064C2378002B07D1054B002B02D02E
:1000D000044800E000BF0123237010BD3404002059
:1000E00000000000F4090008044B10B5002B03D0F9
:1000F0000349044800E000BF10BDC04600000000F6
:1001000038040020F409000880B500AF124B5A698A
:10011000114B01218A435A6100F02EFA00F014F9C4
:1001200000F0B6F90D4B04221A619023DB05802202
:1001300012011A61FA239B00180000F053FA902371
:10014000DB05802212015A61FA239B00180000F09F
:1001500049FA00F005F8E8E7001002400004004802
:1001600080B500AF0B4BDA680A4B01218A43DA6095
:10017000C046084B9B6808221340FAD0054B2B223F
:100180001A60044B1A69034B01210A431A61C046E5
:10019000BD4680BD0038014080B582B000AF134B32
:1001A000DB680222134009D0104B5A690F4B022121
:1001B0000A435A610D4B5A68FB1D1A700B4BDB68E2
:1001C000012213400ED0094B5A69084B01210A4302
:1001D0005A61064B1A69054B01218A431A61034B88
:1001E0002B221A60C046BD4602B080BD00380140D7
:1001F00080B582B000AF0200FB1D1A70FB1D1B789A
:100200007F2B09D8FB1D1B781A001F231A40044BB3
:10021000012191400A001A60C046BD4602B080BD6F
:1002200000E100E090B583B000AF02003960FB1D33
:100230001A70FB1D1B787F2B28D82F4AFB1D1B78BB
:100240005BB29B08C0339B009B58FA1D12781100CB
:1002500003220A40D200FF2191400A00D2431A40F3
:1002600011003B689B01FF221A40FB1D1B78180000
:1002700003230340DB009A401F48FB1D1B785BB241
:100280009B080A43C0339B001A5031E01B4AFB1DF8
:100290001B7819000F230B40083B9B0806339B007B
:1002A000D31804331B68FA1D1278110003220A4088
:1002B000D200FF2191400A00D2431A4011003B684E
:1002C0009B01FF221A40FB1D1B78180003230340EB
:1002D000DB009A400948FB1D1B781C000F232340BC
:1002E000083B9B080A4306339B00C31804331A607B
:1002F000C046BD4603B090BD00E100E000ED00E067
:1003000080B582B000AF78607B685A1E80235B04A2
:100310009A4201D3012310E00A4B7A68013A5A60ED
:1003200001235B4203211800FFF77CFF054B0022ED
:100330009A60044B07221A6000231800BD4602B0E1
:1003400080BDC04610E000E080B500AF494B5A695F
:10035000484BF02149030A435A619023DB055A6850
:100360009023DB0544490A405A609023DB055A6814
:100370009023DB05802149010A435A609023DB0565
:10038000802212015A613D4B1A683C4B3A490A409F
:100390001A603A4B1A68394B802149010A431A60A6
:1003A000364B08225A61354B1A68344B34490A409F
:1003B0001A60324B1A68314B802149000A431A6097
:1003C0002E4B04225A612F4B5A682E4B2C490A405F
:1003D0005A602C4B5A682B4B802149000A435A60C3
:1003E000284B8022D2005A61264B1A68254B24499B
:1003F0000A401A60234B1A68224B802149000A43A5
:100400001A60204B04225A611E4B5A681D4BF02182
:100410008A435A601B4B5A681A4B40210A435A6060
:10042000194B5A68184B120112095A60164B5A6838
:10043000154B8021C9050A435A60134B5A68124B69
:1004400012490A405A60104B5A680F4B8021C90468
:100450000A435A600C4B5A680B4B0C490A405A60CD
:10046000094B5A68084B8021C9040A435A60C046A8
:10047000BD4680BD00100240FF0FFFFF000C00488A
:10048000FFF0FFFF0004004800080048FFFFFFF0F6
:1004900080B582B000AF324B9A69314B8021C901DF
:1004A0000A439A612E4B5A692D4B8021C9020A4397
:1004B0005A612C4B1A6A2B4B2B490A401A62294B62
:1004C0001A68284B28490A401A60264B1A68254B9F
:1004D000902109050A431A60224B1A6A214B2349CD
:1004E0000A401A621F4B1A6A1E4BC02189020A4336
:1004F0001A621C4B1A681B4B1C490A401A60194BA4
:100500001A68184B8021C9020A431A60184B00224E
:100510009A61174B3022DA61154B9A69144B1921F5
:100520000A439A61134B1B68E1225102180000F044
:1005300007F903001A00BB1D1A80BB1D1B881B098D
:100540009AB20B4B1A62BB1D1A88094B0F210A4045
:100550005A621B20FFF74CFEC046BD4602B080BD6C
:100560000010024000040048FFFFFFF0FFFFF0FF13
:10057000003801400000002080B500AF0B4B002286
:100580001A600B4B1B68FA229100180000F0D8F893
:1005900003001800FFF7B4FE01235B42002118009E
:1005A000FFF740FEC046BD4680BDC0465404002053
:1005B0000000002080B500AF084B1B68002B04D062
:1005C000064B1B685A1E054B1A60054B1B685A1CCC
:1005D000034B1A60C046BD4680BDC0465004002093
:1005E0005404002080B582B000AF7860064B7A6872
:1005F0001A60C046044B1B68002BFBD1C046C046A6
:10060000BD4602B080BDC0465004002080B500AF9A
:10061000164B1A68154B01210A431A60134B5A688E
:10062000124B13490A405A60104B1A680F4B11497C
:100630000A401A600D4B1A680C4B0F490A401A60A9
:100640000A4B5A68094B0D490A405A60074B1A6811
:10065000064B0B490A401A60044B9F2212049A6011
:1006600000F010F8C046BD4680BDC04600100240F4
:100670000CC0FFF8FFFFF6FEFFFFFBFFFFFF3CFF94
:10068000FFFF8F0080B582B000AF284B1A68274B60
:1006900001210A431A60C046244B1B680222134002
:1006A000FAD0234B234A1A60234B1A68224B10219D
:1006B0000A431A60204B1A681F4B07218A431A60AD
:1006C0001B4B1B68013B1D49180000F039F8030063
:1006D0007B60194B1968184B7A680A431A60134AF1
:1006E000124B52685A60114A104B52685A600F4BB5
:1006F0001A680E4B802149030A431A600B4B5A6853
:100700000A4B03218A435A60084B5A68074B02215F
:100710000A435A60C046054B5B680C221340082B05
:10072000F9D1C046C046BD4602B080BD00100240AF
:100730000000002000A24A040020024000366E01A2
:10074000002243088B4274D303098B425FD3030A10
:100750008B4244D3030B8B4228D3030C8B420DD323
:10076000FF22090212BA030C8B4202D312120902B1
:1007700065D0030B8B4219D300E0090AC30B8B42EF
:1007800001D3CB03C01A5241830B8B4201D38B039D
:10079000C01A5241430B8B4201D34B03C01A524142
:1007A000030B8B4201D30B03C01A5241C30A8B4285
:1007B00001D3CB02C01A5241830A8B4201D38B0270
:1007C000C01A5241430A8B4201D34B02C01A524114
:1007D000030A8B4201D30B02C01A5241CDD2C30986
:1007E0008B4201D3CB01C01A524183098B4201D302
:1007F0008B01C01A524143098B4201D34B01C01AED
:10080000524103098B4201D30B01C01A5241C30864
:100810008B4201D3CB00C01A524183088B4201D3D3
:100820008B00C01A524143088B4201D34B00C01ABF
:100830005241411A00D20146524110467047FFE72B
:1008400001B5002000F006F802BDC0460029F7D02F
:1008500076E770477047C0460D4885460D480E49FB
:100860000E4A002302E0D458C4500433C4188C420A
:10087000F9D30B4A0B4C002301E013600432A2426F
:10088000FBD3FFF7C3FE00F011F8FFF73DFCFEE7D6
:100890000010002000000020340400201C0A000882
:1008A000340400205C040020FEE7000070B50C4D0D
:1008B0000C4E761BB61005D0002408CD01349847A5
:1008C000A642FAD100F096F8074D084E761BB610F6
:1008D00005D0002408CD01349847A642FAD170BD56
:1008E000100A0008100A0008100A0008180A000878
:1008F000034B10B5002B02D0024800F005F810BDE4
:10090000000000001909000810B5010000230022B2
:10091000002000F019F810BD70B5074D074C641B9E
:10092000A41005D0013CA300EB589847002CF9D146
:1009300000F066F870BDC046180A00081C0A0008DE
:100940007047C0467047C046F0B5D6464F4646464B
:10095000C0B5264F82B00600386892469846894650
:10096000FFF7EEFF224B1B680193A423019A5B0063
:10097000D558002D2ED06C681F2C30DC002E0FD1E6
:10098000631C6B604B460234A40038686351FFF768
:10099000D9FF002002B0E0BCBA46B146A846F0BD7F
:1009A000882251462800A300EB189950873AA240AC
:1009B0008930FF30016811430160842140464900BD
:1009C0005850022EDCD12B008D33FF3319680A43B7
:1009D0001A60D5E715004D35FF35D550CBE738689F
:1009E000FFF7B0FF01204042D4E7C04630040020AA
:1009F0000C0A0008F8B5C046F8BC08BC9E46704713
:0C0A0000F8B5C046F8BC08BC9E46704724
:040A0C0008000020BE
:080A1000F1080008E9000008EC
:040A1800C100000811
:100A1C0000A24A040000000000000000F4020020C4
:100A2C005C030020C4030020000000000000000054
:100A3C0000000000000000000000000000000000AA
:100A4C00000000000000000000000000000000009A
:100A5C00000000000000000000000000000000008A
:100A6C00000000000000000000000000000000007A
:100A7C00000000000000000000000000000000006A
:100A8C00000000000000000000000000000000005A
:100A9C00000000000000000000000000000000004A
:100AAC00000000000000000000000000000000003A
:100ABC00000000000000000000000000000000002A
:100ACC0001000000000000000E33CDAB34126DE6C7
:100ADC00ECDE05000B000000000000000000000030
:100AEC0000000000000000000000000000000000FA
:100AFC0000000000000000000000000000000000EA
:100B0C0000000000000000000000000000000000D9
:100B1C0000000000000000000000000000000000C9
:040E4C005804002026
:04000005080008598E
:00000001FF
