:020000040800F2
:100000000010002079200008C9200008C92000083D
:1000100000000000000000000000000000000000E0
:10002000000000000000000000000000C9200008DF
:100030000000000000000000C9200008E5100008D2
:10004000C9200008C9200008C9200008C9200008EC
:10005000C9200008C9200008C9200008C9200008DC
:10006000C9200008C9200008C9200008C9200008CC
:1000700035090008C9200008C9200008C920000867
:10008000C92000080000000000000000C92000088E
:1000900000000000C9200008C9200008C92000088D
:1000A00000000000C9200008C9200008C91E00087F
:1000B000C920000800000000C9200008000000005E
:1000C00010B5064C2378002B07D1054B002B02D02E
:1000D000044800E000BF0123237010BD3C04002051
:1000E0000000000048230008044B10B5002B03D08B
:1000F0000349044800E000BF10BDC04600000000F6
:100100004004002048230008002243088B4274D397
:1001100003098B425FD3030A8B4244D3030B8B4208
:1001200028D3030C8B420DD3FF22090212BA030C11
:100130008B4202D31212090265D0030B8B4219D3F2
:1001400000E0090AC30B8B4201D3CB03C01A524112
:10015000830B8B4201D38B03C01A5241430B8B425A
:1001600001D34B03C01A5241030B8B4201D30B0343
:10017000C01A5241C30A8B4201D3CB02C01A52416A
:10018000830A8B4201D38B02C01A5241430A8B422D
:1001900001D34B02C01A5241030A8B4201D30B0216
:1001A000C01A5241CDD2C3098B4201D3CB01C01A30
:1001B000524183098B4201D38B01C01A524143093A
:1001C0008B4201D34B01C01A524103098B4201D328
:1001D0000B01C01A5241C3088B4201D3CB00C01A95
:1001E000524183088B4201D38B00C01A524143080D
:1001F0008B4201D34B00C01A5241411A00D2014632
:10020000524110467047FFE701B5002000F0F0F8BA
:1002100002BDC0460029F7D076E7704703460B437E
:100220007FD4002243088B4274D303098B425FD3EF
:10023000030A8B4244D3030B8B4228D3030C8B421B
:100240000DD3FF22090212BA030C8B4202D3121201
:10025000090265D0030B8B4219D300E0090AC30BD6
:100260008B4201D3CB03C01A5241830B8B4201D383
:100270008B03C01A5241430B8B4201D34B03C01A6C
:100280005241030B8B4201D30B03C01A5241C30AE4
:100290008B4201D3CB02C01A5241830A8B4201D355
:1002A0008B02C01A5241430A8B4201D34B02C01A3F
:1002B0005241030A8B4201D30B02C01A5241CDD2E4
:1002C000C3098B4201D3CB01C01A524183098B422F
:1002D00001D38B01C01A524143098B4201D34B0118
:1002E000C01A524103098B4201D30B01C01A52417B
:1002F000C3088B4201D3CB00C01A524183088B4202
:1003000001D38B00C01A524143088B4201D34B00EA
:10031000C01A5241411A00D201465241104670475C
:100320005DE0CA0F00D04942031000D34042534061
:1003300000229C4603098B422DD3030A8B4212D321
:10034000FC22890112BA030A8B420CD38901921153
:100350008B4208D3890192118B4204D389013AD090
:10036000921100E08909C3098B4201D3CB01C01A65
:10037000524183098B4201D38B01C01A5241430978
:100380008B4201D34B01C01A524103098B4201D366
:100390000B01C01A5241C3088B4201D3CB00C01AD3
:1003A000524183088B4201D38B00C01A5241D9D2EB
:1003B00043088B4201D34B00C01A5241411A00D26C
:1003C0000146634652415B10104601D34042002B68
:1003D00000D54942704763465B1000D3404201B5E7
:1003E000002000F005F802BD0029F8D016E770479C
:1003F0007047C046002B11D1002A0FD1002900D12F
:10040000002802D00021C943080007B4024802A115
:100410004018029003BDC046D9FFFFFF03B46846F1
:1004200001B5029800F034F8019B9E4602B00CBC66
:100430007047C046F0B5CE46474680B5070099469E
:100440003B0C9C4613041B0C1D000E00614600046F
:10045000140C000C45434B4360436143C0182C0C03
:1004600020188C46834203D980235B029846C444FB
:10047000494679437243030C63442D042D0CC9187B
:10048000000440198918C0BCB946B046F0BDC0464A
:10049000F0B557464E464546DE46E0B504000D0031
:1004A0009246994683B08B4230D82DD0494650466B
:1004B00000F0BAF829000600200000F0B5F8331A61
:1004C0009846203B9B4633D45A4653469340424677
:1004D0001F00534693401E00AF423AD8AF4200D1AE
:1004E00078E05B46A41BBD41002B00DA75E00022DA
:1004F00000230092019301235A4693400193012364
:1005000042469340009328E08242CFD90022002344
:10051000009201930C9B002B01D01C605D60009841
:10052000019903B0F0BCBB46B246A946A046F0BD57
:10053000424620239B1A5246DA40414613004A465F
:100540008A40170042461F43534693401E00AF4265
:10055000C4D900220023009201934346002BD9D036
:10056000FB0772081A4346467B080EE0AB4201D1F6
:10057000A2420CD8A41A9D41012024196D410021EA
:10058000013E24184D41002E06D0AB42EED9013E6B
:1005900024196D41002EF8D1009801995B4600198D
:1005A0006941002B24DB2B005A464446D3402A00E5
:1005B000E2401C005B461500002B2ADB26009E4013
:1005C000330026004746BE403200801A9941009011
:1005D00001919FE7A342BCD883E742462023002134
:1005E0009B1A0022009101920122DA40019286E7D3
:1005F000424620239B1A2A0046469A402300F34095
:10060000444613432A00E2401C005B461500002BC1
:10061000D4DA42462F002023260097409B1ADE4062
:100620003B003343CDE7C04610B5002903D100F0AD
:1006300007F8203002E0080000F002F810BDC046C4
:100640001C2101231B04984201D3000C10391B0A02
:10065000984201D3000A08391B09984201D30009C6
:10066000043902A2105C40187047C046040302021D
:10067000010101010000000000000000F0B5D646B5
:100680004F464646C0B588B008AF324B5A69314B29
:1006900001218A435A6100F007FD00F061FC01F07E
:1006A00093FB00F04BFD00F053FE2B4B04221A612C
:1006B0002A4B9A68294B04210A439A60284B180058
:1006C00001F0B4FC9023DB05802212011A61FA23A9
:1006D0005B00180000F01EFD9023DB058022120154
:1006E0005A61FA235B00180000F014FD1D4B1C68D2
:1006F0001D4B1B881BB299461C4B1B881BB29A468C
:100700001B4B1B881BB21D001A4BDB889BB21E00C3
:10071000184B1B899BB29C46174B1B78002B01D0B2
:10072000164B00E0164B174A1168174A127890468C
:10073000164A12681648069242460592049103939F
:10074000634602930196009553464A46210001F004
:1007500007FBB7E7001002400004004800240140F6
:1007600060230008A0040020660400206804002024
:100770006A0400205C040020580400208C23000838
:100780009023000804000020080000200000002042
:100790009423000880B582B000AF0200FB1D1A70E0
:1007A000FB1D1B78312B16D1554B1B685A22534326
:1007B00064211800FFF732FD03001A00504B1A6045
:1007C0004F4B1B68002B00DC96E04D4B1B685A1EFC
:1007D0004B4B1A6090E0FB1D1B78322B0CD1484B21
:1007E0001B686E22534364211800FFF717FD0300B6
:1007F0001A00434B1A607FE0FB1D1B78332B1AD184
:10080000404B1B785A1E9341DBB201225340DBB2AE
:100810001A1C01231340DAB23A4B1A70394B1B7879
:10082000002B01D0384B00E0384B394A190010003A
:1008300001F096FA60E0FB1D1B78342B13D1354B89
:100840001B685A1F334B1A60324B1B68002B02DAAD
:10085000304B00221A602F4B1A682F4B11001800E2
:1008600001F07EFA48E0FB1D1B78352B13D1294B94
:100870001B685A1D274B1A60264B1B68C82B02DDCC
:10088000244BC8221A60234B1A68244B110018000D
:1008900001F066FA30E0FB1D1B78362B0ED1204BA1
:1008A00001221A701F4B5A6C1E4B802109020A4309
:1008B0005A641D4B180001F053FA1DE0FB1D1B7814
:1008C000372B0DD1164B00221A70164B5A6C154B54
:1008D00016490A405A64164B180001F041FA0BE021
:1008E000FB1D1B78202B07D10D4B1B785A4253411F
:1008F000DBB21A000A4B1A70C046BD4602B080BD7A
:1009000004000020080000200C2400081424000823
:1009100020240008000000203C2400086024000877
:1009200058040020002C014084240008FF7FFFFFB2
:1009300094240008F0B585B000AFE04C6569DF4C49
:10094000012635436561DD4CA469A5B2DB4CE46941
:10095000A4B22C1BA4B22405240DA5B2D84C6580EA
:10096000D64CA46AA5B2D54CE46AA4B22C1BA4B29E
:100970002405240DA5B2D24CA580D04C646BA4B242
:100980002405240DA5B2CE4C2580CC4CE46BA4B23A
:100990002405240DA5B2CA4CE580C84C246DA4B230
:1009A0002405240DA5B2C64C2581C64C2478002C04
:1009B00006D0C44B1B78013BDAB2C24B1A7012E26C
:1009C000C14C0025645F002C4ADDBD4C6488A4B294
:1009D0002500BE4C24682D19BC4C2560B84CA48859
:1009E000A4B22500BA4C24682D19B94C2560B44C2A
:1009F0002488A4B22500B74C24682D19B54C256075
:100A0000B14C0025645FA4B2013CA4B225B2AE4C47
:100A10002580AD4C0025645F002C00D0E2E1AB4C9A
:100A20002468002C02DAAC4DAC466444A41225B212
:100A3000AA4C2580A64C2468002C02DAA64DAC46B0
:100A40006444A41225B2A64C2580A24C2468002C34
:100A500002DAA14DAC466444A41225B2A14C258013
:100A6000974C6488A5B29D4C0026A45FA4B22C1BB1
:100A7000A4B225B29C4C2580914CA488A5B2984C78
:100A80000026A45FA4B22C1BA4B225B2974C2580EB
:100A90008B4C2488A5B2934C0026A45FA4B22C1BD7
:100AA000A4B225B2924C2580914C248824B2002C0B
:100AB00006DA8F4C248824B28E4DAC420ADB05E066
:100AC0008B4C248824B28C4DAC4203DC8B4C2478B4
:100AD000002C06D18A4C656C894C8A4E3540656481
:100AE00006E0874C656C864C80263602354365648B
:100AF000854CA568802424022C4065426C41E5B2F7
:100B00000F243C192570804CA5688024E4012C40FA
:100B100065426C41E5B20E243C1925707A4CA568FB
:100B20008024A4012C4065426C41E5B20D243C199F
:100B30002570764C2468E51764196C402200E41790
:100B40002300540AD9052143D005714A0023FFF739
:100B500051FC02000B001300BB606E4B1B687B60F6
:100B60006D4B1B687A68D31A3B606B4B7A681A60CE
:100B70006A4B1B78002B08D0BB683A685A43684B15
:100B80001B68D218664B1A6007E0654B1A68BB6891
:100B900039684B43D21A624B1A60614B1B681B0CBD
:100BA0001A007F231A405F4B1A605E4B1A685E4B37
:100BB0009200D2585D4B1B68534364211800FFF725
:100BC0002DFB03001A005A4B1A60564B1B682A3340
:100BD000584A134004D5013B80225242134301334B
:100BE0001A00514B9200D258504B1B68534364215A
:100BF0001800FFF713FB03001A004F4B1A60494B14
:100C00001B6855334B4A134004D5013B80225242A6
:100C1000134301331A00444B9200D258434B1B68D4
:100C2000534364211800FFF7F9FA03001A00434BFD
:100C30001A603F4B1B68424A9A18424B00215B5E88
:100C40001900414B5B1A9A4208DB3E4B00229B5E27
:100C50009BB23D4AD31A9BB21A0017E0344B1B6873
:100C60003A4A94466344374A0021525E934208DB75
:100C70002F4B1B689BB2354A944663449BB21A00C3
:100C800004E0304B00229B5E9BB21A001C4B5A635F
:100C9000294B1B682A4A9A182A4B00215B5E1900CF
:100CA000294B5B1A9A4253DB264B00229B5E9BB278
:100CB000254AD31A9BB21A0062E0C04600240140C4
:100CC0005C040020090000200A00002080040020AD
:100CD0008404002088040020FF0300008C0400200E
:100CE0008E04002090040020660400206804002088
:100CF0006A040020AEFCFFFF5203000058040020ED
:100D0000002C0140FF7FFFFF000800480400002086
:100D100060EA0000A00400209404002008000020E5
:100D20009804002078040020A82400080000002077
:100D30006C0400207F0000807004002074040020F8
:100D4000DB0500007C040020B80B0000DC0500007F
:100D5000264B1B68264A94466344264A0021525E6D
:100D6000934208DB214B1B689BB2214A94466344A3
:100D70009BB21A0004E01F4B00229B5E9BB21A003C
:100D80001D4B9A631D4B1B681D4A9A18194B002175
:100D90005B5E19001B4B5B1A9A4208DB154B002265
:100DA0009B5E9BB2174AD31A9BB21A0017E0134BF3
:100DB0001B680F4A944663440E4A0021525E9342D8
:100DC00008DB0E4B1B689BB2094A944663449BB2F6
:100DD0001A0004E0074B00229B5E9BB21A00064BF0
:100DE000DA6300E0C046BD4605B0F0BD70040020E7
:100DF000DC0500007C040020002C0140740400206D
:100E0000DB050000B80B000080B582B000AF020027
:100E1000FB1D1A70FB1D1B787F2B09D8FB1D1B784F
:100E20001A001F231A40044B012191400A001A6046
:100E3000C046BD4602B080BD00E100E090B583B081
:100E400000AF02003960FB1D1A70FB1D1B787F2B61
:100E500028D82F4AFB1D1B785BB29B08C0339B0030
:100E60009B58FA1D1278110003220A40D200FF217C
:100E700091400A00D2431A4011003B689B01FF22B7
:100E80001A40FB1D1B78180003230340DB009A4027
:100E90001F48FB1D1B785BB29B080A43C0339B00B5
:100EA0001A5031E01B4AFB1D1B7819000F230B4021
:100EB000083B9B0806339B00D31804331B68FA1DBC
:100EC0001278110003220A40D200FF2191400A004B
:100ED000D2431A4011003B689B01FF221A40FB1DC0
:100EE0001B78180003230340DB009A400948FB1DD0
:100EF0001B781C000F232340083B9B080A43063342
:100F00009B00C31804331A60C046BD4603B090BDB1
:100F100000E100E000ED00E080B582B000AF786055
:100F20007B685A1E80235B049A4201D3012310E0A0
:100F30000A4B7A68013A5A6001235B420321180088
:100F4000FFF77CFF054B00229A60044B07221A60D2
:100F500000231800BD4602B080BDC04610E000E08E
:100F600080B500AF494B5A69484BF02149030A4309
:100F70005A619023DB055A689023DB0544490A40F7
:100F80005A609023DB055A689023DB0580214901D4
:100F90000A435A609023DB05802212015A613D4BBF
:100FA0001A683C4B3A490A401A603A4B1A68394B66
:100FB000802149010A431A60364B08225A61354B99
:100FC0001A68344B34490A401A60324B1A68314B64
:100FD000802149000A431A602E4B04225A612F4B8C
:100FE0005A682E4B2C490A405A602C4B5A682B4B9E
:100FF000802149000A435A60284B8022D2005A615E
:10100000264B1A68254B24490A401A60234B1A685C
:10101000224B802149000A431A60204B04225A6166
:101020001E4B5A681D4BF0218A435A601B4B5A686D
:101030001A4B40210A435A60194B5A68184B120147
:1010400012095A60164B5A68154B8021C9050A438C
:101050005A60134B5A68124B12490A405A60104B9F
:101060005A680F4B8021C9040A435A600C4B5A68D6
:101070000B4B0C490A405A60094B5A68084B8021B7
:10108000C9040A435A60C046BD4680BD00100240F4
:10109000FF0FFFFF000C0048FFF0FFFF00040048B7
:1010A00000080048FFFFFFF080B500AF0B4B0022A7
:1010B0001A600B4B1B68FA2291001800FFF724F806
:1010C00003001800FFF728FF01235B4200211800EE
:1010D000FFF7B4FEC046BD4680BDC046A004002058
:1010E0000C00002080B500AF084B1B68002B04D01B
:1010F000064B1B685A1E054B1A60054B1B685A1C91
:10110000034B1A60C046BD4680BDC0469C0400200B
:10111000A004002080B582B000AF7860064B7A68EA
:101120001A60C046044B1B68002BFBD1C046C0466A
:10113000BD4602B080BDC0469C04002080B500AF13
:10114000794B9A69784B802109010A439A61764B61
:101150005A69754BC021C9020A435A619023DB05C5
:101160005A6A9023DB050F218A435A629023DB05DC
:101170005A6A9023DB0502210A435A629023DB0559
:101180005A689023DB050F218A435A609023DB05C0
:101190005A689023DB0509210A435A609023DB0536
:1011A0005A6A9023DB05F0218A435A629023DB05BB
:1011B0005A6A9023DB0520210A435A629023DB05FB
:1011C0005A689023DB05F0218A435A609023DB059F
:1011D0005A689023DB0590210A435A609023DB056F
:1011E0005A6A9023DB0551490A405A629023DB0575
:1011F0005A6A9023DB05802189000A435A629023B2
:10120000DB055A689023DB0548490A405A60902361
:10121000DB055A689023DB05902109010A435A60D7
:10122000434B5A6A424B43490A405A62404B5A6AFE
:101230003F4B802189030A435A623D4B5A683C4B1D
:101240003C490A405A603A4B5A68394B902109048C
:101250000A435A60364B5A6A354B37490A405A623C
:10126000334B5A6A324B802189040A435A62304B0D
:101270005A682F4B30490A405A602D4B5A682C4B04
:10128000902109050A435A60294B5A6A284B1201DA
:1012900012095A62264B5A6A254B802189050A4356
:1012A0005A62234B5A68224B120112095A60204B92
:1012B0005A681F4B902109060A435A601F4B0022AF
:1012C0009A601E4B20221A601C4B00229A621B4B14
:1012D0001B4ADA62194B01221A63184B20225A600A
:1012E000164B184A9A61154B6022DA61134B164A65
:1012F0005A64124B154A1A62104B5A6C0F4B8021DC
:1013000009020A435A640D4B5A680C4BA821890103
:101310000A435A60094B1A68084B01210A431A60B4
:10132000C046BD4680BDC04600100240FFF0FFFF32
:1013300000040048FFFF0FFFFFFFFFF0002C0140FB
:10134000B80B0000606000001E0C00005505000096
:1013500080B500AF154B9A69144B802189000A4370
:101360009A61124B5A69114BC021C9020A435A6152
:101370009023DB0500221A600D4B1A680C4BFF21ED
:101380008A431A600B4B0C4A5A600A4B0B4A9A600C
:10139000084B0B4ADA6000210C20FFF74FFD0C20B0
:1013A000FFF732FDC046BD4680BDC046001002407A
:1013B00000040048002401400D0400000102020066
:1013C000B3420000B0B58EB000AFB861F9617A6188
:1013D00000237B6301220023BA62FB627B691B69E5
:1013E0007B620EE07B69DB68BB600023FB60BA6850
:1013F000FB68B86AF96AFFF71DF802000B00BA62D1
:10140000FB62BA6AFB6AB869F969FEF7F3FF02008A
:101410000B007969C9680C0000210D009D4248D875
:10142000E0D19442DED944E0BA6AFB6AB869F9694E
:10143000FEF7E0FF02000B0013003B62B869F96998
:10144000BA6AFB6AFEF7D6FFBA61FB617B69DB68AB
:101450003B6000237B603A687B68B86AF96AFEF7F4
:10146000C9FF02000B00BA62FB627B6B002B06D146
:101470003B6A002B03DCBB6AFA6A134319D13B6A4F
:10148000092B0ADD7B691B7804221340DBB2002B99
:1014900001D0372302E0572300E030233A6AD1B26B
:1014A0007A6A501C78625B18DBB213707B6B013375
:1014B0007B63BB6AFA6A1343B6D17B6A00221A7057
:1014C000C046BD460EB0B0BD80B584B000AFB860B8
:1014D000F9607A60FB68002B0CDABA68FB680020C0
:1014E0000021801A994102000B00BA60FB607B6802
:1014F0002D221A72B868F9687B681A00FFF762FF3C
:10150000C046BD4604B080BD80B586B000AF7860EF
:10151000396000237B6101233B613B681B69FB60F1
:1015200004E03B68DA683B6953433B61396978689A
:10153000FEF7EAFD03001A003B68DB689A42F0D22E
:1015400037E039697868FEF7DFFD0300BB607B6830
:1015500039691800FEF75EFE0B007B603B68DB68B4
:1015600019003869FEF7D0FD03003B617B69002B51
:1015700005D1BB68002B02DC3B69002B19D1BB688D
:10158000092B0ADD3B681B7804221340DBB2002BD9
:1015900001D0372302E0572300E03023BA68D1B2EC
:1015A000FA68501CF8605B18DBB213707B6901337A
:1015B0007B613B69002BC4D1FB6800221A70C046D6
:1015C000BD4606B080BD80B582B000AF786039609E
:1015D0007B68002B05DA7B685B427B603B682D22D1
:1015E0001A727B683A6811001800FFF78DFFC04639
:1015F000BD4602B080BD80B586B000AF786039606E
:1016000000237B6101233B613B681B69FB6004E0B5
:101610003B68DA683B6953433B6139697868FEF798
:1016200073FD03001A003B68DB689A42F0D237E092
:1016300039697868FEF768FD0300BB607B6839692B
:101640001800FEF7E7FD0B007B603B68DB681900C4
:101650003869FEF759FD03003B617B69002B05D11A
:10166000BB68002B02DC3B69002B19D1BB68092B3E
:101670000ADD3B681B7804221340DBB2002B01D04B
:10168000372302E0572300E03023BA68D1B2FA686A
:10169000501CF8605B18DBB213707B6901337B610F
:1016A0003B69002BC4D1FB6800221A70C046BD46BE
:1016B00006B080BD80B582B000AF786039607B68CD
:1016C000002B05DA7B685B427B603B682D221A7237
:1016D0007B683A6811001800FFF78DFFC046BD46D1
:1016E00002B080BD80B582B000AF0200FB1D1A7051
:1016F000FB1D1B782F2B07D9FB1D1B78392B03D81B
:10170000FB1D1B78303B19E0FB1D1B78602B07D9B4
:10171000FB1D1B78662B03D8FB1D1B78573B0DE088
:10172000FB1D1B78402B07D9FB1D1B78462B03D8CC
:10173000FB1D1B78373B01E001235B421800BD46CF
:1017400002B080BD80B588B000AFB9607A603B6000
:101750000F23FB18021C1A70BB681B68FB61002377
:10176000BB6110E07A697B689A4218DC7B68BA69D1
:101770005A437B69D318BB61FB695A1CFA610F227B
:10178000BA181B7813700F23FB181B781800FFF78B
:10179000A9FF03007B617B69002BE3DA00E0C04610
:1017A000BB68FA691A603B68BA691A600F23FB18B4
:1017B0001B781800BD4608B080BD80B588B000AF6A
:1017C000F860B9607A607B685B68FB617B681B6965
:1017D000BB6102E0FB69013BFB61BB695A1CBA615A
:1017E0001B78002B02D0FB69002BF3DC7B681B7A93
:1017F000002B02D0FB69013BFB617B681B78022256
:101800001340DBB2002B07D07B68DB68102B03D1C1
:10181000FB69023BFB610DE07B681B7802221340F1
:10182000DBB2002B06D07B68DB68082B02D1FB699A
:10183000013BFB617B681B7801221340DBB2002B6C
:1018400011D17B681B7808221340DBB2002B0AD130
:1018500004E0FA68BB68202110009847FB695A1E13
:10186000FA61002BF5DC7B681B7A002B05D07B68C6
:10187000197AFA68BB68100098477B681B780222C7
:101880001340DBB2002B17D07B68DB68102B13D121
:10189000FA68BB683021100098477B681B780422E7
:1018A0001340DBB2002B01D0582200E07822F86808
:1018B000BB68110098470FE07B681B780222134039
:1018C000DBB2002B08D07B68DB68082B04D1FA68F8
:1018D000BB683021100098477B681B7801221340B9
:1018E000DBB2002B0AD004E0FA68BB68302110009C
:1018F0009847FB695A1EFA61002BF5DC7B681B696F
:10190000BB6106E01723FB181978FA68BB68100062
:101910009847BB695A1CBA6117217A181B78137053
:101920007B181B78002BEDD17B681B7801221340BC
:10193000DBB2002B11D17B681B7808221340DBB28D
:10194000002B0AD004E0FA68BB68202110009847F9
:10195000FB695A1EFA61002BF5DCC046BD4608B093
:1019600080BD000090B591B000AFF860B9607A60BA
:101970003B602823FB181022BA181A61C7E13F22E6
:10198000BB181B78252B06D0BB181978FA68BB68E2
:1019900010009847BBE13E23FB1800221A70282054
:1019A0003B181A7801218A431A703B181A780221D1
:1019B0008A431A703B1800225A603B181A78082193
:1019C0008A431A703B1800221A7220E03F23FB184A
:1019D0001B78302B0BD018DC232B0FD02D2B14D1E0
:1019E0002823FB181A7808210A431A700FE02823CD
:1019F000FB181A7801210A431A7008E02823FB1803
:101A00001A7802210A431A7001E0C0460AE07B6896
:101A10005A1C7A603F217A181B7813707B181B7848
:101A2000002BD3D13F203B181B782F2B10D93B180C
:101A30001B78392B0CD83C182823FB181A1D391D8C
:101A40003B18187813000A22FFF77CFE030023706E
:101A50003F23FB181B782E2B15D12823FB181A784F
:101A600001210A431A707B685A1C7A603F217A1858
:101A70001B7813700A00BB181B782F2B03D9BB18D7
:101A80001B78392BEFD93F217B181B787A2B0AD191
:101A90007B685A1C7A607A181B7813703E23FB18F7
:101AA00001221A701BE03F217B181B786C2B16D18A
:101AB0007B685A1C7A607A181B7813703E203B189A
:101AC00001221A707B181B786C2B08D17B685A1C7A
:101AD0007A607A181B7813703B1802221A703F2321
:101AE000FB181B78782B00DD10E1582B06DA002B51
:101AF00000D119E1252B00D101E107E1583B202B52
:101B000000D903E19A008B4BD3181B689F46282409
:101B10003B190A22DA603E23FB181B78022B0DD1F9
:101B20003B680733072293431A0008323A6018686B
:101B300059683B191A00FFF745FC19E03E23FB18D2
:101B40001B78012B0AD13B681A1D3A601B682822BA
:101B5000BA1811001800FFF7D7FC09E03B681A1DFE
:101B60003A601B682822BA1811001800FFF743FDDD
:101B70002823FA18B968FB681800FFF71EFEC6E0B4
:101B800028243B190A22DA603E23FB181B78022B1B
:101B90000DD13B680733072293431A0008323A609D
:101BA000186859683B191A00FFF78EFC19E03E23AC
:101BB000FB181B78012B0AD13B681A1D3A601B6881
:101BC0002822BA1811001800FFF7FDFC09E03B6855
:101BD0001A1D3A601B682822BA1811001800FFF776
:101BE00069FD2823FA18B968FB681800FFF7E5FDBE
:101BF0008DE02823FB181A7802210A431A703E232D
:101C0000FB1800221A7028243B191022DA603F23A7
:101C1000FB181B78583B5A425341DAB23B19012159
:101C20000A4090001A7804218A43111C021C0A43BE
:101C30001A703E23FB181B78022B0DD13B6807332B
:101C4000072293431A0008323A60186859683B1912
:101C50001A00FFF7B7FB19E03E23FB181B78012B96
:101C60000AD13B681A1D3A601B682822BA18110075
:101C70001800FFF749FC09E03B681A1D3A601B6831
:101C80002822BA1811001800FFF7B5FC2823FA180B
:101C9000B968FB681800FFF790FD38E028217B1831
:101CA0000822DA603B681A1D3A601B680C007A183B
:101CB00011001800FFF79FFC3A19B968FB6818007B
:101CC000FFF77BFD23E03B681A1D3A601B68D9B221
:101CD000FA68BB681000984719E03B681A1D3A6023
:101CE0001A6828243B191A613A19B968FB68180068
:101CF000FFF763FD3B191022BA181A6107E03F2372
:101D0000FB181978FA68BB6810009847C0467B68D2
:101D10005A1C7A603F217A181B7813707B181B7845
:101D2000002B00D02BE600E0C046C046BD4611B0F7
:101D300090BDC046A826000880B582B000AF78608C
:101D40003960054B3A681A60044B7A681A60C046DD
:101D5000BD4602B080BDC046A4040020A8040020F7
:101D60000FB480B582B000AF1423FB187B60074B23
:101D70001868074B19687B683A69FFF7F3FDC0469E
:101D8000BD4602B080BC08BC04B01847A8040020BF
:101D9000A404002080B582B000AF0200FB1D1A70C1
:101DA000FB1D1B787F2B09D8FB1D1B781A001F23F6
:101DB0001A40044B012191400A001A60C046BD46FA
:101DC00002B080BD00E100E080B582B000AF374BCB
:101DD0009A69364B8021C9010A439A61334B5A698B
:101DE000324B8021C9020A435A61314B1A6A304B87
:101DF00030490A401A622E4B1A682D4B2D490A4071
:101E00001A602B4B1A682A4B902109050A431A6065
:101E1000274B1A6A264B28490A401A62244B1A6A31
:101E2000234BC02189020A431A62214B1A68204BB6
:101E300021490A401A601E4B1A681D4B8021C902B5
:101E40000A431A601D4B00229A611C4B3022DA6152
:101E50001A4B9A69194B19210A439A61184B1B684E
:101E6000E12251021800FEF74FF903001A00BB1DD2
:101E70001A80BB1D1B881B099AB2104B1A62BB1D2E
:101E80001A880E4B0F210A405A620C4B02221A612B
:101E90001B20FFF77FFF0B4A0A4B11001800FFF7CA
:101EA0004BFFC046BD4602B080BDC0460010024098
:101EB00000040048FFFFFFF0FFFFF0FF0038014083
:101EC0000C0000205720000880B582B000AF374BCF
:101ED000DB68022213402FD0344B5A69334B022166
:101EE0000A435A61314B5A68FB1D1A70FB1D1B785F
:101EF0001800FEF74FFCFB1D1B78312B0CD12C4B2F
:101F0000DB680822134003D0294B08225A6113E0F2
:101F1000274B08221A610FE0FB1D1B78322B0BD1D7
:101F2000234BDB680422134003D0214B04225A6167
:101F300002E01F4B04221A611C4BDB680122134094
:101F40002FD01A4B5A69194B01210A435A61194B78
:101F50001B68002B1FD0184B1B68591C164A1160B8
:101F6000164AD25C114B1A60134B1B687F2B02D9A7
:101F7000114B00221A600F4B1B685A1E0D4B1A6042
:101F80000C4B1B68002B0CD1084B1A69074B012125
:101F90008A431A6105E0054B1A69044B01218A4303
:101FA0001A61C046BD4602B080BDC046003801403F
:101FB000000C0048300500202C050020AC04002057
:101FC00080B584B000AF0200FB1D1A70134B1A6974
:101FD000124B01218A431A61114B1B687F2B12D8C7
:101FE000104B1A680E4B1B68D3187F221340FB60FE
:101FF0000D4AFB68D318FA1D12781A70084B1B683B
:102000005A1C074B1A60054B1A69044B01210A43FD
:102010001A61C046BD4604B080BDC04600380140CC
:10202000300500202C050020AC04002080B582B0D3
:1020300000AF786006E07B685A1C7A601B78180055
:10204000FFF7BEFF7B681B78002BF4D1C046C0466B
:10205000BD4602B080BD80B582B000AF78600A0096
:10206000FB1C1A70FB1C1B781800FFF7A9FFC04669
:10207000BD4602B080BD00000D4885460D480E49A2
:102080000E4A002302E0D458C4500433C4188C42D2
:10209000F9D30B4A0B4C002301E013600432A24237
:1020A000FBD300F013F800F0ABF8FEF7E7FAFEE719
:1020B00000100020000000203C04002044270008FD
:1020C0003C04002038050020FEE7000080B500AF8A
:1020D000164B1A68154B01210A431A60134B5A68B4
:1020E000124B13490A405A60104B1A680F4B1149A2
:1020F0000A401A600D4B1A680C4B0F490A401A60CF
:102100000A4B5A68094B0D490A405A60074B1A6836
:10211000064B0B490A401A60044B9F2212049A6036
:1021200000F010F8C046BD4680BDC0460010024019
:102130000CC0FFF8FFFFF6FEFFFFFBFFFFFF3CFFB9
:10214000FFFF8F0080B582B000AF284B1A68274B85
:1021500001210A431A60C046244B1B680222134027
:10216000FAD0234B234A1A60234B1A68224B1021C2
:102170000A431A60204B1A681F4B07218A431A60D2
:102180001B4B1B68013B1D491800FDF7BDFF0300F9
:102190007B60194B1968184B7A680A431A60134A16
:1021A000124B52685A60114A104B52685A600F4BDA
:1021B0001A680E4B802149030A431A600B4B5A6878
:1021C0000A4B03218A435A60084B5A68074B022185
:1021D0000A435A60C046054B5B680C221340082B2B
:1021E000F9D1C046C046BD4602B080BD00100240D5
:1021F0000C00002000A24A040020024000366E01BC
:1022000070B50C4D0C4E761BB61005D0002408CDD1
:1022100001349847A642FAD100F096F8074D084ECF
:10222000761BB61005D0002408CD01349847A6428D
:10223000FAD170BD38270008382700083827000871
:1022400040270008034B10B5002B02D0024800F0D5
:1022500005F810BD000000006D22000810B5010057
:1022600000230022002000F019F810BD70B5074DC2
:10227000074C641BA41005D0013CA300EB58984701
:10228000002CF9D100F066F870BDC0464027000868
:10229000442700087047C0467047C046F0B5D64690
:1022A0004F464646C0B5264F82B006003868924673
:1022B00098468946FFF7EEFF224B1B680193A42343
:1022C000019A5B00D558002D2ED06C681F2C30DC95
:1022D000002E0FD1631C6B604B460234A40038689B
:1022E0006351FFF7D9FF002002B0E0BCBA46B14607
:1022F000A846F0BD882251462800A300EB1899504B
:10230000873AA2408930FF3001681143016084217F
:10231000404649005850022EDCD12B008D33FF334C
:1023200019680A431A60D5E715004D35FF35D550B9
:10233000CBE73868FFF7B0FF01204042D4E7C04642
:10234000380400202C270008F8B5C046F8BC08BCAB
:102350009E467047F8B5C046F8BC08BC9E4670471C
:102360000D0A494E464F3A20486F76657220626FDB
:102370006172642073746570706572206D6F746F24
:102380007220746573740D0A000000002B000000B9
:102390002D0000006D696C6C69733A2564414443FB
:1023A000206375725F706861423A256420637572BC
:1023B0005F706861433A2564206375725F44433AF5
:1023C00025642062617474313A25642074656D70EF
:1023D0003A256420656E61626C653A2573207370DE
:1023E0006565643A256420646972656374696F6E1B
:1023F0003A25642073696E75735F616D706C6974E2
:102400007564653A25640D0A00000000666F7277F6
:10241000617264006261636B776172640000000046
:10242000446972656374696F6E206368616E676585
:102430006420746F3A2025730D0A000053696E758D
:102440007320616D706C6974756465206465637276
:10245000656173656420746F3A2025640D0A00007D
:1024600053696E757320616D706C69747564652055
:10247000696E6372656173656420746F3A202564C8
:102480000D0A00004D6F746F7220656E61626C659D
:10249000640D0A004D6F746F722064697361626C21
:1024A00065640D0A00000000000000000500000047
:1024B0000A0000000F0000001400000019000000D6
:1024C0001E00000023000000280000002D00000076
:1024D00031000000360000003B000000400000001A
:1024E000450000004A0000004E00000053000000BC
:1024F000570000005B0000005F0000006200000069
:102500006400000067000000690000006B0000002C
:102510006D0000006E0000006F0000007000000001
:1025200071000000710000007100000071000000E7
:10253000700000006F0000006E0000006D000000E1
:102540006B000000690000006700000064000000EC
:10255000620000005F0000005B0000005700000008
:10256000530000004E0000004A000000450000003B
:10257000400000003B000000360000003100000079
:102580002D00000028000000230000001E000000B5
:1025900019000000140000000F0000000A000000F5
:1025A0000500000000000000FBFFFFFFF6FFFFFF3B
:1025B000F1FFFFFFECFFFFFFE7FFFFFFE2FFFFFF81
:1025C000DDFFFFFFD8FFFFFFD3FFFFFFCFFFFFFFC0
:1025D000CAFFFFFFC5FFFFFFC0FFFFFFBBFFFFFFFD
:1025E000B6FFFFFFB2FFFFFFADFFFFFFA9FFFFFF39
:1025F000A5FFFFFFA1FFFFFF9EFFFFFF9CFFFFFF67
:1026000099FFFFFF97FFFFFF95FFFFFF93FFFFFF7E
:1026100092FFFFFF91FFFFFF90FFFFFF8FFFFFFF84
:102620008FFFFFFF8FFFFFFF8FFFFFFF90FFFFFF79
:1026300091FFFFFF92FFFFFF93FFFFFF95FFFFFF5B
:1026400097FFFFFF99FFFFFF9CFFFFFF9EFFFFFF2C
:10265000A1FFFFFFA5FFFFFFA9FFFFFFADFFFFFFEA
:10266000B2FFFFFFB6FFFFFFBBFFFFFFC0FFFFFF93
:10267000C5FFFFFFCAFFFFFFCFFFFFFFD3FFFFFF35
:10268000D8FFFFFFDDFFFFFFE2FFFFFFE7FFFFFFD8
:10269000ECFFFFFFF1FFFFFFF6FFFFFFFBFFFFFF78
:1026A0000000000000000000061C00080C1D0008CF
:1026B0000C1D00080C1D00080C1D00080C1D000856
:1026C0000C1D00080C1D00080C1D00080C1D000846
:1026D0000C1D0008C61C0008801B00080C1D00080B
:1026E0000C1D00080C1D00080C1D0008801B0008B4
:1026F0000C1D00080C1D00080C1D00080C1D000816
:102700000C1D00089C1C0008F21B00080C1D000892
:102710000C1D0008DA1C00080C1D00080E1B000828
:102720000C1D00080C1D0008061C000810000020ED
:0827300060DDFF7F01000000E5
:0827380045220008E900000839
:04274000C1000008CC
:10274400140000003C0000000164000400A24A04DC
:1027540000000000FC02002064030020CC030020E1
:102764000000000000000000000000000000000065
:102774000000000000000000000000000000000055
:102784000000000000000000000000000000000045
:102794000000000000000000000000000000000035
:1027A4000000000000000000000000000000000025
:1027B4000000000000000000000000000000000015
:1027C4000000000000000000000000000000000005
:1027D40000000000000000000000000000000000F5
:1027E40000000000000000000000000000000000E5
:1027F40000000000000000000100000000000000D4
:102804000E33CDAB34126DE6ECDE05000B00000098
:1028140000000000000000000000000000000000B4
:1028240000000000000000000000000000000000A4
:102834000000000000000000000000000000000094
:102844000000000000000000000000000000000084
:0C2B7400000000000000000034050020FC
:040000050800207956
:00000001FF
