:020000040800F2
:100000000010002035120008851200088512000833
:1000100000000000000000000000000000000000E0
:100020000000000000000000000000008512000831
:100030000000000000000000851200088D0F00087D
:100040008512000885120008851200088512000834
:100050008512000885120008851200088512000824
:100060008512000885120008851200088512000814
:10007000910B0008851200088512000885120008FF
:100080008512000800000000000000008512000832
:100090000000000085120008851200088512000883
:1000A0000000000085120008851200088512000873
:1000B0008512000800000000851200080000000002
:1000C00010B5064C2378002B07D1054B002B02D02E
:1000D000044800E000BF0123237010BD3C04002051
:1000E0000000000004150008044B10B5002B03D0DD
:1000F0000349044800E000BF10BDC04600000000F6
:100100004004002004150008002243088B4274D3E9
:1001100003098B425FD3030A8B4244D3030B8B4208
:1001200028D3030C8B420DD3FF22090212BA030C11
:100130008B4202D31212090265D0030B8B4219D3F2
:1001400000E0090AC30B8B4201D3CB03C01A524112
:10015000830B8B4201D38B03C01A5241430B8B425A
:1001600001D34B03C01A5241030B8B4201D30B0343
:10017000C01A5241C30A8B4201D3CB02C01A52416A
:10018000830A8B4201D38B02C01A5241430A8B422D
:1001900001D34B02C01A5241030A8B4201D30B0216
:1001A000C01A5241CDD2C3098B4201D3CB01C01A30
:1001B000524183098B4201D38B01C01A524143093A
:1001C0008B4201D34B01C01A524103098B4201D328
:1001D0000B01C01A5241C3088B4201D3CB00C01A95
:1001E000524183088B4201D38B00C01A524143080D
:1001F0008B4201D34B00C01A5241411A00D2014632
:10020000524110467047FFE701B5002000F0F0F8BA
:1002100002BDC0460029F7D076E7704703460B437E
:100220007FD4002243088B4274D303098B425FD3EF
:10023000030A8B4244D3030B8B4228D3030C8B421B
:100240000DD3FF22090212BA030C8B4202D3121201
:10025000090265D0030B8B4219D300E0090AC30BD6
:100260008B4201D3CB03C01A5241830B8B4201D383
:100270008B03C01A5241430B8B4201D34B03C01A6C
:100280005241030B8B4201D30B03C01A5241C30AE4
:100290008B4201D3CB02C01A5241830A8B4201D355
:1002A0008B02C01A5241430A8B4201D34B02C01A3F
:1002B0005241030A8B4201D30B02C01A5241CDD2E4
:1002C000C3098B4201D3CB01C01A524183098B422F
:1002D00001D38B01C01A524143098B4201D34B0118
:1002E000C01A524103098B4201D30B01C01A52417B
:1002F000C3088B4201D3CB00C01A524183088B4202
:1003000001D38B00C01A524143088B4201D34B00EA
:10031000C01A5241411A00D201465241104670475C
:100320005DE0CA0F00D04942031000D34042534061
:1003300000229C4603098B422DD3030A8B4212D321
:10034000FC22890112BA030A8B420CD38901921153
:100350008B4208D3890192118B4204D389013AD090
:10036000921100E08909C3098B4201D3CB01C01A65
:10037000524183098B4201D38B01C01A5241430978
:100380008B4201D34B01C01A524103098B4201D366
:100390000B01C01A5241C3088B4201D3CB00C01AD3
:1003A000524183088B4201D38B00C01A5241D9D2EB
:1003B00043088B4201D34B00C01A5241411A00D26C
:1003C0000146634652415B10104601D34042002B68
:1003D00000D54942704763465B1000D3404201B5E7
:1003E000002000F005F802BD0029F8D016E770479C
:1003F0007047C04680B582B000AF734B9A688023C7
:100400001B0213405A425341DAB2FB1D1A706E4B65
:100410009A688023DB0113405A425341DAB2BB1D74
:100420001A70694B9A6880239B0113405A425341CA
:10043000DAB27B1D1A70FB1D1B78002B0BD1BB1D84
:100440001B78002B07D17B1D1B78002B03D05F4B43
:1004500000221A6053E0FB1D1B78002B0CD1BB1D42
:100460001B78002B08D07B1D1B78002B04D0574B2A
:10047000F02292011A6042E0FB1D1B78002B0CD188
:10048000BB1D1B78002B08D07B1D1B78002B04D1D3
:100490004E4BF022D2011A6031E0FB1D1B78002B7D
:1004A0000CD0BB1D1B78002B08D07B1D1B78002BAC
:1004B00004D1464BB42212021A6020E0FB1D1B78C7
:1004C000002B0CD0BB1D1B78002B08D17B1D1B788B
:1004D000002B04D13D4BF02212021A600FE0FB1DED
:1004E0001B78002B69D0BB1D1B78002B65D17B1DB1
:1004F0001B78002B61D0354B962252021A60334B89
:100500001A68334B1B689A4259D0304B1A68304BEB
:100510001B68D31A3B603A68B4231B029A4205DD7C
:100520003B682C4A944663443B6009E03B682A4A96
:10053000934205DA3B68B4225202944663443B601E
:10054000234B1A68F0231B029A420BDB1F4B1A68DD
:10055000F0239B019A4205DC204B1B685A1C1F4B61
:100560001A6010E01A4B1A68F0239B019A420ADCC9
:10057000164B1A68F0231B029A4204DB174B1B68C8
:100580005A1E164B1A60114B1A68114B1A60134B06
:100590001A6813005B009B181A01D21AD3021A00C2
:1005A0000A4B1B68D2180E4B1B68D21A0D4B1A60EF
:1005B0000C4B1A680C4B1A6002E0C04600E0C046C3
:1005C000BD4602B080BDC046000800486C04002053
:1005D000C00400200098FEFF004CFFFF70040020C4
:1005E00004000020740400209804002080B58AB024
:1005F00000AF5F4B1A685F4B1B68D31A7B627B6A44
:10060000002B01DB012201E001235A421323FB18D6
:100610001A707A6AB4235B029A4202DDB4235B0249
:100620007B627B6A544A934201DA534B7B62132309
:10063000FB1800229A5613005B009B181A01D21A6D
:1006400053021A004B4B1B68D2184C4B1A60802384
:100650009B003B621923FB617B6ADA179B185340AE
:10066000FB60FA68B423DB019A4209DA00237B625B
:1006700000233B620023FB61414B00221A6008E02B
:10068000FA68B4231B029A4203DC20233B62012355
:10069000FB617B6A002B00DAFF331B12BB60FB6936
:1006A000BA6853431A12364B1B68D218344B1A607F
:1006B000334B1A68FA235B029A4203DD304BFA226D
:1006C00052021A602E4B1B682E4A934202DA2C4BC0
:1006D0002C4A1A603B6ABA6853431A12284B1B68AB
:1006E000D3187B607B68DA179B185340BB61BA69EB
:1006F000C8235B009A4202DDC8235B00BB61BB6973
:100700001AB2214B1A801B4B1A68204B1B68D31A54
:100710007B617B69002B02DA7B695B427B617A69D2
:10072000F0235B019A4214DAFA68F0239B019A42A3
:100730000FDD174B1B8801339AB2154B1A80144BEF
:100740001A88FA239B009A4209D9124B01221A7087
:1007500005E00F4B00221A800E4B00221A70054B49
:100760001A680A4B1A60C046BD460AB080BDC04632
:100770007C040020980400200098FEFF78040020EC
:10078000A4040020000CFEFF940400209C04002020
:10079000A0040020A204002080B582B000AF704BFE
:1007A0001B78002B00D1D7E06E4B1B68B42251029E
:1007B0001800FFF719FE0B001A00B423990010006F
:1007C000FFF72CFD03007B607B687F2213407B607A
:1007D000654B7A689200D358644A0021525E5343B5
:1007E00064211800FFF71AFD03001A00604B1A601D
:1007F0007B682A337F221A405B4B9200D3585B4AB6
:100800000021525E534364211800FFF707FD0300E7
:100810001A00584B1A607B6855337F221A40524B9E
:100820009200D358514A0021525E5343642118006C
:10083000FFF7F4FC03001A004F4B1A604C4B1B6887
:100840004E4A9A184E4B00215B5E19004D4B5B1AC5
:100850009A4208DB4A4B00229B5E9BB2494AD31A5C
:100860009BB21A0017E0424B1B68474A9446634408
:10087000434A0021525E934208DB3D4B1B689BB20A
:10088000414A944663449BB21A0004E03C4B002268
:100890009B5E9BB21A003D4B5A63364B1B68374A2E
:1008A0009A18374B00215B5E1900364B5B1A9A424F
:1008B00008DB334B00229B5E9BB2324AD31A9BB2B9
:1008C0001A0017E02B4B1B682F4A944663442C4AAE
:1008D0000021525E934208DB264B1B689BB22A4ADA
:1008E000944663449BB21A0004E0254B00229B5EB1
:1008F0009BB21A00254B9A631F4B1B681F4A9A181C
:100900001F4B00215B5E19001E4B5B1A9A4208DBED
:100910001B4B00229B5E9BB21A4AD31A9BB21A0051
:1009200017E0154B1B68184A94466344144A00218B
:10093000525E934208DB104B1B689BB2124A9446EE
:1009400063449BB21A0004E00D4B00229B5E9BB2F5
:100950001A000E4BDA6300E0C046BD4602B080BD0F
:1009600058040020780400201C150008940400207E
:10097000600400206404002068040020DB050000FF
:10098000A8040020B80B0000DC050000002C01408A
:1009900080B584B000AF6E4B5A696D4B01218A431C
:1009A0005A6100F0D5FA00F02FFA00F007FB00F0D2
:1009B0000FFC684B1A68674B67490A401A60654B21
:1009C0001A68644B802109030A431A60614BDA6894
:1009D000604B10210A43DA605E4B1A685D4B5F4939
:1009E0000A401A605B4B1A685A4B802109050A437A
:1009F0001A60584BDA68574B40210A43DA60554B6E
:100A000004221A61564B9A68554B04210A439A6096
:100A1000544B1B68002BFBD072B6C046514B0022D2
:100A20001A6062B6C046504B1B78DBB2002B01D077
:100A3000FFF7DCFDFFF7B0FE4C4B1B685A1C4B4B1D
:100A40001A604A4B1B68632BE2D9424B9A68802399
:100A50009B0013405A425341DBB2FB60444B1B687E
:100A6000FA689A421DD0424BFA681A60404B1B68E4
:100A7000002B16D13F4B1B785A425341DBB21A0070
:100A80003C4B1A703B4B1B78002B05D09023DB05A9
:100A9000802212011A6104E09023DB0580221201FA
:100AA0005A612C4B9B68402213405A425341DBB29F
:100AB000BB60314B1B68BA689A420CD02E4BBA68A7
:100AC0001A602D4B1B68002B05D02C4B1B682C4A41
:100AD0009A182A4B1A601F4B9B68102213405A42E7
:100AE0005341DBB27B60274B1B687A689A420CD07B
:100AF000244B7A681A60234B1B68002B05D01F4BD0
:100B00001B68214A9A181D4B1A60184B00221A6064
:100B10001E4B9A6880231B0213405A425341DAB29B
:100B2000FB1C1A70194B9A688023DB0113405A4250
:100B30005341DAB2BB1C1A70144B9A6880239B0194
:100B400013405A425341DAB27B1C1A7060E7C04628
:100B50000010024000040048FFFFF0FFFFFFFFF01D
:100B6000002401409004002000000020AC0400207C
:100B7000B004002058040020B40400207C040020AD
:100B800000E8EAFFB804002000181500000800483B
:100B900080B500AF354B5A69344B01210A435A6185
:100BA000334B1B685A1C324B1A60304B9B699AB20C
:100BB000304B1A802D4BDB699AB22F4B1A802B4B8E
:100BC0009B6A9AB22D4B1A80284BDB6A9AB22C4B47
:100BD0001A80264B5B6B9AB22A4B1A80234B1B6AF6
:100BE0009AB2294B1A80214B1B6B9AB2274B1A8061
:100BF000274B00221A80264B1B881BB2002B06DADB
:100C0000234B1B881BB2234A93420ADB05E0204B8F
:100C10001B881BB2204A934203DC204B1B78002B1D
:100C200006D11F4B5A6C1E4B1E490A405A6406E0FF
:100C30001B4B5A6C1A4B802109020A435A641A4B07
:100C40001B685A1C184B1A60174B1B680B2B07D9D3
:100C5000154B00221A60154B1B685A1C134B1A6067
:100C6000FFF7C8FBC046BD4680BDC046002401401A
:100C70005C04002080040020820400208404002002
:100C800086040020880400208A0400208C040020B0
:100C90005A040020AEFCFFFF52030000580400205D
:100CA000002C0140FF7FFFFFBC04002090040020C7
:100CB00080B582B000AF0200FB1D1A70FB1D1B78CF
:100CC0007F2B09D8FB1D1B781A001F231A40044BE9
:100CD000012191400A001A60C046BD4602B080BDA5
:100CE00000E100E090B583B000AF02003960FB1D69
:100CF0001A70FB1D1B787F2B28D82F4AFB1D1B78F1
:100D00005BB29B08C0339B009B58FA1D1278110000
:100D100003220A40D200FF2191400A00D2431A4028
:100D200011003B689B01FF221A40FB1D1B78180035
:100D300003230340DB009A401F48FB1D1B785BB276
:100D40009B080A43C0339B001A5031E01B4AFB1D2D
:100D50001B7819000F230B40083B9B0806339B00B0
:100D6000D31804331B68FA1D1278110003220A40BD
:100D7000D200FF2191400A00D2431A4011003B6883
:100D80009B01FF221A40FB1D1B7818000323034020
:100D9000DB009A400948FB1D1B781C000F232340F1
:100DA000083B9B080A4306339B00C31804331A60B0
:100DB000C046BD4603B090BD00E100E000ED00E09C
:100DC00080B582B000AF78607B685A1E80235B04D8
:100DD0009A4201D3012310E00A4B7A68013A5A6023
:100DE00001235B4203211800FFF77CFF054B002223
:100DF0009A60044B07221A6000231800BD4602B017
:100E000080BDC04610E000E080B500AF494B5A6994
:100E1000484BF02149030A435A619023DB055A6885
:100E20009023DB0544490A405A609023DB055A6849
:100E30009023DB05802149010A435A609023DB059A
:100E4000802212015A613D4B1A683C4B3A490A40D4
:100E50001A603A4B1A68394B802149010A431A60DB
:100E6000364B08225A61354B1A68344B34490A40D4
:100E70001A60324B1A68314B802149000A431A60CC
:100E80002E4B04225A612F4B5A682E4B2C490A4094
:100E90005A602C4B5A682B4B802149000A435A60F8
:100EA000284B8022D2005A61264B1A68254B2449D0
:100EB0000A401A60234B1A68224B802149000A43DA
:100EC0001A60204B04225A611E4B5A681D4BF021B8
:100ED0008A435A601B4B5A681A4B40210A435A6096
:100EE000194B5A68184B120112095A60164B5A686E
:100EF000154B8021C9050A435A60134B5A68124B9F
:100F000012490A405A60104B5A680F4B8021C9049D
:100F10000A435A600C4B5A680B4B0C490A405A6002
:100F2000094B5A68084B8021C9040A435A60C046DD
:100F3000BD4680BD00100240FF0FFFFF000C0048BF
:100F4000FFF0FFFF0004004800080048FFFFFFF02B
:100F500080B500AF0B4B00221A600B4B1B68FA22C6
:100F600091001800FFF7D0F803001800FFF728FFE2
:100F700001235B4200211800FFF7B4FEC046BD46C6
:100F800080BDC046C80400200800002080B500AF26
:100F9000084B1B68002B04D0064B1B685A1E054BE0
:100FA0001A60054B1B685A1C034B1A60C046BD46AD
:100FB00080BDC046C4040020C804002080B500AF36
:100FC000794B9A69784B802109010A439A61764BE3
:100FD0005A69754BC021C9020A435A619023DB0547
:100FE0005A6A9023DB050F218A435A629023DB055E
:100FF0005A6A9023DB0502210A435A629023DB05DB
:101000005A689023DB050F218A435A609023DB0541
:101010005A689023DB0509210A435A609023DB05B7
:101020005A6A9023DB05F0218A435A629023DB053C
:101030005A6A9023DB0520210A435A629023DB057C
:101040005A689023DB05F0218A435A609023DB0520
:101050005A689023DB0590210A435A609023DB05F0
:101060005A6A9023DB0551490A405A629023DB05F6
:101070005A6A9023DB05802189000A435A62902333
:10108000DB055A689023DB0548490A405A609023E3
:10109000DB055A689023DB05902109010A435A6059
:1010A000434B5A6A424B43490A405A62404B5A6A80
:1010B0003F4B802189030A435A623D4B5A683C4B9F
:1010C0003C490A405A603A4B5A68394B902109040E
:1010D0000A435A60364B5A6A354B37490A405A62BE
:1010E000334B5A6A324B802189040A435A62304B8F
:1010F0005A682F4B30490A405A602D4B5A682C4B86
:10110000902109050A435A60294B5A6A284B12015B
:1011100012095A62264B5A6A254B802189050A43D7
:101120005A62234B5A68224B120112095A60204B13
:101130005A681F4B902109060A435A601F4B002230
:101140009A601E4B20221A601C4B00229A621B4B95
:101150001B4ADA62194B01221A63184B20225A608B
:10116000164B184A9A61154B6022DA61134B164AE6
:101170005A64124B154A1A62104B5A6C0F4B80215D
:1011800009020A435A640D4B5A680C4BA821890185
:101190000A435A60094B1A68084B01210A431A6036
:1011A000C046BD4680BDC04600100240FFF0FFFFB4
:1011B00000040048FFFF0FFFFFFFFFF0002C01407D
:1011C000B80B0000606000001E0C00005505000018
:1011D00080B500AF124B9A69114B802189000A43F8
:1011E0009A610F4B5A690E4BC021C9020A435A61DA
:1011F0009023DB0500221A600A4B0B4A5A60094B08
:101200000A4A9A60074B0A4ADA6000210C20FFF76D
:1012100069FD0C20FFF74CFDC046BD4680BDC046B1
:1012200000100240002401400D04000001020200F1
:10123000F74200000D4885460D480E490E4A00232E
:1012400002E0D458C4500433C4188C42F9D30B4A7A
:101250000B4C002301E013600432A242FBD300F0E8
:1012600013F800F0ABF8FFF793FBFEE70010002047
:10127000000000203C0400202C1700083C04002043
:10128000D0040020FEE7000080B500AF164B1A68BE
:10129000154B01210A431A60134B5A68124B13492C
:1012A0000A405A60104B1A680F4B11490A401A60E5
:1012B0000D4B1A680C4B0F490A401A600A4B5A68CA
:1012C000094B0D490A405A60074B1A68064B0B49F7
:1012D0000A401A60044B9F2212049A6000F010F832
:1012E000C046BD4680BDC046001002400CC0FFF89D
:1012F000FFFFF6FEFFFFFBFFFFFF3CFFFFFF8F003E
:1013000080B582B000AF284B1A68274B01210A43F1
:101310001A60C046244B1B6802221340FAD0234BAC
:10132000234A1A60234B1A68224B10210A431A6081
:10133000204B1A681F4B07218A431A601B4B1B68FE
:10134000013B1D491800FEF7DFFE03007B60194BCF
:101350001968184B7A680A431A60134A124B52688C
:101360005A60114A104B52685A600F4B1A680E4B64
:10137000802149030A431A600B4B5A680A4B032128
:101380008A435A60084B5A68074B02210A435A6045
:10139000C046054B5B680C221340082BF9D1C046B0
:1013A000C046BD4602B080BD0010024008000020CB
:1013B00000A24A040020024000366E0170B50C4DB8
:1013C0000C4E761BB61005D0002408CD013498478A
:1013D000A642FAD100F096F8074D084E761BB610DB
:1013E00005D0002408CD01349847A642FAD170BD3B
:1013F00020170008201700082017000828170008E9
:10140000034B10B5002B02D0024800F005F810BDC8
:10141000000000002914000810B50100002300227C
:10142000002000F019F810BD70B5074D074C641B83
:10143000A41005D0013CA300EB589847002CF9D12B
:1014400000F066F870BDC046281700082C17000889
:101450007047C0467047C046F0B5D6464F46464630
:10146000C0B5264F82B00600386892469846894635
:10147000FFF7EEFF224B1B680193A423019A5B0048
:10148000D558002D2ED06C681F2C30DC002E0FD1CB
:10149000631C6B604B460234A40038686351FFF74D
:1014A000D9FF002002B0E0BCBA46B146A846F0BD64
:1014B000882251462800A300EB189950873AA24091
:1014C0008930FF30016811430160842140464900A2
:1014D0005850022EDCD12B008D33FF3319680A439C
:1014E0001A60D5E715004D35FF35D550CBE7386884
:1014F000FFF7B0FF01204042D4E7C0463804002087
:101500001C170008F8B5C046F8BC08BC9E467047DA
:0C151000F8B5C046F8BC08BC9E46704709
:10151C0000000000050000000A0000000F000000A1
:10152C0014000000190000001E0000002300000041
:10153C00280000002D0000003100000036000000E3
:10154C003B00000040000000450000004A00000085
:10155C004E00000053000000570000005B0000002C
:10156C005F000000620000006400000067000000E3
:10157C00690000006B0000006D0000006E000000B0
:10158C006F0000007000000071000000710000008E
:10159C007100000071000000700000006F0000007E
:1015AC006E0000006D0000006B0000006900000080
:1015BC006700000064000000620000005F00000093
:1015CC005B00000057000000530000004E000000BC
:1015DC004A00000045000000400000003B000000F5
:1015EC0036000000310000002D0000002800000033
:1015FC00230000001E000000190000001400000071
:10160C000F0000000A0000000500000000000000B0
:10161C00FBFFFFFFF6FFFFFFF1FFFFFFECFFFFFFFC
:10162C00E7FFFFFFE2FFFFFFDDFFFFFFD8FFFFFF3C
:10163C00D3FFFFFFCFFFFFFFCAFFFFFFC5FFFFFF79
:10164C00C0FFFFFFBBFFFFFFB6FFFFFFB2FFFFFFB7
:10165C00ADFFFFFFA9FFFFFFA5FFFFFFA1FFFFFFEE
:10166C009EFFFFFF9CFFFFFF99FFFFFF97FFFFFF10
:10167C0095FFFFFF93FFFFFF92FFFFFF91FFFFFF1F
:10168C0090FFFFFF8FFFFFFF8FFFFFFF8FFFFFFF1D
:10169C008FFFFFFF90FFFFFF91FFFFFF92FFFFFF08
:1016AC0093FFFFFF95FFFFFF97FFFFFF99FFFFFFE2
:1016BC009CFFFFFF9EFFFFFFA1FFFFFFA5FFFFFFAA
:1016CC00A9FFFFFFADFFFFFFB2FFFFFFB6FFFFFF5C
:1016DC00BBFFFFFFC0FFFFFFC5FFFFFFCAFFFFFF00
:1016EC00CFFFFFFFD3FFFFFFD8FFFFFFDDFFFFFFA3
:1016FC00E2FFFFFFE7FFFFFFECFFFFFFF1FFFFFF44
:10170C00F6FFFFFFFBFFFFFF0000000000000000E2
:04171C001000002099
:0817200001140008E9000008B3
:04172800C1000008F4
:10172C0001000000005A000000A24A040000000062
:10173C0000000000FC02002064030020CC03002009
:10174C00000000000000000000000000000000008D
:10175C00000000000000000000000000000000007D
:10176C00000000000000000000000000000000006D
:10177C00000000000000000000000000000000005D
:10178C00000000000000000000000000000000004D
:10179C00000000000000000000000000000000003D
:1017AC00000000000000000000000000000000002D
:1017BC00000000000000000000000000000000001D
:1017CC00000000000000000000000000000000000D
:1017DC0000000000000000000100000000000000FC
:1017EC000E33CDAB34126DE6ECDE05000B000000C1
:1017FC0000000000000000000000000000000000DD
:10180C0000000000000000000000000000000000CC
:10181C0000000000000000000000000000000000BC
:10182C0000000000000000000000000000000000AC
:0C1B5C000000000000000000CC0400208D
:0400000508001235A8
:00000001FF
